:020000040800F2
:1000000040070020ED010008653F0008093C00089A
:10001000613F0008CD0800080157000800000000FB
:10002000000000000000000000000000394300084C
:10003000E108000800000000794000083B43000888
:10004000070200080702000807020008070200086C
:10005000070200080702000807020008070200085C
:10006000070200080702000807020008070200084C
:10007000070200080702000807020008070200083C
:10008000070200080000000007020008070200083D
:10009000070200080702000807020008070200081C
:1000A000B943000807020008070200080702000819
:1000B00007020008070200080702000807020008FC
:1000C00007020008070200080702000807020008EC
:1000D00007020008F156000807020008070200089E
:1000E00007020008070200080702000807020008CC
:1000F00007020008070200080702000800000000CD
:1001000000000000070200080000000007020008CD
:1001100007020008000000000702000807020008AC
:10012000070200080702000807020008070200088B
:10013000070200080000000000000000070200089D
:10014000070200080702000800000000000000008D
:10015000000000000000000000000000000000009F
:10016000000000000000000000000000070200087E
:10017000070200080000000000000000000000006E
:10018000000000000702000800000000000000005E
:10019000000000000000000000000000000000005F
:1001A0000000000000000000070200080D3C0008ED
:1001B000070200080702000807020008000000000C
:1001C000000000000702000800000000000000001E
:1001D0000702000807020008DFF80CD000F086F9DB
:1001E00000480047D95D00084007002006488047C6
:1001F00006480047FEE7FEE7FEE7FEE7FEE7FEE70C
:10020000FEE7FEE7FEE7FEE7A5430008D901000888
:100210002DE9F05F0546002092469B46884606463B
:10022000814640241BE0284641464746224600F0CE
:100230000AF953465A46C01A914110D3114618463E
:10024000224600F0F1F82D1A67EB01084F462246CE
:100250000120002100F0E8F817EB00094E41201EB4
:10026000A4F10104DFDC484631462A464346BDE896
:10027000F09FD2B201E000F8012B491EFBD270477B
:100280000022F6E710B513460A4604461946FFF762
:10029000F0FF204610BD421C10F8011B0029FBD1C5
:1002A000801A70470FB400B58DB010A909900B905B
:1002B00000914FF0FF300A9000200C900548069006
:1002C000054807906A4609A80F9900F0E1F80DB0BB
:1002D0005DF814FBAD040008CB0400082DE9FF5FB6
:1002E0001D464FF0FF3BD5E9014691465F464FF072
:1002F0000008A9697F1C01988847296A82468847B7
:100300000028F6D1BAF1FF3F0CD024F4C064002ECF
:1003100019DD600614D5BAF12B0F09D0BAF12D0FF3
:100320000ED103E0584604B0BDE8F09F44F4806469
:10033000A9697F1C01988847761E8246002E02DD3F
:10034000BAF1300F03D0B9F1000F26D032E0A9691D
:10035000761E44F400747F1C019888478246002E64
:1003600005DDBAF1780F06D0BAF1580F03D0B9F114
:10037000000F10D01EE0B9F1000F02D0B9F1100F3C
:1003800018D1A969761E24F400747F1C019888474F
:100390008246102002E0082000E00A20814609E0A1
:1003A00008FB0908A969761E44F400747F1C0198B3
:1003B00088478246002E05DD4946504600F053F836
:1003C0000028EDDAE96901988847A00502D46FF0AA
:1003D0000100A8E7E00725D1600613D5600502D526
:1003E000C8F1000000E0404629680A1D2A6009683B
:1003F000220501D5087015E0220701D5088011E01B
:1004000008600FE02868011D29600068210502D5F9
:1004100080F8008006E0210702D5A0F8008001E006
:10042000C0F8008038467EE7202A04DB203A00FA34
:1004300002F1002070479140C2F1200320FA03F33B
:10044000194390407047202A04DB203A21FA02F039
:100450000021704721FA02F3D040C2F120029140FE
:100460000843194670473A2800D2303820F020025D
:10047000412A01D3A2F13700884201D34FF0FF3067
:1004800070470000026811441378016018467047F5
:10049000D160044951610449116200211161114682
:1004A00000F03CB88504000811050008426842B11C
:1004B000016811F8013B23B1521EC0E90012184631
:1004C00070470121C160881E704742685AB1C368F5
:1004D000016843B983688B4205D0491E521CC0E9AC
:1004E0000012002070474FF0FF307047064C074D58
:1004F00006E0E06840F0010394E8070098471034F4
:10050000AC42F6D3FFF76CFE44600008646000085C
:10051000C0B24FF4F05100F097B900002DE9F34F4D
:100520008BB04FF0000801F10C000C464FF0010BAE
:1005300046460DF1080A0190626901210198904731
:10054000051E2DD0252D2CD0216A8847C0B16269A7
:10055000012101989047216A88470028F7D1411E60
:1005600062690198904700E0761CA1690B98884762
:10057000216A88470028F7D1E1690B988847DBE7B3
:10058000A1690B9888470746A84201D1761CD3E79A
:10059000E1690B9888477F1C02D1B8F1000F6FD03A
:1005A00046E1002762693D463946019890472A286E
:1005B00004D162690121019890470125DFF88492F6
:1005C0006269012101989047A0F130010A290AD2FD
:1005D0004F45E5DC07EB870100EB4107303FDFD4F7
:1005E00045F01005ECE7E90601D46FF000476C28F0
:1005F0000AD04C2814D0682815D06A280DD0742849
:100600001CD07A281AD01DE0626901210198904718
:100610006C2802D045F0040514E045F002050DE019
:1006200045F020050AE06269012101989047682899
:1006300002D045F0080505E045F400656269012136
:1006400001989047C4E9015765283DD019DC582826
:100650007AD00CDC452837D004DC252826D0412868
:1006600031D131E046282FD047282CD12CE05B280F
:1006700077D0612828D063287CD0642823D15AE021
:10068000D0E06F2848D008DC66281DD067281BD032
:10069000692821D06E2816D127E0702845D073280C
:1006A00068D0752847D078280DD14DE0A1690B9806
:1006B0008847054625283FF469AFE1690B988847CC
:1006C0006D1C3FF46AAFB3E023466A466FF0010049
:1006D0000B99AFF300809EE045F040006060A807F2
:1006E00023464FF0000236D43EE0E8077FF447AFE0
:1006F0002068011D21600068290501D506701BE7EF
:10070000290701D5068017E7A90703D5F117C0E926
:10071000006111E706600FE745F040006060A80740
:1007200023464FF0080216D41EE040F60E0125EADB
:100730000100606016E045F040006060A8072346B5
:100740004FF00A0207D40FE045F040006060A807B0
:1007500008D5234610226FF001000B99AFF30080FB
:1007600059E007E0234610226FF001000B99FFF7D4
:10077000B5FD50E04FF000094F464B46632802D0CC
:100780005B2806D040E0E80601D40120A0600127E4
:100790003AE062690121019890475E2805D14FF047
:1007A00001096269494601989047216939B90021D8
:1007B0000A46534643F82120491C0829FADBB0B306
:1007C000216969B9C11700EBD16253110AEB8301AA
:1007D00022F01F02821A01200B68904003430B6035
:1007E00062690121019890475D28E8D1B9F1000FB5
:1007F00009D00020514651F82020D24341F8202052
:10080000401C0828F7DB02AB224600976FF001007E
:100810000B99AFF3008000280CDA401C08D1BBF123
:10082000000F05D04FF0FF300DB0BDE8F08FFFE7AF
:100830004046F9E7E90701D108F1010806444FF005
:10084000000B79E6CCCCCC0C7F2801D9002208E043
:10085000064A02EB5002C007127800D1120902F0DA
:100860000F0201209040084070470000C05F000860
:1008700070B5144CA920216888620821204602F036
:1008800087FC114D00224FF47A7300BF4FF4C870FB
:100890005043B0FBF3F000F5C870B5FBF0F02168F1
:1008A000401EC862E06021684008C86300F010F88C
:1008B000521C9A42EAD3BDE870400821014802F078
:1008C0000DBD0000A802002040420F0000BFFEE75F
:1008D00000204DF6C02100BF401C8842FBD370476A
:1008E000704772B6FEE700007CB50020114D8DF810
:1008F000000002464FF400542146284600F032FC26
:1009000005208DF804006423012201A90A4801F0A2
:1009100084FE642301226946074801F0BFFD0122DD
:100920002146284600F01EFC9DF8000000F0010062
:100930007CBD000000080048F801002038B50446DE
:1009400000F072F91CA01D4D00680090200C8DF87D
:100950000100200A8DF802008DF803404FF4005486
:1009600000222146284600F0FDFB6423042269464C
:10097000134801F052FE01222146284600F0F2FB06
:1009800000244FF4FA7508E0FFF7A2FF641CAC42A4
:1009900003D90CA004F0B6FE03E0FFF7A5FF002882
:1009A000F2D113490020086100F06CF8014611A053
:1009B00004F0A8FE38BD0000200000000008004838
:1009C000F8010020466C61736820457261736520F0
:1009D00054696D656F75742120436865636B20539E
:1009E000504920636F6E6E656374696F6E0D0A0007
:1009F00000000020457261736520636865636B3A8F
:100A0000206164647230203D203078253032580DEA
:100A10000A00000070B5124D90B0002440F6FF7639
:100A2000204600F02FF8FF2812D040B1402269463E
:100A3000204600F055F86846FFF72DFC0444641C7E
:100A4000B442EDD307A02E6104F05CFE10B070BD7F
:100A5000224621460A482C6104F054FEF6E70000C5
:100A600000000020464C41534869732066756C6C49
:100A7000202C696E697420646F6E650D0A00000099
:100A8000006000087CB513A1134D09680091010CAA
:100A90008DF80110010A8DF802108DF803004FF453
:100AA000005400222146284600F05CFB6423042207
:100AB00069460A4801F0B1FD6423012201A90748F3
:100AC00001F0ECFC01222146284600F04BFB9DF88A
:100AD00004007CBD0300000000080048F80100206D
:100AE0002DE9F0470D46804632B1002426462C7091
:100AF000571E40F6FF790CE00020BDE8F08700BFEC
:100B0000FFF7C0FF285540B1641C08F10100A4B2F2
:100B10008046BC4201DAC845F2D32E552046ECE7A8
:100B20007CB50D46044600F07FF815A10022D1E9FE
:100B30000001CDE90001200C8DF80100200A8DF89C
:100B400002008DF804508DF803400F4D4FF400540F
:100B50002146284600F006FB6423052269460B481F
:100B600001F05BFD01222146284600F0FBFA01E07E
:100B7000FFF7AEFEFFF7B8FE0028F9D17CBD0000FC
:100B8000020000000000000000080048F8010020FA
:100B90002DE9F84F16008A4605463CD0002438E07F
:100BA00005F0FF08C8F58070311B814200D208466D
:100BB00087B200F039F819A0DFF86490006800905F
:100BC000280C8DF80100280A8DF802008DF80380AA
:100BD0004FF4005800224146484600F0C3FA64230F
:100BE000042269460F4801F018FD0AEB0401642352
:100BF0003A460C4801F011FD01224146484600F0FA
:100C0000B1FA00BFFFF770FE0028FBD1E0193D44A8
:100C100084B2B442C4D3BDE8F88F000002000000E3
:100C200000080048F801002038B506200B4D8DF86B
:100C300000004FF4005400222146284600F092FAAA
:100C4000642301226946064801F0E7FC012221469F
:100C5000284600F087FAFFF73BFE38BD0008004841
:100C6000F801002070B505460E460846FFF713FB55
:100C700082B2AC18601CB0F5805F04D3BDE8704050
:100C800006A004F03FBD31462846FFF781FF20460D
:100C9000BDE870400021FFF743BF0000466C617360
:100CA000683A204E6F20737061636520666F722012
:100CB000737472696E670D0A0000000070B5104809
:100CC000FFF7E9FA0404240C0BD00E4D2869011932
:100CD000491CB1F5805F06D30BA0BDE8704004F05D
:100CE00011BD14A0F9E70649FFF7BCFF28690449C4
:100CF0000219521C2A61BDE8704015A004F002BD23
:100D00003C00002000000020466C6173683A2053CC
:100D10006563746F722066756C6C212043616E2769
:100D200074207772697465206D6F726520646174D8
:100D3000610D0A00466C6173683A20456D707479E4
:100D400020737472696E672C20736B69700D0A00D2
:100D5000466C617368207772697474656E3A2025F9
:100D600073207C204E65787420616464723A20257B
:100D70006C750D0A000000002DE9F04192B018A03A
:100D800004F0C0FC1E4F386920B10024012540F654
:100D9000FF7815E01BA004F0B5FC1BE0402201A980
:100DA0002046FFF79DFE06000FD029466D1CADB210
:100DB000234601AA1AA0009604F0A4FC3444641C43
:100DC0003869844201D24445E8D3691E1EA03A69BD
:100DD00004F098FC12B026A0BDE8F04104F092BCEB
:100DE0000D0A3D3D3D3D20466C61736820416C6CB1
:100DF0002044617461203D3D3D3D0D0A000000002E
:100E0000000000204E6F20646174612073746F7263
:100E1000656420696E20466C617368210D0A0000CC
:100E2000537472696E672025643A20257320286107
:100E30006464723A20256C752C206C656E3A20250E
:100E400075290D0A00000000546F74616C207374E2
:100E500072696E67733A202564207C20557365643F
:100E60002062797465733A20256C750D0A000000C4
:100E70000D0A3D3D3D3D3D3D3D3D3D3D3D3D3D3D05
:100E80003D3D3D3D3D3D3D3D3D0D0A0001460020BF
:100E900091F82520022A03D00422CA63012027E00A
:100EA0000A68126822F00E020B681A608A6C1268D7
:100EB00022F480728B6C1A600A68126822F00102B8
:100EC0000B681A6091F8442002F01F0301229A4037
:100ED0000B6C5A60D1E913325A604A6D42B14A6DC7
:100EE000126822F480724B6D1A60D1E916325A6092
:100EF000012281F8252000BF002281F8242000BFB4
:100F0000704770B50446002594F8250002280BD0E0
:100F10000420E063012084F8250000BF002084F84D
:100F2000240000BF012534E02068006820F00E0096
:100F3000216808602068006820F0010021680860CE
:100F4000A06C006820F48070A16C086094F84400E4
:100F500000F01F0101208840216C4860D4E9131083
:100F60004860606D40B1606D006820F48070616D14
:100F70000860D4E916104860012084F8250000BFFD
:100F8000002084F8240000BFA06B10B12046A16BA4
:100F90008847284670BD000078B502460B46002100
:100FA000CAE001268E401D6805EA0604002C73D0B5
:100FB0001D7905F00305012D04D01D7905F0030509
:100FC000022D13D190684E000325B540A8434E0072
:100FD000DD68B54028439060506801258D40A843E6
:100FE0001D79C5F300158D40284350601D7905F02B
:100FF0000305032D09D0D0684E000325B540A84352
:101000004E009D68B5402843D0601D7905F003056A
:10101000022D13D1CE0802F1200555F826004D0708
:10102000EE0E0F25B540A8434E07F60E1D69B540DC
:101030002843CE0802F1200545F8260010684E002E
:101040000325B540A8431D7905F003054E00B540C2
:10105000284310605D6805F44035002D6BD000BF5B
:10106000384D2D6E45F00105364E356635462D6EF0
:1010700005F00105009500BF00BF4FEAB6358E08A8
:1010800055F826008D072E0F0F25B540A843B2F165
:10109000904F02D100251AE04DE02B4DAA4201D11C
:1010A000012514E0294DAA4201D102250FE0284D67
:1010B000AA4201D103250AE0264DAA4201D1042506
:1010C00005E0254DAA4201D1052500E006258E0741
:1010D000360FB5402843214D8E0845F82600204D97
:1010E0002868A0435D6805F4801505B120431C4DB8
:1010F00028602D1D2868A0435D6805F4001505B122
:101100002043174D2D1D2860154D2D1F2868A04325
:101110005D6805F4003505B12043114D2D1F286091
:101120002D1F2868A0435D6805F4803505B1204374
:101130000B4D083D2860491C1D68CD40002D7FF4F3
:1011400030AF78BD0010024000040048000800489D
:10115000000C00480010004800140048080001403E
:10116000080401400AB1816100E08162704700001B
:10117000014800687047000028000020024692F8ED
:10118000410020282DD100BF92F84000012801D154
:1011900002207047012082F8400000BF242082F81E
:1011A00041001068006820F00100136818601068A2
:1011B000006820F4805013681860106800680843C5
:1011C000136818601068006840F001001368186028
:1011D000202082F8410000BF002082F8400000BFBC
:1011E000D7E70220D5E710B502460B4692F841003A
:1011F00020282AD100BF92F84000012801D1022006
:1012000010BD012082F8400000BF242082F8410078
:101210001068006820F00100146820601068016800
:1012200021F4706141EA03211068016010680068D0
:1012300040F0010014682060202082F8410000BFC7
:10124000002082F8400000BFDAE70220D8E7000063
:1012500008B500BF0949096E41F00101074A11664E
:101260001146096E01F00101009100BF00BF044961
:1012700049680143024A516008BD00000010024065
:101280000000014010B504460CB9012010BD94F8CF
:10129000410028B9002084F84000204600F05EF8A4
:1012A000242084F841002068006820F001002168B3
:1012B0000860606820F070602168086120688068BC
:1012C00020F4004021688860E068012805D1A0680A
:1012D00040F400402168886004E0A06840F40440C5
:1012E00021688860E068022806D12068406840F4E0
:1012F00000602168486005E02068406820F40060D4
:1013000021684860206840681349084321684860A4
:101310002068C06820F400402168C860D4E9040156
:101320000843A16940EA01202168C860D4E90701A7
:101330000843216808602068006840F001002168C7
:10134000086000206064202084F8410000202063B1
:1013500084F8420000BF99E70080000210B598B001
:101360000446142113A8FEF78BFF442102A8FEF7C0
:1013700087FF1D492068884234D140200290002018
:10138000089002A800F0BEF908B1FFF7AAFA00BF62
:101390001648C06C40F002001449C8640846C06C8E
:1013A00000F00200019000BF00BF4FF440701390A6
:1013B0001220149001201590002016900420179000
:1013C00013A90B48FFF7E8FD00BF0848806D40F403
:1013D0000010064988650846806D00F400100190F1
:1013E00000BF00BF18B010BD005400400010024004
:1013F000000400480348006803490968084401499B
:1014000008607047280000203000002010B500243C
:10141000032000F0CDF80F2000F008F808B10124F7
:1014200001E000F051F8204610BD0000F0B587B093
:1014300004460026002700BF1E48006E40F480309E
:101440001C4908660846006E00F48030009000BF1A
:1014500000BF01A902A800F01FFC00F057FC0646DF
:101460001548B6FBF0F0471E14481549086040F2D5
:10147000E7311348C160476000210161816001F0DC
:1014800094FB054695B90E4801F0C8FB05466DB9B9
:10149000182000F03BF8102C07D20022214618201B
:1014A00000F048F80748046000E00125284607B02E
:1014B000F0BD00000010024040420F00004001401B
:1014C000F40200202C00002008B500BF0E48006E7A
:1014D00040F001000C4908660846006E00F001006B
:1014E000009000BF00BF00BF0846806D40F08050F4
:1014F00088650846806D00F08050009000BF00BFF6
:1015000000F0F6F808BD0000001002400146084651
:1015100000280DDB00BF00BF00F01F0301229A402E
:1015200043099B0003F1E023C3F8002100BF00BF83
:1015300000BF70472DE9F05F80460D46164604F067
:10154000F1F8074639462A46334601F00700C0F154
:10155000070ABAF1040F02D94FF0040A01E0C0F102
:10156000070AD14600F1040ABAF1070F02D24FF080
:10157000000A01E0A0F1030AD4464FF0010A0AFA7A
:1015800009FAAAF1010A0AEA020A0AFA0CFA4FF069
:10159000010B0BFA0CFBABF1010B0BEA030B4AEA54
:1015A0000B042146404604F0C5F8BDE8F09F00005A
:1015B00000BF00F00702064B19684FF6FF03194001
:1015C000044B0B4343EA0221014B196000BF7047F3
:1015D0000CED00E00000FA0502468ABB41480068B5
:1015E00000F4C060B0F5806F2BD13E4880300068B9
:1015F00020F480703B4BC3F880001846006820F44C
:10160000C06040F4007018603748006832235843C7
:10161000364BB0FBF3F0411C00E0491E31484069F5
:1016200000F48060B0F5806F01D10029F5D12D481C
:10163000406900F48060B0F5806F51D1032070479D
:1016400008E028488030006820F48070254BC3F8FB
:10165000800045E0B2F5007F3AD12248006800F4EE
:10166000C060B0F5806F2AD11E488030006840F419
:1016700080701C4BC3F880001846006820F4C060DE
:1016800040F4007018601848006832235843174B24
:10169000B0FBF3F0411C00E0491E1248406900F421
:1016A0008060B0F5806F01D10029F5D10D48406907
:1016B00000F48060B0F5806F12D10320BFE70948C5
:1016C0008030006840F48070064BC3F8800007E06B
:1016D0000448006820F4C06040F48060014B18604A
:1016E0000020ACE7007000403400002040420F00B2
:1016F0000348806840F480400149886070470000DA
:10170000007000402DE9F84304460027B8462068E1
:1017100000F40020B0F5002F73D1B946D348806D96
:1017200000F0805078B900BFD048806D40F0805004
:10173000CE4988650846806D00F08050009000BF5B
:1017400000BF4FF00109CA48006840F48070C849E2
:101750000860FFF70DFD064606E0FFF709FD801B58
:10176000022801D9032705E0C148006800F4807011
:101770000028F2D000BF002F46D1BC48903000684E
:1017800000F44075CDB1206CA84216D0B748903017
:10179000006820F44075B548D0F8900040F48030DF
:1017A000B249C1F890000846D0F8900020F480308B
:1017B000C1F890000846C0F8905005F00100A0B1B3
:1017C000FFF7D6FC064608E0FFF7D2FC801B41F28B
:1017D0008831884201D9032706E0A4489030006888
:1017E00000F002000028EFD000BF5FB99F489030A2
:1017F000006820F44070216C08439C49C1F89000B7
:1018000003E00CE0B84600E0B846B9F1010F05D19D
:101810009648806D20F080509449886500BF2078FC
:1018200000F0010048B191488830006820F00300C2
:10183000616808438D49C1F88800207800F00200F3
:10184000022809D189488830006820F00C00A1687E
:1018500008438649C1F88800207800F00400042875
:1018600009D182488830006820F03000E1680843E0
:101870007E49C1F88800207800F00800082809D1C6
:101880007A488830006820F0C00021690843774911
:10189000C1F88800207800F02000202809D1734882
:1018A0008830006820F44060616908436F49C1F8DE
:1018B0008800207800F04000402809D16B4888302B
:1018C000006820F44050A16908436849C1F88800C5
:1018D000207800F08000802809D1644888300068B2
:1018E00020F44040E16908436049C1F8880020883D
:1018F00000F48070B0F5807F09D15C4888300068C2
:1019000020F44030216A08435849C1F888002088F3
:1019100000F40070B0F5007F09D1544888300068A9
:1019200020F44020616A08435049C1F888002088AB
:1019300000F48060B0F5806F13D14C4888300068A7
:1019400020F44010A16A0843484988310860A06A21
:10195000B0F5801F05D14548C06840F48010434968
:10196000C860208800F40060B0F5006F13D13F48D4
:101970008830006820F44000E16A08433B49883120
:101980000860E06AB0F5800F05D13848C06840F4BF
:1019900080103649C860208800F48050B0F5805F20
:1019A00013D132488830006820F04070216B084322
:1019B0002E4988310860206BB0F1807F05D12B481B
:1019C000C06840F480102949C860208800F40050A5
:1019D000B0F5005F13D125488830006820F04060E2
:1019E000616B0843214988310860606BB0F1006F7A
:1019F00005D11E48C06840F480101C49C86020888A
:101A000000F48040B0F5804F13D11848883000684A
:101A100020F04060A16B0843144988310860A06B36
:101A2000B0F1006F05D11148C06840F480100F4933
:101A3000C860208800F40040B0F5004F13D10B4877
:101A40008830006820F04050E16B08430749883136
:101A50000860E06BB0F1805F05D10448C06840F4D5
:101A600080300249C8604046BDE8F883001002405B
:101A7000007000402DE9F04104460D464FF000088B
:101A800014B90120BDE8F0817D48006800F00F0026
:101A9000A8420ED27A48006820F00F002843784907
:101AA00008600846006800F00F00A84201D001203D
:101AB000E8E7207800F00100002864D0606803287F
:101AC00023D17048006800F0007008B90120D9E700
:101AD00002F0D4FA06466C48864237D969488068D5
:101AE00000F0F00030B1207800F0020002282DD183
:101AF000A06858BB6348806820F0F00040F0800088
:101B0000604988604FF0800820E06068022806D1B4
:101B10005C48006800F4003040B90120B2E7594841
:101B2000006800F4806008B90120ABE700F000F91C
:101B300006465548864209D95248806820F0F00090
:101B400040F080004F4988604FF080084D48806821
:101B500020F00300616808434A498860FFF708FBEA
:101B6000074608E0FFF704FBC01B41F288318842BA
:101B700001D9032086E74348806800F00C006168C3
:101B8000B0EB810FEED1207800F00200022820D1C6
:101B9000207800F00400042805D13A48806840F419
:101BA000E06038498860207800F00800082807D1F4
:101BB0003448806820F4605040F4E0603149886027
:101BC0003048806820F0F000A16808432D49886003
:101BD00008E0B8F1800F05D12A48806820F0F000B5
:101BE000284988602648006800F00F00A84219D9EB
:101BF0002348006820F00F00284321490860FFF7C0
:101C0000B7FA074608E0FFF7B3FAC01B41F2883184
:101C1000884201D9032035E71948006800F00F0019
:101C2000A842F0D1207800F00400042807D115481C
:101C3000806820F4E060E1680843124988602078F9
:101C400000F00800082808D10E48806820F4605091
:101C5000216940EAC1000B49886000F069F8094930
:101C60008968C1F30311094A515C01F01F01C840A2
:101C70000749086007480068FFF7D8FB02E7000043
:101C8000002002400010024000B4C404A85F000815
:101C9000340000202C0000200F2202600D4A9268C0
:101CA00002F0030242600B4A926802F0F002826086
:101CB000084A926802F4E062C260064A926802F43E
:101CC0006052D2080261044A126802F00F020A60F0
:101CD00070470000001002400020024001480068E8
:101CE000704700003400002000B5FFF7F7FF0549FA
:101CF0008968C1F30221044A515C01F01F01C84008
:101D000000BD000000100240B85F000800B5FFF7FA
:101D1000E5FF05498968C1F3C221044A515C01F01D
:101D20001F01C84000BD000000100240B85F00085D
:101D300070B5224DAD6805F00C05042D01D1204889
:101D40003AE01E4DAD6805F00C05082D01D11D4887
:101D500032E01A4DAD6805F00C050C2D2BD1174D56
:101D6000ED6805F00304154DED68C5F303156A1C15
:101D7000022C0CD0032C09D1124DB5FBF2F50F4EFD
:101D8000F668C6F3062605FB06F10AE000BF0C4D17
:101D9000B5FBF2F5094EF668C6F3062605FB06F11B
:101DA00000BF00BF054DED68C5F341656D1C6B00BC
:101DB000B1FBF3F000E0002070BD00000010024015
:101DC0000024F40000127A002DE9F843044614B907
:101DD0000120BDE8F883207800F00100002865D0DC
:101DE000FC48806800F00C07FA48C06800F0030661
:101DF0000C2F01D1032E01D0082F0AD1F54800681D
:101E000000F40030002851D0606800284ED1012035
:101E1000DFE700BF6068B0F5803F06D1ED4800689D
:101E200040F48030EB4908601AE06068B0F5A02FFC
:101E30000BD1E848006840F48020E6490860084675
:101E4000006840F4803008600AE0E248006820F44E
:101E50008030E04908600846006820F4802008606F
:101E600000BF606888B1FFF783F9054606E0FFF719
:101E70007FF9401B642801D90320AAE7D5480068F0
:101E800000F400300028F2D010E0FFF771F90546A9
:101E900006E0FFF76DF9401B642801D9032098E79D
:101EA000CC48006800F400300028F2D1207800F01F
:101EB0000200022860D1C748806800F00C07C548BE
:101EC000C06800F003060C2F01D1022E01D0042FB0
:101ED00018D1C048006800F4806018B1E06808B903
:101EE000012076E7BB48406820F0FE40217C40EAB4
:101EF0000160B8494860B8480068FFF797FA18B31E
:101F0000012066E7E06800B3B248006840F48070E2
:101F1000B0490860FFF72CF9054606E0FFF728F9FD
:101F2000401B022801D9032053E7AA48006800F4A7
:101F300080600028F2D0A748406820F0FE40217C55
:101F400040EA0160A349486016E0A248006820F416
:101F50008070A0490860FFF70BF9054606E0FFF71F
:101F600007F9401B022801D9032032E7994800688D
:101F700000F480600028F2D1207800F008000828E2
:101F800036D16069D0B193489430006840F00100C8
:101F90009049C1F89400FFF7EBF8054606E0FFF71B
:101FA000E7F8401B022801D9032012E78948943042
:101FB000006800F002000028F1D019E08548943054
:101FC000006820F001008349C1F89400FFF7D0F8C1
:101FD000054606E0FFF7CCF8401B022801D9032094
:101FE000F7E67C489430006800F002000028F1D148
:101FF000207800F00400042872D14FF000087548E2
:10200000806D012121EA107078B100BF7148806DA8
:1020100040F080506F4988650846806D00F0805020
:10202000009000BF00BF4FF001086C48006800F44A
:102030008070B0B96948006840F4807067490860F2
:10204000FFF796F8054606E0FFF792F8401B0228D6
:1020500001D90320BDE66148006800F480700028C3
:10206000F2D000BFA068012808D15A48903000681B
:1020700040F001005749C1F8900021E0A068052810
:102080000FD154489030006840F004005149C1F825
:1020900090000846D0F8900040F00100C1F8900090
:1020A0000EE04C489030006820F001004949C1F82A
:1020B00090000846D0F8900020F00400C1F890008D
:1020C00000BFA068A8B1FFF753F8054609E0FFF785
:1020D0004FF8401B41F28831884202D9032078E64C
:1020E00025E03C489030006800F002000028EED067
:1020F00013E0FFF73DF8054608E0FFF739F8401B0D
:1021000041F28831884201D9032062E6314890309B
:10211000006800F002000028EFD1B8F1010F05D1EE
:102120002C48806D20F080502A49886500BF2078B7
:1021300000F02000202836D1A069D0B12548983081
:10214000006840F001002349C1F89800FFF710F83B
:10215000054606E0FFF70CF8401B022801D90320D2
:1021600037E61C489830006800F002000028F1D0E3
:1021700019E018489830006820F001001549C1F8AE
:102180009800FEF7F5FF054606E0FEF7F1FF401B5D
:10219000022801D903201CE60E489830006800F0A0
:1021A00002000028F1D1E069002860D00948806869
:1021B00000F00C000C287AD0E069022858D10548BC
:1021C000006820F0807003490860FEF7D1FF0546E3
:1021D0000DE00000001002402C00002000700040C4
:1021E000FEF7C6FF401B022801D90320F1E54A484B
:1021F000006800F000700028F2D1D4E90810401EF9
:1022000041EA0011A06A41EA0021208E0122C2EBBE
:10221000500041EA40513420005DC2EB500041EAD9
:1022200040612C20005D41EAC0603B49C9683B4ADF
:10223000114008433849C8600846006840F0807083
:1022400008600846C06840F08070C860FEF790FFE4
:10225000054606E0FEF78CFF401B022801D903204B
:10226000B7E52D48006800F000700028F2D051E07A
:102270002948006820F0807027490860FEF778FF41
:10228000054606E0FEF774FF401B022801D9032033
:102290009FE52148006800F000700028F2D11E4838
:1022A000C0681F4908401C49C86033E0FFE7E06987
:1022B000012800D18DE51848C66806F00301206AA0
:1022C000814225D106F0F001606A401EB1EB001F8B
:1022D0001ED106F4FE41A06AB1EB002F18D106F022
:1022E00078412C20005DB1EBC06F11D106F4C00124
:1022F000208E0122C2EB5000B1EB405F08D106F006
:10230000C0613420005DC2EB5000B1EB406F01D0E2
:1023100001205EE500205CE5001002400C809F017A
:10232000FCFFEEFE70B5040009D0606A002540B1E4
:1023300025616561A56294F85D0040B10CE0012063
:1023400070BD6068B0F5827FF4D0E561F2E784F893
:102350005C50204600F05CF8022084F85D002068A4
:10236000016821F040010160E1684FF4E0629142B0
:1023700001D9002001E04FF48050B1F5706F02D018
:10238000914200D0A562A188228901F4827102F4F1
:1023900004421143227C02F002021143227D02F02A
:1023A00001021143228B02F400721143227F02F0DA
:1023B0003802114394F8202002F080021143228D4C
:1023C00002F40052114322681160A169042202EA5A
:1023D000114194F8242000F4805002F010021143BF
:1023E00094F8342002F008021143A28902F47062CA
:1023F00011430143206841602068C16921F40061F4
:10240000C1612566012084F85D00002070BD0000D8
:1024100070B586B0044614216846FDF731FF1C49AB
:102420002068884232D11B48816D41F4804181652A
:10243000816D01F480410591C16C41F00201C164DC
:10244000C16C01F002010591C16C41F00101C16450
:10245000C06C022500F0010005904FF40050009080
:102460000024CDE901540526CDE9034669460A4812
:10247000FEF792FD4FF440600090CDE90154CDE9A4
:10248000034669464FF09040FEF786FD06B070BDEA
:102490000038004000100240000400482DE9F84FC9
:1024A000044690F85D001D4616460F4601283FD1B0
:1024B000002F75D0002E73D060684FF00408B0F57F
:1024C000827F01D1A06848B3FEF752FE824694F89D
:1024D0005C0001282CD04FF0010984F85C9084F84E
:1024E0005D804FF00008C4F860802764A4F8446061
:1024F000A4F84660C4F83880A4F83C80A4F83E8074
:10250000C4F84C80C4F85080E0684FF4E061884221
:10251000206842680ED922F480520DE084F85D8074
:10252000009313460A46204600F03EF9BDE8F88FB6
:102530000220FBE742F480524260A068B0F5004FF1
:1025400009D12068026822F0400202602068026817
:1025500022F48042026020680268520603D40268B6
:1025600042F040020260E06888421BD939E02068EE
:102570008168C9070BD0017B206C0170206C401C66
:102580002064B4F84600401EA4F846000AE0FEF7B6
:10259000EFFDA0EB0A00A84203D3681C02D036E08E
:1025A00032E09DB3B4F846000028E0D11DE0206879
:1025B0008168C9070BD0C068216C0880206C801C22
:1025C0002064B4F84600401EA4F8460009E0FEF777
:1025D000CFFDA0EB0A00A84202D3681C01D016E090
:1025E000A5B1B4F846000028E1D15246294620465C
:1025F00001F078FD08B12020206684F85D9084F811
:102600005C80206E002891D001208FE7FFE784F8DE
:102610005D9084F85C80032088E72DE9F84F9846A8
:1026200016468A460446FEF7A3FD814694F85D00EF
:10263000012820D1BAF1000F6FD0002E6DD094F890
:102640005C00012817D0012784F85C70032084F80F
:102650005D0000252566C4F838A0A687E6872564B6
:10266000A4F84450A4F846502565E564A068B0F588
:10267000004F03D00CE00220BDE8F88F206801680D
:1026800021F0400101602068016841F4804101604F
:1026900020680168490603D4016841F040010160E7
:1026A000E068B0F5E06F606826D908B1012E1FD14F
:1026B000A06B21680088C86006E0206881688907EF
:1026C00009D5A16B0988C160A06B801CA063E08F55
:1026D000401EE0870CE0FEF74BFDA0EB09014145F1
:1026E00003D3B8F1FF3F03D04BE0B8F1000F48D05F
:1026F000E08F0028E1D139E008B1012E33D1E08F1D
:102700000128A06B03D921680088C86010E0216807
:102710000078087314E0E08725E043E020688168D2
:10272000890713D5E18F0129A16B07D90988C160F9
:10273000A06B801CA063E08F801EECE7097801731A
:10274000A06B401CA063E08F401EE4E7FEF710FD85
:10275000A0EB0901414503D3B8F1FF3F03D010E0DE
:10276000B8F1000F0DD0E08F0028D7D14A4641467E
:10277000204601F0F1FC08B120202066A06830B1AD
:1027800009E084F85D7084F85C50032074E72068E9
:10279000C1688068009084F85D7004F85C5F6068D0
:1027A0000028F3D0012067E72DE9FF5F1D4693461F
:1027B00004464FF001090E9EFEF7DAFC074694F836
:1027C0005D006168012806D0B1F5827F39D1A1682A
:1027D000B1BB042835D1019800287CD0BBF1000F93
:1027E000FBD0002DF9D094F85C00012829D04FF0DF
:1027F000010A84F85CA094F85D00042802D005204A
:1028000084F85D004FF00008C4F86080C4F840B060
:10281000A4F84650A4F844500199A163E587A58720
:10282000C4F84C80C4F85080E0684FF4E0618842FE
:1028300001D8012D09D92068426822F4805208E0AD
:10284000FFE7022004B0BDE8F09F2068426842F430
:102850008052426020680268520603D4026842F047
:1028600040020260E0688842606846D908B1012DE4
:102870003BD1A06B01882068C160A06B801CA06365
:10288000E08F401EE08730E02068816889070FD51F
:10289000E18F69B1B9F1010F0AD1A16B0988C1605B
:1028A000A06B801CA063E08F401EE0874FF0000902
:1028B00020688168C90711D0B4F8461071B1C068AA
:1028C000216C0880206C801C2064B4F84600401EF7
:1028D000A4F8460000E09EE04FF00109FEF748FC36
:1028E000C01BB04201D3701C74D1E08F0028CBD143
:1028F000B4F846000028C7D175E008B1012D6BD1AE
:10290000E08F0128A06B08D921680088C860A06BFF
:10291000801CA063E08F801E07E0216800780873A8
:10292000A06B401CA063E08F401EE08754E020684D
:10293000816889071AD5E18FC1B1B9F1010F15D1AD
:10294000E18F0129A16B07D90988C160A06B801CA8
:10295000A063E08F801E06E009780173A06B401C25
:10296000A063E08F401EE0874FF000092068816877
:10297000C90728D0B4F8461029B3B4F84610012985
:1029800014D9C068216C0880206C801C2064B4F8C5
:102990004600801EA4F84600B4F84600012810D86E
:1029A0002068416841F4805141600AE0007B216C5D
:1029B0000870206C401C2064B4F84600401EA4F847
:1029C00046004FF00109FEF7D3FBC01BB04202D313
:1029D000701C01D012E08EB1E08F0028A7D1B4F8AE
:1029E00046000028A3D13A463146204601F0B4FB08
:1029F00050B12020206684F85C800CE084F85DA053
:102A000084F85C8003201DE784F85DA084F85C8076
:102A1000206E0028F7D0012014E7704770477047F8
:102A200010B50346002200BF93F83C00012801D1F5
:102A3000022010BD012083F83C0000BF22F0FF00FF
:102A4000CC6840EA040222F440708C6840EA040238
:102A500022F480604C6840EA040222F400600C68B2
:102A600040EA040222F480500C6940EA040222F495
:102A700000504C6940EA040222F480400C6B40EAAA
:102A8000040222F470200C8B40EA044222F08050B1
:102A9000CC6940EA0402124C1868A04203D0114CE1
:102AA0001868A04213D122F470000C8D40EA045241
:102AB00022F080700C6A40EA040222F000704C6A36
:102AC00040EA040222F00050CC6A40EA040218688E
:102AD000426400BF002083F83C0000BF00BFA8E7AD
:102AE000002C0140003401407047704770470000DF
:102AF00030B502460B4600BF92F83C00012801D1D8
:102B0000022030BD012082F83C0000BF022082F884
:102B10003D0010684168106884681D4D1068A84227
:102B200003D01C4D1068A84203D121F470015868ED
:102B30000143194801401868014310684160144D71
:102B40001068A84213D01068B0F1804F0FD0134D19
:102B50001068A8420BD0124D1068A84207D00D4D46
:102B60001068A84203D00F4D1068A84205D124F088
:102B700080049868044310688460012082F83D0056
:102B800000BF002082F83C0000BF00BFB9E7000092
:102B9000002C0140003401408FFFFFFD0004004085
:102BA0000008004000400140704710B504460CB9D1
:102BB000012010BD94F83D0028B9002084F83C00A5
:102BC000204600F029F8022084F83D00211D2068ED
:102BD00001F004FC012084F8480000BF84F83E00A6
:102BE00001213F200155402001554120015542203F
:102BF00001554320015500BF00BF012084F8440067
:102C000045200155462001554720015500BF0120B0
:102C100084F83D000020CCE770470000014691F8A1
:102C20003D00012801D001207047022081F83D00BD
:102C30000868C06840F001000B68D860184B08684D
:102C4000984213D00868B0F1804F0FD0154B086838
:102C500098420BD0144B0868984207D0134B086871
:102C6000984203D0124B0868984210D108688068D7
:102C7000104B00EA0302062A0FD0B2F5803F0CD0B9
:102C80000868006840F001000B68186005E00868FB
:102C9000006840F001000B6818600020C4E70000E5
:102CA000002C0140000400400008004000340140B6
:102CB0000040014007000100704770B504462068DD
:102CC000C6682068056905F00200022819D106F0DF
:102CD0000200022815D1401F2168086101202077D9
:102CE0002068806900F0030018B12046FFF7E4FF78
:102CF00005E0204600F032F9204600F047FA0020B7
:102D0000207705F00400042819D106F004000428F7
:102D100015D1C043216808610220207720688069AE
:102D200000F4407018B12046FFF7C6FF05E02046CA
:102D300000F014F9204600F029FA0020207705F071
:102D40000800082819D106F00800082815D1C0434A
:102D500021680861042020772068C06900F0030022
:102D600018B12046FFF7A8FF05E0204600F0F6F86E
:102D7000204600F00BFA0020207705F01000102804
:102D800019D106F01000102815D1C0432168086140
:102D9000082020772068C06900F4407018B12046F0
:102DA000FFF78AFF05E0204600F0D8F8204600F043
:102DB000EDF90020207705F0010048B106F0010090
:102DC00030B16FF0010021680861204600F0F8FA88
:102DD00005F08000802804D005F40050B0F5005FB5
:102DE0000AD106F08000802806D16FF402502168D5
:102DF00008612046FFF712FE05F48070B0F5807F71
:102E00000AD106F08000802806D16FF48070216816
:102E100008612046FFF701FE05F04000402809D177
:102E200006F04000402805D1C043216808612046D3
:102E300000F0D0FA05F02000202809D106F020008B
:102E4000202805D1C043216808612046FFF7E7FD2F
:102E500005F48010B0F5801F0BD106F48010B0F59A
:102E6000801F06D16FF48010216808612046FFF7AB
:102E70003CFE05F40010B0F5001F0BD106F4001065
:102E8000B0F5001F06D16FF40010216808612046DC
:102E9000FFF72AFE05F48000B0F5800F0BD106F491
:102EA0008000B0F5800F06D16FF4800021680861C2
:102EB0002046FFF71BFE05F40000B0F5000F0BD114
:102EC00006F40000B0F5000F06D16FF40000216891
:102ED00008612046FFF768FE70BD000010B586B09F
:102EE000044614216846FDF7CBF92368184C0021ED
:102EF00018480222A34212D1C36C43F00103C364F9
:102F0000C06C00F001000590D0010090CDE90121D6
:102F10000620CDE9031069464FF0904014E0B3F16C
:102F2000804F13D1C36C43F00203C364C06C00F044
:102F3000020005904FF480600090CDE9012101204E
:102F4000CDE9031069460448FEF726F806B010BD27
:102F5000002C0140001002400004004870472DE999
:102F6000F04104460D461646002700BF94F83C0089
:102F7000012802D10220BDE8F081012084F83C0044
:102F800000BF0C2E51D005DC4EB1042E1ED0082EF1
:102F90007AD133E0102E60D0142EF9D175E0294695
:102FA000206801F093FA2068806940F008002168E9
:102FB00088612068806920F00400216888612068A9
:102FC0008069296908432168886178E0294620687A
:102FD00001F0D2FA2068806940F4006021688861BD
:102FE0002068806920F48060216888612068806999
:102FF000296940EA01202168886160E0294620684B
:1030000001F014FB2068C06940F008002168C86125
:103010002068C06920F004002168C8612068C06988
:10302000296908432168C86149E02946206801F000
:1030300057FB2068C06940F400602168C8612068BF
:10304000C06920F480602168C8612068C06929696E
:1030500040EA01202168C86131E02946206801F07A
:1030600099FB2068006D40F0080021680865206821
:10307000006D20F00400216808652068006D296952
:103080000843216808651AE017E02946206801F026
:10309000B9FB2068006D40F4006021680865206875
:1030A000006D20F48060216808652068006D296942
:1030B00040EA01202168086501E0012700BF00BF48
:1030C00000BF002084F83C0000BF384653E710B52D
:1030D00004460CB9012010BD94F83D0028B9002029
:1030E00084F83C00204600F029F8022084F83D00D6
:1030F000211D206801F072F9012084F8480000BF0A
:1031000084F83E0001213F20015540200155412017
:103110000155422001554320015500BF00BF012049
:1031200084F84400452001554620015547200155AB
:1031300000BF012084F83D000020CCE708B5114A0B
:1031400001681148914211D1016E41F4006101669C
:10315000006E002200F4006000900F211820FEF79E
:10316000E9F9BDE808401820FEF7D0B9B1F1804F69
:1031700007D1816D41F001018165806D00F0010092
:10318000009008BD002C0140001002407047000074
:1031900070B504460D4615B994F83E0015E0042DAF
:1031A00002D13F20005D10E0082D02D14020005DDB
:1031B0000BE00C2D02D14120005D06E0102D02D164
:1031C0004220005D01E04320005D012801D0012084
:1031D00070BD1DB9022084F83E001AE0042D03D111
:1031E00002213F20015514E0082D03D10221402087
:1031F00001550EE00C2D03D102214120015508E0BC
:10320000102D03D102214220015502E0022143206A
:10321000015501222946206801F046F92749206816
:1032200088420FD02649206888420BD02549206863
:10323000884207D024492068884203D02349206867
:10324000884201D1012000E0002028B12068406CB4
:1032500040F400402168486418492068884213D02F
:103260002068B0F1804F0FD01949206888420BD0F8
:1032700018492068884207D011492068884203D045
:1032800010492068884210D120688068124900EAFD
:103290000106062E0FD0B6F5803F0CD020680068DE
:1032A00040F001002168086005E02068006840F0F7
:1032B00001002168086000208AE70000002C01401E
:1032C00000340140004001400044014000480140FA
:1032D00000040040000800400700010030B504462B
:1032E0000D4600222946206801F0DEF82F492068AB
:1032F00088420FD02E49206888420BD02D49206883
:10330000884207D02C492068884203D02B49206886
:10331000884201D1012000E0002090B100BF206868
:10332000006A41F21111084050B92068006A890012
:10333000084028B92068406C20F4004021684864A7
:1033400000BF00BF2068006A41F21111084050B967
:103350002068006A8900084028B92068006820F0C9
:1033600001002168086000BF1DB9012084F83E00FB
:103370001AE0042D03D101213F20015514E0082D4E
:1033800003D10121402001550EE00C2D03D1012174
:103390004120015508E0102D03D1012142200155A3
:1033A00002E0012143200155002030BD002C0140E6
:1033B0000034014000400140004401400048014009
:1033C00000680349884201D1FEF714B87047000035
:1033D000004001407047014600BF91F88400012879
:1033E00001D102207047012081F8840000BF242011
:1033F000C1F88800086802680868006820F00100C9
:103400000B68186022F000520020486608680260CD
:103410002020C1F8880000BF002081F8840000BF90
:1034200000BFDFE77047704770B504460D4600BF28
:1034300094F88400012801D1022070BD012084F895
:10344000840000BF2420C4F8880020680668206833
:10345000006820F00100216808602068806820F082
:103460006060284321688860204601F003FA2068E4
:1034700006602020C4F8880000BF002084F8840083
:1034800000BF00BFD9E770B504460D4600BF94F8F1
:103490008400012801D1022070BD012084F884003D
:1034A00000BF2420C4F888002068066820680068EF
:1034B00020F00100216808602068806820F06040EA
:1034C000284321688860204601F0D4F9206806600E
:1034D0002020C4F8880000BF002084F8840000BFCA
:1034E00000BFD9E770477047704700002DE9F047EB
:1034F00004462068C569206806682068876840F629
:103500000F0005EA0009B9F1000F0FD105F0200006
:1035100060B106F0200010B907F0805030B1606F44
:1035200010B12046616F8847BDE8F087B9F1000F00
:103530007ED0DF48384018B9DE4830400028F7D048
:1035400005F0010058B106F4807040B101202168F7
:103550000862D4F8900040F00100C4F8900005F033
:10356000020058B107F0010040B102202168086252
:10357000D4F8900040F00400C4F8900005F0040076
:1035800058B107F0010040B1042021680862D4F866
:10359000900040F00200C4F8900005F0080070B1FF
:1035A00006F0200010B9C248384040B10820216818
:1035B0000862D4F8900040F00800C4F8900005F4C8
:1035C000006060B106F0806048B14FF4006021688F
:1035D0000862D4F8900040F02000C4F89000D4F8BD
:1035E0009000002852D005F0200050B106F02000D5
:1035F00010B907F0805020B1606F10B12046616FA4
:103600008847D4F890A02068806800F040004028E7
:1036100002D00AF0280070B3204601F053FA206867
:10362000806800F04000402826D100BF00BF00E0C5
:103630002DE02168083151E8001F21F04000216889
:10364000083141E80002002AF1D100BFD4F880001F
:1036500068B19948D4F880108863D4F88000FDF7E9
:1036600050FC98B1D4F88000816B88470EE020466A
:10367000FFF73AFF0AE003E02046FFF735FF05E0D9
:103680002046FFF731FF0020C4F890004CE7E06EC1
:10369000012865D105F01000002861D006F0100067
:1036A0000028FAD01020216808622068806800F0A5
:1036B000400040287AD1D4F88000006840681FFAA2
:1036C00080F8B8F1000F5CD0B4F85C00404558DDDC
:1036D000A4F85E80D4F880000068006800F0200044
:1036E000E8BB00BF00BF216851E8001F21F48070D3
:1036F000226842E800010029F5D100BF00BF00BFE9
:103700002168083151E8001F21F0010021680831CB
:1037100041E80002002AF3D100BF00BF00BF2168CA
:10372000083151E8001F21F040002168083141E8CC
:103730000002002AF3D100BF2020C4F88C00002032
:10374000E06600BF00BF216851E8001F21F01000B3
:10375000226842E800010029F5D100BF01E004E041
:1037600068E0D4F88000FDF791FB02202067B4F8F0
:103770005C00B4F85E20801A81B22046FFF752FE4A
:1037800012E0B4F85C0040450ED1D4F88000006827
:10379000006800F02000202806D102202067B4F83D
:1037A0005C102046FFF73EFEBEE6FFE734F85C0FF4
:1037B0006188401A1FFA80F860885C3CC8B3B8F191
:1037C000000F36D000BF00BF216851E8001F21F470
:1037D0009070226842E800010029F5D100BF00BFC7
:1037E00000BF2168083151E8001F314AD24301EA85
:1037F00002002168083141E80002002AF1D100BF2F
:103800002020C4F88C000020E066606700BF00BF85
:10381000216851E8001F21F01000226842E80001F1
:103820000029F5D100BF0220206741462046FFF75E
:10383000F9FD79E605F4801050B107F4800038B145
:103840004FF48010216808622046FFF74CFE6BE6BB
:1038500005F0800058B106F0800010B907F40000B0
:1038600028B1A06F10B12046A16F88475CE605F033
:10387000400030B106F0400018B1204601F058F980
:1038800052E605F4000030B106F0804018B1204641
:10389000FFF728FE48E605F0807030B106F00040E2
:1038A00018B12046FFF7BFFD3EE600BF3CE6000032
:1038B0000100001020010004AF4A000810B50446C2
:1038C0000CB9012010BDA06900B100E000BFD4F820
:1038D000880028B9002084F88400204600F02AF8E7
:1038E0002420C4F888002068006820F001002168C6
:1038F0000860A06A10B1204600F0E8FF204601F001
:1039000031FC012800D1DDE72068406820F49040B8
:10391000216848602068806820F02A00216888605B
:103920002068006840F0010021680860204601F02E
:1039300049F8C7E710B598B00446142113A8FCF75E
:103940009FFC442102A8FCF79BFC40492068884268
:103950003BD1202002900020079002A8FDF7D2FE64
:1039600008B1FCF7BEFF00BF3948C06D40F0010050
:103970003749C8650846C06D00F00100019000BFDE
:1039800000BF00BF0846C06C40F00100C864084694
:10399000C06C00F00100019000BF00BF0C2013902C
:1039A000022014900020159016900C20179013A957
:1039B0004FF09040FDF7F0FA002211465B20FDF732
:1039C000B9FD5B20FDF7A2FD3DE022492068884259
:1039D00039D1012002900020039002A8FDF792FE49
:1039E00008B1FCF77EFF00BF1948006E40F480402C
:1039F000174908660846006E00F48040019000BF39
:103A000000BF00BF0846C06C40F00200C864084612
:103A1000C06C00F00200019000BF00BFC0201390F6
:103A2000022014900020159016900720179013A9DB
:103A30000948FDF7B1FA002201212520FDF77AFDA2
:103A40002520FDF763FD18B010BD00000080004088
:103A500000100240003801400004004870B50446E0
:103A60000D461646D4F88C00202821D105B10EB998
:103A7000012070BD0020E0660E492068884211D008
:103A80002068406800F4000060B100BF00BF2168FA
:103A900051E8001F41F08060226842E800010029DF
:103AA000F5D100BF32462946204601F01DFDE0E772
:103AB0000220DEE70080004010B500681B491C4C66
:103AC00088420FD11A49E4780122C91C1948FFF72E
:103AD000C5FF1B2C24D05B2C22D02046BDE8104013
:103AE00002F0E8B8144988421AD111490122091D8F
:103AF0001248FFF7B3FF2079002811D0FF280FD01C
:103B00000F4B00220A2805D00D2803D0E1883F2959
:103B100007D304E0E08810B11A540120A070E280BD
:103B200010BD5854491CE18010BD000000800040C9
:103B300000000020D0000020003801406401002077
:103B40003C0000202DE9F84F04460E4617469946E2
:103B5000D4F88800202854D106B117B90120BDE857
:103B6000F88F00205434E06321206063FDF700FBF0
:103B7000824627806780543CA068B0F5805F04D1FE
:103B8000206910B90025B04602E035464FF0000824
:103B900020E05346002280212046CDF8009001F01D
:103BA00051FD20B12020C4F888000320D7E745B993
:103BB000B8F80000C0F308002168886208F1020824
:103BC00003E02878216888626D1CB4F85600401E16
:103BD000A4F85600B4F856000028DAD15346002263
:103BE00040212046CDF8009001F02CFD20B120208E
:103BF000C4F888000320B2E72020C4F88800002021
:103C0000ADE70220ABE7704700BFFEE710B5024802
:103C1000FFF76CFC10BD0000D0000020F0B587B0AD
:103C200014216846FCF72CFB2148C16C41F00401CB
:103C3000C164C16C01F004010591C16C41F0200127
:103C4000C164C16C01F020010591C16C41F001011A
:103C5000C164C16C01F001010591C16C41F0020128
:103C6000C164C06C012200F00200124E54030590A2
:103C700021463046FDF776FA4FF09047002220218A
:103C80003846FDF76FFA0094012400256946304656
:103C90000194CDE90245FDF77FF920208DE8310040
:103CA000694638460395FDF777F907B0F0BD000087
:103CB000001002400008004810B51448144908607C
:103CC000144848600021124881600121C160002130
:103CD000016141618161C1610162FDF7D3FA08B1FF
:103CE000FCF7FFFD00210A48FDF748FA08B1FCF790
:103CF000F8FD00210648FDF776FA08B1FCF7F1FD62
:103D00004FF48010FDF7A4FA10BD000000540040ED
:103D10007C0000200F06524010B517481749086074
:103D20004FF4E1304860002114488160C1600161B6
:103D30000C214161002181610162416200200F4933
:103D400088620846FFF7BAFD08B1FCF7CAFD0021FA
:103D50000A48FFF798FB08B1FCF7C3FD00210748AC
:103D6000FFF762FB08B1FCF7BCFD0448FFF733FB2B
:103D700008B1FCF7B6FD10BD00800040D000002067
:103D8000124810B5104901604FF482714160002162
:103D90004FF4E062C0E902124FF400720161C0E921
:103DA00005121022C0E9072107224162C0E90A1268
:103DB000016308214163FEF7B5FA002803D0BDE88E
:103DC0001040FCF78EBD10BD00380040F801002007
:103DD00010B598B00024149415941C210DA81694C5
:103DE000FCF74EFA34216846FCF74AFA2448234986
:103DF0000160A921C0E9011441F28731C0E903142F
:103E000044618461FFF763F908B1FCF76AFD14941B
:103E1000159414A91A481694FEF76AFE08B1FCF727
:103E200060FD6020CDE90D040F941094119412945C
:103E300000220DA912481394FFF791F808B1FCF77E
:103E400050FD00944FF40050CDE90440039400036A
:103E5000CDE9084001940294069407940A940B94C7
:103E6000694607480C94FEF7DBFD08B1FCF739FD05
:103E70000348FFF733F818B010BD0000002C0140D4
:103E80005C02002010B58AB00024079408941C211D
:103E900068460994FCF7F4F915484FF08041016039
:103EA000A921C0E9011441F28731C0E903148461FA
:103EB000FFF70DF908B1FCF714FD079407A90C48AA
:103EC0000994FEF715FE08B1FCF70BFD6020CDE963
:103ED000000402940822694605480494FFF73FF85D
:103EE00008B1FCF7FEFC0248FEF7F8FF0AB010BD6F
:103EF000A802002010B51848184908604FF4E130B6
:103F00004860002115488160C16001610C21416158
:103F100000218161C1610162416200200F49886214
:103F20000846FFF7CBFC08B1FCF7DBFC00210B488F
:103F3000FFF7A9FA08B1FCF7D4FC00210748FFF706
:103F400073FA08B1FCF7CDFC0448FFF744FA08B156
:103F5000FCF7C7FC10BD00000038014064010020E0
:103F600000BFFEE700BFFEE770B50C460546FDF753
:103F7000FFF8354A9FED351AD168D060411A00EE3E
:103F8000101A3349F8EE400A80EE810A10EE100A4A
:103F9000884201DC9FED2F0A281B01EE100AD2EDAA
:103FA000090A2D4CB8EEC11A2C4B41EE000AC2EDA5
:103FB000090A116AD2ED072A411A01EE101AF8EE29
:103FC000C11A81EE801A00EE100AD2ED051AB8EE81
:103FD000C00A21EE800AD2ED061A21EEA02A30EEA8
:103FE000020A22EE811A30EE011AB0EE410A10EEFA
:103FF000101AA14202DD9FED1A0A05E010EE101A18
:10400000994201D99FED170A174B31EE401A81EE04
:10401000212A70EEC20A10EE901AC2ED090A9942E6
:1040200003DDDFED120AC2ED090A10EE901A104B03
:10403000994203D9DFED0F0AC2ED090ABDEEC00AAD
:10404000106210EE100A70BD0000002000007A44DB
:1040500017B7D1386F12833A0000C8430000C8C3B5
:104060000000C8430000C8C30000FA430000FA4340
:104070000000FAC30000FAC37047000070B5164D87
:10408000ED6805F00304144DED68C5F303156B1CD2
:10409000022C0CD0032C09D1104DB5FBF3F50E4EBC
:1040A000F668C6F3062605FB06F10AE000BF0C4DD4
:1040B000B5FBF3F5084EF668C6F3062605FB06F1D8
:1040C00000BF00BF044DED68C5F341656D1C6A007B
:1040D000B1FBF2F070BD00000010024000127A0047
:1040E0000024F4002DE9F843044640684FF482763A
:1040F000154689464FF400474FF48068B04209D115
:10410000A068B84201D0404504D12068016821F080
:10411000400101604B46002280212046009500F0BE
:10412000AFF880B96068B04214D1A068B84201D03D
:1041300040450FD14B4600224FF4C0612046009508
:1041400000F02EF830B1206E40F0200020660320F1
:10415000BDE8F8830020FBE7F8B515460E460B4690
:104160000092044600224FF4C05100F019F888B9BB
:104170003346002280212046009500F081F848B99E
:10418000334600224FF4C0612046009500F008F845
:10419000002804D0206E40F0200020660320F8BDE7
:1041A0002DE9FE4F4FF0000A984617460E4604468A
:1041B0000C9D8DF804A0FCF7DBFF411BA8EB01056B
:1041C000FCF7D6FF814620684FF4C06B0C3002909C
:1041D0002A480068C0EBC00000EB8000000D684377
:1041E000009043E05E4506D12FB9029800788DF823
:1041F00004009DF80400B8F1FF3F37D0FCF7B8FF8A
:10420000A0EB0900A84203D215B1009858B32BE0E7
:104210002068416821F0E00141606068B0F5827F6C
:104220000BD1A068B0F5004F02D0B0F5806F04D17B
:104230002068016821F040010160A06AB0F5005FCC
:1042400009D12068016821F40051016020680168EB
:1042500041F400510160012084F85D0084F85CA005
:104260000320BDE8FE8F0025401E00902068806876
:104270003040B842B6D10020F3E7000034000020FF
:104280002DE9F8431E46914688460446089DFCF7F2
:104290006FFF401B351AFCF76BFF07462548006887
:1042A000C0F3CB30684338E0701C37D0FCF760FFB8
:1042B000C01BA84203D215B1009860B32CE020685F
:1042C000416821F0E00141606068B0F5827F0BD168
:1042D000A068B0F5004F02D0B0F5806F04D120681F
:1042E000016821F040010160A06AB0F5005F09D1CA
:1042F0002068016821F4005101602068016841F4E0
:1043000000510160012084F85D00002084F85C0009
:104310000320BDE8F8830025401E009020688168D6
:1043200038EA010004D000214945BDD10020F0E762
:104330000121F9E7340000207047704710B594B0B0
:1043400038216846FBF79CFF14210EA8FBF798FF65
:104350000020FDF741F9012000904FF4A0200190CA
:1043600002200324CDE907045521CDE909010421E8
:10437000CDE90B010D906846FDF726FD08B172B638
:10438000FEE70F20CDE90E0400201090119012904E
:1043900004210EA8FDF76EFB002801D072B6FEE7DF
:1043A00014B010BD0348006840F470000149086073
:1043B0007047000088ED00E010B50648006810B1B5
:1043C0000448FEF77AFC0448006810B10248FEF782
:1043D00074FC10BD5C020020F402002010B50268DD
:1043E0002A4B98420BD0B0F1804F08D0284B98420E
:1043F00005D0284B984202D0274B984203D122F097
:1044000070024B681A43214B984214D0B0F1804F90
:1044100011D01F4B98420ED01E4B98420BD01E4B12
:10442000984208D01D4B984205D01D4B984202D0AF
:104430001C4B984203D122F44072CB681A4322F0FD
:1044400080034C6943EA040202608B68C3620B6814
:1044500083620E4B98420BD00F4B984208D00F4B03
:10446000984205D00E4B984202D00E4B984201D193
:104470000B69036301234361036903F001031BB16B
:10448000036923F00103036110BD0000002C01400B
:10449000000400400008004000340140004001409A
:1044A000004401400048014030B501F01F050124DF
:1044B00004FA05F3046A9C430462046A01F01F05D0
:1044C00002FA05F52C43046230BD000030B5026AE3
:1044D000056A25F00105056243688469204D2C407A
:1044E00024F003040D682C4322F002028D682A4355
:1044F0001C4DA84200D10FE01B4DA84200D10BE09B
:104500001A4DA84200D107E0194DA84200D103E09E
:10451000184DA84206D100BF22F00802CD682A43F8
:1045200022F004020F4DA8420BD00F4DA84208D034
:104530000E4DA84205D00E4DA84202D00D4DA84206
:1045400007D123F4807323F400734D692B438D69E5
:104550002B43436084614D684563026230BD0000B7
:104560008FFFFEFF002C014000340140004001405D
:10457000004401400048014030B5026A056A25F058
:104580001005056243688469224D2C4024F4407470
:104590000D6844EA052422F020028D6842EA0512E3
:1045A0001D4DA84200D10FE01C4DA84200D10BE0E8
:1045B0001B4DA84200D100BF1A4DA84200D100BF38
:1045C000194DA84207D106E022F08002CD6842EAE8
:1045D000051222F04002104DA8420BD00F4DA84208
:1045E00008D00F4DA84205D00E4DA84202D00E4D66
:1045F000A84209D123F4806323F400634D6943EAA0
:1046000085038D6943EA8503436084614D68856352
:10461000026230BDFF8FFFFE002C014000340140DC
:1046200000400140004401400048014030B5026AAA
:10463000056A25F4807505624368C469224D2C40E3
:1046400024F003040D682C4322F400728D6842EAC2
:1046500005221E4DA84200D10FE01D4DA84200D1F9
:104660000BE01C4DA84200D100BF1B4DA84200D159
:1046700000BF1A4DA84207D106E022F40062CD68BF
:1046800042EA052222F48062104DA8420BD0104D60
:10469000A84208D00F4DA84205D00F4DA84202D025
:1046A0000E4DA84209D123F4805323F400534D69E1
:1046B00043EA05138D6943EA05134360C4614D68FD
:1046C000C563026230BD00008FFFFEFF002C014079
:1046D00000340140004001400044014000480140D6
:1046E00030B5026A056A25F4805505624368C469DD
:1046F000224D2C4024F440740D6844EA052422F431
:1047000000528D6842EA05321D4DA84200D10FE0EB
:104710001C4DA84200D10BE01B4DA84200D100BFA8
:104720001A4DA84200D100BF194DA84207D106E09A
:1047300022F40042CD6842EA053222F48042104D54
:10474000A8420BD00F4DA84208D00F4DA84205D06B
:104750000E4DA84202D00E4DA84209D123F4804349
:1047600023F400434D6943EA85138D6943EA8513B9
:104770004360C4614D680564026230BDFF8FFFFE77
:10478000002C014000340140004001400044014041
:104790000048014030B5026A056A25F4803505629B
:1047A0004368046D114D2C400D682C4322F40032F7
:1047B0000D8942EA05420E4DA8420BD00D4DA8428C
:1047C00008D00D4DA84205D00C4DA84202D00C4D8A
:1047D000A84204D123F480334D6943EA05234360A2
:1047E00004654D688564026230BD00008FFFFEFFE6
:1047F000002C0140003401400040014000440140D1
:104800000048014030B5026A056A25F4801505624A
:104810004368046D114D2C400D6844EA052422F4D0
:1048200000120D8942EA05520D4DA8420BD00D4DE4
:10483000A84208D00C4DA84205D00C4DA84202D089
:104840000B4DA84204D123F480234D6943EA85230C
:10485000436004654D68C564026230BDFF8FFFFE92
:10486000002C014000340140004001400044014060
:104870000048014070B5456E2DB90125A0F86A5079
:10488000A0F868501CE0082308240568AD68C5F34B
:1048900042610568AD686A0F0A4DAD5C15FB04F511
:1048A000094EB65C95FBF6F5A0F86A50054D6D5CB7
:1048B00015FB03F5044E765C95FBF6F5A0F8685001
:1048C00070BD0000985F0008A05F000890F82810F5
:1048D00001F00801082907D10168496821F4004165
:1048E000826B11430268516090F8281001F00101B9
:1048F00039B10168496821F40031C26A1143026884
:10490000516090F8281001F00201022907D10168D6
:10491000496821F48031026B11430268516090F8BC
:10492000281001F00401042907D10168496821F425
:104930008021426B11430268516090F8281001F009
:104940001001102907D10168896821F48051C26BD8
:1049500011430268916090F8281001F0200120298D
:1049600007D10168896821F40051026C1143026883
:10497000916090F8281001F04001402913D101689E
:10498000496821F48011426C114302685160416C06
:10499000B1F5801F07D10168496821F4C001826C1C
:1049A00011430268516090F8281001F080018029BD
:1049B00007D10168496821F40021C26C11430268E3
:1049C0005160704738B504460020C4F89000FCF7E9
:1049D000CFFB05462068006800F00800082821D1B8
:1049E0006FF07E402B4600224FF4001100902046CD
:1049F00000F028FEB0B100BF00BF216851E8001FE1
:104A000021F08000226842E800010029F5D100BFB2
:104A10002020C4F8880000BF002084F8840000BF74
:104A2000032038BD2068006800F00400042830D15D
:104A30006FF07E402B4600224FF48001009020460C
:104A400000F000FE28B300BF00BF216851E8001F3E
:104A500021F49070226842E800010029F5D100BFDE
:104A600000BF00BF2168083151E8001F21F001009C
:104A70002168083141E80002002AF3D100BF20205C
:104A8000C4F88C0000BF002084F8840000BF03201D
:104A9000C7E72020C4F88800C4F88C000020E06636
:104AA000206700BF84F8840000BF00BFB9E770B57D
:104AB0000446A56A0020A5F85E002846FEF714FD0E
:104AC00070BD000000BF00BF026852E8002F22F452
:104AD0009071036843E80012002AF5D100BF00BFBF
:104AE00000BF0268083252E8002F104B02EA0301AF
:104AF0000268083242E80013002BF2D100BFC16EF9
:104B000001290CD100BF00BF026852E8002F22F03B
:104B10001001036843E80012002AF5D100BF2021EC
:104B2000C0F88C100021C16641677047FEFFFFEF9F
:104B300010B5044600BF00BF216851E8001F21F0F6
:104B40004000226842E800010029F5D100BF202082
:104B5000C4F888000020A0672046FFF754F810BD75
:104B60002DE9F0410446B4F86070D4F88C00222896
:104B70006ED12068406A86B2A56D06EA07002880DB
:104B8000A06D801CA065B4F85E00401EA4F85E0015
:104B9000B4F85E00002861D100BF00BF216851E871
:104BA000001F21F49070226842E800010029F5D12D
:104BB00000BF00BF00BF2168083151E8001F21F08D
:104BC00001002168083141E80002002AF3D100BF4A
:104BD0002020C4F88C0000206067206720492068EE
:104BE000884211D02068406800F4000060B100BF26
:104BF00000BF216851E8001F21F08060226842E870
:104C000000010029F5D100BFE06E01281CD1002071
:104C1000E06600BF00BF216851E8001F21F01000CE
:104C2000226842E800010029F5D100BF2068C06970
:104C3000C0F3001010B1102021680862B4F85C10B5
:104C40002046FEF7EFFB09E02046FEF735FF05E0C2
:104C50002068806940F0080021688861BDE8F08123
:104C6000008000402DE9F84F0446B4F860B0206899
:104C7000C5692068006800902068D0F808A0D4F8C2
:104C80008C0022287ED1B4F86890AEE02068406A9B
:104C90001FFA80F8A76D08EA0B003880A06D801C11
:104CA000A065B4F85E00401EA4F85E002068C569E7
:104CB00005F00700B0B305F0010060B1009800F402
:104CC000807040B1012021680862D4F8900040F063
:104CD0000100C4F8900005F0020058B10AF001008C
:104CE00040B1022021680862D4F8900040F004002E
:104CF000C4F8900005F0040058B10AF0010040B17A
:104D0000042021680862D4F8900040F00200C4F842
:104D10009000D4F8900028B12046FEF7E5FB002073
:104D2000C4F89000B4F85E0000285ED100BF00BF58
:104D3000216851E8001F21F48070226842E80001D8
:104D40000029F5D100BF00BF00BF2168083151E83C
:104D5000001F414A01EA02002168083141E80002CF
:104D6000002AF2D100BF2020C4F88C000020606728
:104D700020673A492068884213D02068406800F4D0
:104D8000000000E05FE060B100BF00BF216851E8B3
:104D9000001F21F08060226842E800010029F5D15F
:104DA00000BFE06E01281CD10020E06600BF00BFFC
:104DB000216851E8001F21F01000226842E800013C
:104DC0000029F5D100BF2068C069C0F3001010B100
:104DD000102021680862B4F85C102046FEF722FB20
:104DE00002E02046FEF768FE07E0B9F1000F04D0AC
:104DF00005F0200000287FF449AF00BFB4F85E60E2
:104E000006B3B4F86800B04223DD00BF00BF2168DC
:104E1000083151E8001F21F080502168083141E835
:104E20000002002AF3D100BF0D48606700BF00BF39
:104E3000216851E8001F41F02000226842E800018B
:104E40000029F5D105E02068806940F0080021685C
:104E50008861BDE8F88F0000FEFFFFEF0080004092
:104E6000614B000870B50446B4F86060D4F88C005B
:104E700022286FD12068406A85B2F0B22840A16D27
:104E80000870A06D401CA065B4F85E00401EA4F838
:104E90005E00B4F85E00002862D100BF00BF216848
:104EA00051E8001F21F49070226842E800010029B7
:104EB000F5D100BF00BF00BF2168083151E8001FD5
:104EC00021F001002168083141E80002002AF3D1F5
:104ED00000BF2020C4F88C000020606720672149B3
:104EE0002068884211D02068406800F4000060B15A
:104EF00000BF00BF216851E8001F21F080602268D8
:104F000042E800010029F5D100BFE06E01281CD164
:104F10000020E06600BF00BF216851E8001F21F0BB
:104F20001000226842E800010029F5D100BF206886
:104F3000C069C0F3001010B1102021680862B4F8F5
:104F40005C102046FEF76EFA0AE02046FEF7B4FD3C
:104F500006E0FFE72068806940F00800216888616A
:104F600070BD0000008000402DE9F05F0446B4F8F9
:104F700060A02068C5692068D0F800B02068D0F82B
:104F80000890D4F88C0022287ED1B4F86880ADE077
:104F90002068406A87B20AF0FF003840A16D0870AF
:104FA000A06D401CA065B4F85E00401EA4F85E0031
:104FB0002068C56905F00700A8B305F0010058B1E5
:104FC0000BF4807040B1012021680862D4F8900091
:104FD00040F00100C4F8900005F0020058B109F05B
:104FE000010040B1022021680862D4F8900040F02E
:104FF0000400C4F8900005F0040058B109F0010065
:1050000040B1042021680862D4F8900040F002000A
:10501000C4F89000D4F8900028B12046FEF764FA56
:105020000020C4F89000B4F85E0000285ED100BFF4
:1050300000BF216851E8001F21F48070226842E817
:1050400000010029F5D100BF00BF00BF2168083171
:1050500051E8001F404A01EA02002168083141E896
:105060000002002AF2D100BF2020C4F88C000020EA
:105070006067206739492068884213D020684068FB
:1050800000F4000070B100E05EE000BF00BF2168E6
:1050900051E8001F21F08060226842E800010029E9
:1050A000F5D100BFE06E01281CD10020E06600BFF2
:1050B00000BF216851E8001F21F01000226842E87B
:1050C00000010029F5D100BF2068C069C0F30010BD
:1050D00010B1102021680862B4F85C102046FEF779
:1050E000A1F902E02046FEF7E7FC07E0B8F1000F67
:1050F00004D005F0200000287FF44AAF00BFB4F8C8
:105100005E6006B3B4F86800B04223DD00BF00BFA4
:105110002168083151E8001F21F0805021680831D2
:1051200041E80002002AF3D100BF0D48606700BFCC
:1051300000BF216851E8001F41F02000226842E8CA
:1051400000010029F5D105E02068806940F00800E1
:1051500021688861BDE8F09FFEFFFFEF00800040FE
:10516000654E00082DE9FE4F044600200290D44908
:105170002068884200D100E000BF2169A068084390
:1051800061690843E16940EA010820680068CD4987
:10519000084040EA0800216808602068406820F460
:1051A0004050E168084321684860D4F81880C44939
:1051B0002068884202D0206A40EA08082068806897
:1051C000C149084040EA0800216888602068C06A38
:1051D00020F00F00616A08432168C86200BFBB4924
:1051E0002068884216D1BA48006800F0030030B148
:1051F000012808D0022804D0032808D105E00125A1
:1052000007E0022505E0042503E0082501E010255C
:1052100000BF6FE0AF492068884216D1AC480068F3
:1052200000F00C0030B1042808D0082804D00C2865
:1052300008D105E0002507E0022505E0042503E08C
:10524000082501E0102500BF54E0A34920688842EA
:1052500016D19F48006800F0300030B1102808D007
:10526000202804D0302808D105E0002507E00225D9
:1052700005E0042503E0082501E0102500BF39E022
:1052800096492068884216D19148006800F0C00015
:1052900030B1402808D0802804D0C02808D105E0CB
:1052A000002507E0022505E0042503E0082501E0CC
:1052B000102500BF1EE082492068884219D1844829
:1052C000006800F4406048B1B0F5806F0AD0B0F5D6
:1052D000006F05D0B0F5406F08D105E0002507E06C
:1052E000022505E0042503E0082501E0102500BFA4
:1052F00000E0102500BF72492068884259D135B1BD
:10530000022D08D0042D08D0082D0DD109E0FCF79E
:10531000EBFC06460CE0724E0AE0FCF709FD06467F
:1053200006E04FF4004603E000260120029000BF93
:1053300000BF002E10D06B49606A31F81000B6FB38
:10534000F0F9606800EB4000484503D8606800034E
:10535000484502D201200290A6E06249606A31F815
:1053600010C06246002330461946FAF751FF4FF449
:10537000807C0022A0FB0C3B01FB0CB100FB021166
:105380006068400818185141CDE90001D4F804C004
:1053900062460023FAF73CFF0746B7F5407F05D386
:1053A000B7F5801F02D22068C7607DE0012002901F
:1053B0007AE0E069B0F5004F3FD1092D17D2DFE860
:1053C00005F005090D160F1616161300FCF78CFCD8
:1053D000064610E0FCF79AFC06460CE0404E0AE058
:1053E000FCF7A6FC064606E04FF4004603E0002664
:1053F0000120029000BF00BF86B33A49606A31F8CD
:105400001000B6FBF0F04000616800EB5100B0FB0B
:10541000F1F7102F0ED3B7F5803F0BD24FF6F07097
:1054200007EA000AC7F342004AEA000A2068C0F807
:105430000CA039E00120029036E0092D18D2DFE8F7
:1054400005F005090E17101717171400FCF74CFC90
:10545000064611E0FCF75AFC06460DE024E0204E1B
:105460000AE0FCF765FC064606E04FF4004603E060
:1054700000260120029000BF00BFAEB11949606A4A
:1054800031F81000B6FBF0F0616800EB5100B0FBA2
:10549000F1F7102F06D3B7F5803F03D2B8B22168D9
:1054A000C86001E0012002900120A4F86A00A4F87D
:1054B000680000206067A0670298BDE8FE8F0000CA
:1054C00000800040F369FFCFFFF4FF110038014076
:1054D000881002400044004000480040004C00405A
:1054E0000024F400805F000830B503469965A3F8F6
:1054F0005C20A3F85E200020586700BF9868B0F5D4
:10550000805F0AD1186920B940F2FF10A3F860004B
:1055100020E0FF20A3F860001CE0986848B91869F3
:1055200018B9FF20A3F8600014E07F20A3F8600002
:1055300010E09868B0F1805F09D1186918B97F2030
:10554000A3F8600006E03F20A3F8600002E000201E
:10555000A3F8600000BF0020C3F890002220C3F829
:105560008C0000BF00BF1C68083454E8004F44F0B2
:1055700001001C68083444E80005002DF3D100BF89
:10558000586EB0F1005F2CD1B3F86800904228DC6F
:105590009868B0F5805F04D1186910B9254858673C
:1055A00001E025485867186960B100BF00BF1C685A
:1055B00054E8004F44F480701D6845E80004002C56
:1055C000F5D100BF00BF00BF1C68083454E8004F8D
:1055D00044F080501C68083444E80005002DF3D1E5
:1055E00026E09868B0F5805F04D1186910B91348B7
:1055F000586701E012485867186960B100BF00BFE2
:105600001C6854E8004F44F490701D6845E800049D
:10561000002CF5D10CE000BF00BF1C6854E8004F1F
:1056200044F020001D6845E80004002CF5D100BFBF
:10563000002030BD654C0008694F0008614B000830
:10564000654E00082DE9F04104460D461746984680
:10565000069E41E0701C00283ED0FBF789FDA0EBC0
:105660000800B04200D816B90320BDE8F0812068D8
:10567000006800F0040070B3802D2DD0402D2BD099
:105680002068C069C0F3C00078B1082021680862B2
:105690002046FFF717FA0820C4F8900000BF00204A
:1056A00084F8840000BF0120DFE72068C069C0F3F0
:1056B000C02080B14FF40060216808622046FFF7E7
:1056C00001FA2020C4F8900000BF002084F8840074
:1056D00000BF0320C9E7FFE72068C0692840A8424F
:1056E00001D1012000E00020B842B3D00020BCE787
:1056F00010B50248FDF7FAFE10BD0000640100205D
:1057000000BFFEE70FB4054B10B503A9044A029889
:1057100000F034F810BC5DF814FB00009D5C00083C
:105720003800002002480068C0F3022070470000E3
:105730000CED00E010B5002804DB0A07130E054A43
:10574000135406E00A07140E034A00F00F031B1F50
:10575000D45410BD00E400E018ED00E002E008C8F9
:10576000121F08C1002AFAD170477047002001E0DB
:1057700001C1121F002AFBD1704700002DE9FF4F25
:105780008DB00F460546002606E025280BD0DDE942
:105790000F1290476D1C761C28780028F5D111B0A7
:1057A0003046BDE8F08F0024A246A1460122EC4914
:1057B00000E0044315F8013F203B02FA03F00842E1
:1057C000F7D128782A2810D06FF02F022878A0F17E
:1057D0003001092914D80AEB8A0102EB410144F097
:1057E000020400EB010A6D1CF0E701CF5FEA000A3A
:1057F00003D544F40054CAF1000A44F002046D1CBD
:1058000028782E2817D115F8010F44F004042A280F
:105810000ED06FF02F022878A0F1300109290AD8A4
:1058200009EB890102EB410100EB01096D1CF2E774
:1058300057F8049B6D1C28786C280FD006DC4C2888
:1058400017D068280DD06A2814D104E0742810D02D
:105850007A280FD10DE044F400140AE044F48014D7
:1058600001E044F440146978814202D104F58014C7
:105870006D1C6D1C2A786E2A1FD00CDC632A31D077
:1058800004DC002A8BD0582A11D1A3E0642A68D006
:10589000692A0CD165E0732A2ED004DC6F2A73D0FC
:1058A000702A04D19BE0752A6FD0782A6ED01046FA
:1058B000DDE90F129047761C50E1C4F30250022834
:1058C00006D0032809D0042801CF09D0066045E19D
:1058D00001CFF117C0E9006140E101CF06803DE151
:1058E00006703BE117F8040B8DF8000000208DF8DE
:1058F0000100EB46012003E057F804BB4FF0FF30F6
:1059000061074FF0000102D40DE008F10101884663
:1059100049450FDA8045F8DB1BF808100029F4D15F
:1059200008E008F1010188468142FADB1BF8081003
:105930000029F6D1DDE90F23AAEB080081462146B4
:1059400000F036F9304400EB080604E0DDE90F1200
:105950001BF8010B9047B8F10108F7D221464846E1
:10596000F7E00A21C4F302534FF0000B0891022B19
:1059700004D001CFC117032B09D00AE0FF1D27F087
:105980000707F7E8020108E032E01FE020E000B27C
:10599000C117042B01D140B2C117031E71F10003DE
:1059A00007DA4FF0000CD0EB0C006CEB01012D235B
:1059B00002E0230504D52B238DF82430012303E0D6
:1059C000E30701D02023F7E7984658E00A2110E0CA
:1059D00010210EE010204FF0000B08900CE0102179
:1059E0004FF0000B44F004044FF00809089103E065
:1059F00008214FF0000B0891C4F30253022B04D08E
:105A000001CF0021032B06D006E0FF1D27F007077A
:105A1000F7E8020103E080B2042B00D1C0B24FF0DE
:105A2000000823072BD5702A07D0DDF820C08CF0A2
:105A3000100C5CEA0B0C05D00EE040238DF82430EE
:105A4000012308E050EA010306D030238DF824300A
:105A50008DF8252002239846DDF820C08CF0080C34
:105A60005CEA0B0C0BD150EA010301D1630706D5A8
:105A700030238DF824304FF00108A9F10109582A8C
:105A800004D038A20B9208AA0A920BE03AA2F9E7D6
:105A90005B46089AFAF7BCFB0B9B9B5C0A9A521E6A
:105AA0000A92137050EA0102F2D10A98ADEB00009D
:105AB00000F1200B600702D524F4803401E04FF0A0
:105AC0000109D94502DDA9EB0B0000E0002000EB45
:105AD0000B0141440890AAEB010AE00306D4DDE97A
