:020000040800F2
:1000000048070020ED010008612C000809290008BC
:100010005D2C0008250300087D400008000000005A
:10002000000000000000000000000000D12C0008CB
:100030002903000800000000652C0008D32C0008EC
:10004000070200080702000807020008070200086C
:10005000070200080702000807020008070200085C
:10006000070200080702000807020008070200084C
:10007000070200080702000807020008070200083C
:10008000070200080000000007020008070200083D
:10009000070200080702000807020008070200081C
:1000A000592D00080702000807020008070200088F
:1000B00007020008070200080702000807020008FC
:1000C00007020008070200080702000807020008EC
:1000D000070200086D400008070200080702000838
:1000E00007020008070200080702000807020008CC
:1000F00007020008070200080702000800000000CD
:1001000000000000070200080000000007020008CD
:1001100007020008000000000702000807020008AC
:10012000070200080702000807020008070200088B
:10013000070200080000000000000000070200089D
:10014000070200080702000800000000000000008D
:10015000000000000000000000000000000000009F
:10016000000000000000000000000000070200087E
:10017000070200080000000000000000000000006E
:10018000000000000702000800000000000000005E
:10019000000000000000000000000000000000005F
:1001A0000000000000000000070200080D29000800
:1001B000070200080702000807020008000000000C
:1001C000000000000702000800000000000000001E
:1001D0000702000807020008DFF80CD000F090F8D2
:1001E00000480047C94400084807002006488047E7
:1001F00006480047FEE7FEE7FEE7FEE7FEE7FEE70C
:10020000FEE7FEE7FEE7FEE7452D0008D9010008FE
:100210002DE9F05F0546002092469B46884606463B
:10022000814640241BE0284641464746224600F0CE
:1002300057F853465A46C01A914110D311461846F2
:10024000224600F03EF82D1A67EB01084F46224681
:100250000120002100F035F817EB00094E41201E67
:10026000A4F10104DFDC484631462A464346BDE896
:10027000F09FD2B201E000F8012B491EFBD270477B
:100280000022F6E710B513460A4604461946FFF762
:10029000F0FF204610BD30B50B460146002020225D
:1002A000012409E021FA02F59D4205D303FA02F583
:1002B000491B04FA02F52844151EA2F10102F1DCE3
:1002C00030BD202A04DB203A00FA02F100207047FA
:1002D0009140C2F1200320FA03F319439040704784
:1002E000202A04DB203A21FA02F00021704721FA8B
:1002F00002F3D040C2F120029140084319467047F2
:10030000064C074D06E0E06840F0010394E8070062
:1003100098471034AC42F6D3FFF762FF3846000826
:100320005846000800BFFEE7704772B600BFFEE700
:100330000146002091F82520022A03D00422CA6336
:10034000012027E00A68126822F00E020B681A608A
:100350008A6C126822F480728B6C1A600A681268C8
:1003600022F001020B681A6091F8442002F01F038A
:1003700001229A400B6C5A60D1E913325A604A6DDF
:1003800042B14A6D126822F480724B6D1A60D1E955
:1003900016325A60012281F8252000BF002281F820
:1003A000242000BF704770B50446002594F825004E
:1003B00002280BD00420E063012084F8250000BF50
:1003C000002084F8240000BF012534E02068006884
:1003D00020F00E00216808602068006820F001000D
:1003E00021680860A06C006820F48070A16C08602F
:1003F00094F8440000F01F0101208840216C4860FF
:10040000D4E913104860606D40B1606D006820F45D
:100410008070616D0860D4E916104860012084F88E
:10042000250000BF002084F8240000BFA06B10B19D
:100430002046A16B8847284670BD000078B502466B
:100440000B460021CAE001268E401D6805EA06041D
:10045000002C73D01D7905F00305012D04D01D7902
:1004600005F00305022D13D190684E000325B54019
:10047000A8434E00DD68B5402843906050680125D0
:100480008D40A8431D79C5F300158D402843506069
:100490001D7905F00305032D09D0D0684E00032512
:1004A000B540A8434E009D68B5402843D0601D79F3
:1004B00005F00305022D13D1CE0802F1200555F8F1
:1004C00026004D07EE0E0F25B540A8434E07F60E49
:1004D0001D69B5402843CE0802F1200545F82600E5
:1004E00010684E000325B540A8431D7905F00305AB
:1004F0004E00B540284310605D6805F44035002D7E
:100500006BD000BF384D2D6E45F00105364E356677
:1005100035462D6E05F00105009500BF00BF4FEA7E
:10052000B6358E0855F826008D072E0F0F25B540DD
:10053000A843B2F1904F02D100251AE04DE02B4DB7
:10054000AA4201D1012514E0294DAA4201D1022578
:100550000FE0284DAA4201D103250AE0264DAA4208
:1005600001D1042505E0254DAA4201D1052500E071
:1005700006258E07360FB5402843214D8E0845F8D5
:100580002600204D2868A0435D6805F4801505B15C
:1005900020431C4D28602D1D2868A0435D6805F48C
:1005A000001505B12043174D2D1D2860154D2D1F39
:1005B0002868A0435D6805F4003505B12043114D5E
:1005C0002D1F28602D1F2868A0435D6805F4803525
:1005D00005B120430B4D083D2860491C1D68CD40E6
:1005E000002D7FF430AF78BD0010024000040048B9
:1005F00000080048000C00480010004800140048A3
:1006000008000140080401400AB1816100E08162F4
:10061000704700000148006870470000100000208B
:10062000024692F8410020282DD100BF92F84000E8
:10063000012801D102207047012082F8400000BF4C
:10064000242082F841001068006820F0010013683F
:1006500018601068006820F48050136818601068F3
:1006600000680843136818601068006840F00100D3
:1006700013681860202082F8410000BF002082F833
:10068000400000BFD7E70220D5E710B502460B4671
:1006900092F8410020282AD100BF92F8400001289A
:1006A00001D1022010BD012082F8400000BF2420AB
:1006B00082F841001068006820F001001468206092
:1006C0001068016821F4706141EA0321106801603B
:1006D0001068006840F0010014682060202082F853
:1006E000410000BF002082F8400000BFDAE702208E
:1006F000D8E7000008B500BF0949096E41F00101C3
:10070000074A11661146096E01F00101009100BF10
:1007100000BF044949680143024A516008BD000016
:10072000001002400000014010B504460CB9012041
:1007300010BD94F8410028B9002084F840002046FC
:1007400000F05EF8242084F841002068006820F062
:10075000010021680860606820F07060216808610D
:100760002068806820F4004021688860E0680128E3
:1007700005D1A06840F400402168886004E0A068CA
:1007800040F4044021688860E068022806D12068AF
:10079000406840F400602168486005E020684068D7
:1007A00020F40060216848602068406813490843CD
:1007B000216848602068C06820F400402168C86053
:1007C000D4E904010843A16940EA01202168C86016
:1007D000D4E907010843216808602068006840F0F8
:1007E00001002168086000206064202084F8410036
:1007F0000020206384F8420000BF99E700800002D7
:1008000010B598B00446142113A8FFF739FD442110
:1008100002A8FFF735FD1D492068884234D14020E9
:1008200002900020089002A800F0BEF908B1FFF77E
:100830007CFD00BF1648C06C40F002001449C8643B
:100840000846C06C00F00200019000BF00BF4FF4EA
:1008500040701390122014900120159000201690E3
:100860000420179013A90B48FFF7E8FD00BF0848C4
:10087000806D40F40010064988650846806D00F4DC
:100880000010019000BF00BF18B010BD0054004020
:10089000001002400004004803480068034909684A
:1008A000084401490860704710000020180000202B
:1008B00010B50024032000F0CDF80F2000F008F858
:1008C00008B1012401E000F051F8204610BD0000FD
:1008D000F0B587B004460026002700BF1E48006E12
:1008E00040F480301C4908660846006E00F48030F1
:1008F000009000BF00BF01A902A800F01FFC00F09B
:1009000057FC06461548B6FBF0F0471E144815493B
:10091000086040F2E7311348C1604760002101617F
:10092000816001F01AF8054695B90E4801F04EF8BD
:1009300005466DB9182000F03BF8102C07D20022B4
:100940002146182000F048F80748046000E001251F
:10095000284607B0F0BD00000010024040420F00E2
:1009600000400140F80200201400002008B500BF3C
:100970000E48006E40F001000C4908660846006E03
:1009800000F00100009000BF00BF00BF0846806D6E
:1009900040F0805088650846806D00F080500090DF
:1009A00000BF00BF00F0F6F808BD000000100240D4
:1009B0000146084600280DDB00BF00BF00F01F0302
:1009C00001229A4043099B0003F1E023C3F8002170
:1009D00000BF00BF00BF70472DE9F05F80460D46A5
:1009E000164603F05DFB074639462A46334601F0BA
:1009F0000700C0F1070ABAF1040F02D94FF0040A48
:100A000001E0C0F1070AD14600F1040ABAF1070F6C
:100A100002D24FF0000A01E0A0F1030AD4464FF0E1
:100A2000010A0AFA09FAAAF1010A0AEA020A0AFA0A
:100A30000CFA4FF0010B0BFA0CFBABF1010B0BEABC
:100A4000030B4AEA0B042146404603F031FBBDE8A4
:100A5000F09F000000BF00F00702064B19684FF638
:100A6000FF031940044B0B4343EA0221014B196079
:100A700000BF70470CED00E00000FA0502468ABB9B
:100A80004148006800F4C060B0F5806F2BD13E484B
:100A90008030006820F480703B4BC3F8800018461B
:100AA000006820F4C06040F40070186037480068A7
:100AB00032235843364BB0FBF3F0411C00E0491E93
:100AC0003148406900F48060B0F5806F01D10029A1
:100AD000F5D12D48406900F48060B0F5806F51D1A8
:100AE0000320704708E028488030006820F48070B8
:100AF000254BC3F8800045E0B2F5007F3AD122488B
:100B0000006800F4C060B0F5806F2AD11E488030C4
:100B1000006840F480701C4BC3F8800018460068E1
:100B200020F4C06040F40070186018480068322358
:100B30005843174BB0FBF3F0411C00E0491E12482C
:100B4000406900F48060B0F5806F01D10029F5D1D3
:100B50000D48406900F48060B0F5806F12D1032029
:100B6000BFE709488030006840F48070064BC3F846
:100B7000800007E00448006820F4C06040F4806012
:100B8000014B18600020ACE7007000401C00002002
:100B900040420F000348806840F48040014988606B
:100BA00070470000007000402DE9F843044600271C
:100BB000B846206800F40020B0F5002F73D1B94684
:100BC000D348806D00F0805078B900BFD048806D68
:100BD00040F08050CE4988650846806D00F0805016
:100BE000009000BF00BF4FF00109CA48006840F400
:100BF0008070C8490860FFF70DFD064606E0FFF764
:100C000009FD801B022801D9032705E0C1480068BF
:100C100000F480700028F2D000BF002F46D1BC48FD
:100C20009030006800F44075CDB1206CA84216D019
:100C3000B7489030006820F44075B548D0F890006F
:100C400040F48030B249C1F890000846D0F89000D6
:100C500020F48030C1F890000846C0F8905005F0AC
:100C60000100A0B1FFF7D6FC064608E0FFF7D2FC72
:100C7000801B41F28831884201D9032706E0A4484D
:100C80009030006800F002000028EFD000BF5FB98C
:100C90009F489030006820F44070216C08439C49C4
:100CA000C1F8900003E00CE0B84600E0B846B9F1A6
:100CB000010F05D19648806D20F0805094498865D9
:100CC00000BF207800F0010048B1914888300068EA
:100CD00020F00300616808438D49C1F8880020783E
:100CE00000F00200022809D189488830006820F00D
:100CF0000C00A16808438649C1F88800207800F0FC
:100D00000400042809D182488830006820F03000AF
:100D1000E16808437E49C1F88800207800F00800A7
:100D2000082809D17A488830006820F0C00021697D
:100D300008437749C1F88800207800F02000202877
:100D400009D173488830006820F440606169084325
:100D50006F49C1F88800207800F04000402809D190
:100D60006B488830006820F44050A1690843684906
:100D7000C1F88800207800F08000802809D16448FC
:100D80008830006820F44040E16908436049C1F8B8
:100D90008800208800F48070B0F5807F09D15C481D
:100DA0008830006820F44030216A08435849C1F86F
:100DB0008800208800F40070B0F5007F09D1544805
:100DC0008830006820F44020616A08435049C1F827
:100DD0008800208800F48060B0F5806F13D14C4803
:100DE0008830006820F44010A16A084348498831DF
:100DF0000860A06AB0F5801F05D14548C06840F47E
:100E000080104349C860208800F40060B0F5006F8E
:100E100013D13F488830006820F44000E16A08435D
:100E20003B4988310860E06AB0F5800F05D1384849
:100E3000C06840F480103649C860208800F48050B3
:100E4000B0F5805F13D132488830006820F04070E0
:100E5000216B08432E4988310860206BB0F1807FF8
:100E600005D12B48C06840F480102949C86020880B
:100E700000F40050B0F5005F13D1254888300068B9
:100E800020F04060616B0843214988310860606B45
:100E9000B0F1006F05D11E48C06840F480101C49B5
:100EA000C860208800F48040B0F5804F13D1184806
:100EB0008830006820F04060A16B084314498831F5
:100EC0000860A06BB0F1006F05D11148C06840F414
:100ED00080100F49C860208800F40040B0F5004F32
:100EE00013D10B488830006820F04050E16B084374
:100EF000074988310860E06BB0F1805F05D1044894
:100F0000C06840F480300249C8604046BDE8F883BC
:100F100000100240007000402DE9F04104460D46EB
:100F20004FF0000814B90120BDE8F0817D48006849
:100F300000F00F00A8420ED27A48006820F00F009F
:100F40002843784908600846006800F00F00A8426E
:100F500001D00120E8E7207800F00100002864D0EB
:100F60006068032823D17048006800F0007008B959
:100F70000120D9E701F078FE06466C48864237D951
:100F80006948806800F0F00030B1207800F002007D
:100F900002282DD1A06858BB6348806820F0F0007B
:100FA00040F08000604988604FF0800820E0606871
:100FB000022806D15C48006800F4003040B90120E6
:100FC000B2E75948006800F4806008B90120ABE737
:100FD00000F000F906465548864209D95248806813
:100FE00020F0F00040F080004F4988604FF080080A
:100FF0004D48806820F00300616808434A498860D2
:10100000FFF708FB074608E0FFF704FBC01B41F2AF
:101010008831884201D9032086E74348806800F080
:101020000C006168B0EB810FEED1207800F0020077
:10103000022820D1207800F00400042805D13A4885
:10104000806840F4E06038498860207800F008004B
:10105000082807D13448806820F4605040F4E060EC
:10106000314988603048806820F0F000A16808436A
:101070002D49886008E0B8F1800F05D12A488068C2
:1010800020F0F000284988602648006800F00F0032
:10109000A84219D92348006820F00F0028432149AD
:1010A0000860FFF7B7FA074608E0FFF7B3FAC01B7E
:1010B00041F28831884201D9032035E71948006898
:1010C00000F00F00A842F0D1207800F004000428BE
:1010D00007D11548806820F4E060E16808431249B0
:1010E0008860207800F00800082808D10E48806841
:1010F00020F46050216940EAC1000B49886000F08B
:1011000069F809498968C1F30311094A515C01F082
:101110001F01C8400749086007480068FFF7D8FB6F
:1011200002E70000002002400010024000B4C404A6
:10113000204600081C000020140000200F2202603E
:101140000D4A926802F0030242600B4A926802F074
:10115000F0028260084A926802F4E062C260064AC5
:10116000926802F46052D2080261044A126802F0E6
:101170000F020A6070470000001002400020024089
:1011800001480068704700001C00002000B5FFF710
:10119000F7FF05498968C1F30221044A515C01F057
:1011A0001F01C84000BD000000100240304600088A
:1011B00000B5FFF7E5FF05498968C1F3C221044A7C
:1011C000515C01F01F01C84000BD0000001002404A
:1011D0003046000870B5224DAD6805F00C05042DB1
:1011E00001D120483AE01E4DAD6805F00C05082DF0
:1011F00001D11D4832E01A4DAD6805F00C050C2DEB
:101200002BD1174DED6805F00304154DED68C5F3BE
:1012100003156A1C022C0CD0032C09D1124DB5FB0E
:10122000F2F50F4EF668C6F3062605FB06F10AE056
:1012300000BF0C4DB5FBF2F5094EF668C6F3062665
:1012400005FB06F100BF00BF054DED68C5F3416524
:101250006D1C6B00B1FBF3F000E0002070BD0000DE
:10126000001002400024F40000127A002DE9F84337
:10127000044614B90120BDE8F883207800F001008D
:10128000002865D0FC48806800F00C07FA48C06868
:1012900000F003060C2F01D1032E01D0082F0AD134
:1012A000F548006800F40030002851D0606800283C
:1012B0004ED10120DFE700BF6068B0F5803F06D166
:1012C000ED48006840F48030EB4908601AE060683F
:1012D000B0F5A02F0BD1E848006840F48020E64923
:1012E00008600846006840F4803008600AE0E24880
:1012F000006820F48030E04908600846006820F467
:101300008020086000BF606888B1FFF783F9054658
:1013100006E0FFF77FF9401B642801D90320AAE704
:10132000D548006800F400300028F2D010E0FFF744
:1013300071F9054606E0FFF76DF9401B642801D9F5
:10134000032098E7CC48006800F400300028F2D170
:10135000207800F00200022860D1C748806800F0C1
:101360000C07C548C06800F003060C2F01D1022EFF
:1013700001D0042F18D1C048006800F4806018B173
:10138000E06808B9012076E7BB48406820F0FE40DD
:10139000217C40EA0160B8494860B8480068FFF71E
:1013A00097FA18B3012066E7E06800B3B248006816
:1013B00040F48070B0490860FFF72CF9054606E05C
:1013C000FFF728F9401B022801D9032053E7AA4858
:1013D000006800F480600028F2D0A748406820F040
:1013E000FE40217C40EA0160A349486016E0A24823
:1013F000006820F48070A0490860FFF70BF90546EB
:1014000006E0FFF707F9401B022801D9032032E765
:101410009948006800F480600028F2D1207800F03C
:101420000800082836D16069D0B19348943000682C
:1014300040F001009049C1F89400FFF7EBF8054631
:1014400006E0FFF7E7F8401B022801D9032012E766
:1014500089489430006800F002000028F1D019E0BB
:1014600085489430006820F001008349C1F8940059
:10147000FFF7D0F8054606E0FFF7CCF8401B02283E
:1014800001D90320F7E67C489430006800F00200A0
:101490000028F1D1207800F00400042872D14FF028
:1014A00000087548806D012121EA107078B100BFF5
:1014B0007148806D40F080506F4988650846806DA6
:1014C00000F08050009000BF00BF4FF001086C4852
:1014D000006800F48070B0B96948006840F480701A
:1014E00067490860FFF796F8054606E0FFF792F8AF
:1014F000401B022801D90320BDE66148006800F4C2
:1015000080700028F2D000BFA068012808D15A4896
:101510009030006840F001005749C1F8900021E088
:10152000A06805280FD154489030006840F00400AE
:101530005149C1F890000846D0F8900040F00100F1
:10154000C1F890000EE04C489030006820F0010097
:101550004949C1F890000846D0F8900020F00400F6
:10156000C1F8900000BFA068A8B1FFF753F8054686
:1015700009E0FFF74FF8401B41F28831884202D959
:10158000032078E625E03C489030006800F0020037
:101590000028EED013E0FFF73DF8054608E0FFF71E
:1015A00039F8401B41F28831884201D9032062E6B4
:1015B00031489030006800F002000028EFD1B8F107
:1015C000010F05D12C48806D20F080502A49886594
:1015D00000BF207800F02000202836D1A069D0B1CB
:1015E00025489830006840F001002349C1F8980070
:1015F000FFF710F8054606E0FFF70CF8401B02283D
:1016000001D9032037E61C489830006800F002003A
:101610000028F1D019E018489830006820F0010047
:101620001549C1F89800FEF7F5FF054606E0FEF7FC
:10163000F1FF401B022801D903201CE60E48983018
:10164000006800F002000028F1D1E069002860D0B5
:101650000948806800F00C000C287AD0E069022864
:1016600058D10548006820F0807003490860FEF7F3
:10167000D1FF05460DE000000010024014000020DC
:1016800000700040FEF7C6FF401B022801D903206E
:10169000F1E54A48006800F000700028F2D1D4E972
:1016A0000810401E41EA0011A06A41EA0021208E84
:1016B0000122C2EB500041EA40513420005DC2EBF0
:1016C000500041EA40612C20005D41EAC0603B4986
:1016D000C9683B4A114008433849C8600846006859
:1016E00040F0807008600846C06840F08070C860B4
:1016F000FEF790FF054606E0FEF78CFF401B022830
:1017000001D90320B7E52D48006800F000700028DB
:10171000F2D051E02948006820F080702749086025
:10172000FEF778FF054606E0FEF774FF401B02282F
:1017300001D903209FE52148006800F000700028CF
:10174000F2D11E48C0681F4908401C49C86033E0F8
:10175000FFE7E069012800D18DE51848C66806F06A
:101760000301206A814225D106F0F001606A401E23
:10177000B1EB001F1ED106F4FE41A06AB1EB002FB1
:1017800018D106F078412C20005DB1EBC06F11D16B
:1017900006F4C001208E0122C2EB5000B1EB405F85
:1017A00008D106F0C0613420005DC2EB5000B1EBFF
:1017B000406F01D001205EE500205CE50010024092
:1017C0000C809F01FCFFEEFE7047704770470000E1
:1017D00010B50346002200BF93F83C00012801D158
:1017E000022010BD012083F83C0000BF22F0FF0062
:1017F000CC6840EA040222F440708C6840EA04029B
:1018000022F480604C6840EA040222F400600C6814
:1018100040EA040222F480500C6940EA040222F4F7
:1018200000504C6940EA040222F480400C6B40EA0C
:10183000040222F470200C8B40EA044222F0805013
:10184000CC6940EA0402124C1868A04203D0114C43
:101850001868A04213D122F470000C8D40EA0452A3
:1018600022F080700C6A40EA040222F000704C6A98
:1018700040EA040222F00050CC6A40EA04021868F0
:10188000426400BF002083F83C0000BF00BFA8E70F
:10189000002C014000340140704770477047000041
:1018A00030B502460B4600BF92F83C00012801D13A
:1018B000022030BD012082F83C0000BF022082F8E7
:1018C0003D0010684168106884681D4D1068A8428A
:1018D00003D01C4D1068A84203D121F47001586850
:1018E0000143194801401868014310684160144DD4
:1018F0001068A84213D01068B0F1804F0FD0134D7C
:101900001068A8420BD0124D1068A84207D00D4DA8
:101910001068A84203D00F4D1068A84205D124F0EA
:1019200080049868044310688460012082F83D00B8
:1019300000BF002082F83C0000BF00BFB9E70000F4
:10194000002C0140003401408FFFFFFD00040040E7
:101950000008004000400140704710B504460CB933
:10196000012010BD94F83D0028B9002084F83C0007
:10197000204600F029F8022084F83D00211D20684F
:1019800001F0FCF9012084F8480000BF84F83E0013
:1019900001213F20015540200155412001554220A1
:1019A00001554320015500BF00BF012084F84400C9
:1019B00045200155462001554720015500BF012013
:1019C00084F83D000020CCE770470000014691F804
:1019D0003D00012801D001207047022081F83D0020
:1019E0000868C06840F001000B68D860184B0868B0
:1019F000984213D00868B0F1804F0FD0154B08689B
:101A000098420BD0144B0868984207D0134B0868D3
:101A1000984203D0124B0868984210D10868806839
:101A2000104B00EA0302062A0FD0B2F5803F0CD01B
:101A30000868006840F001000B68186005E008685D
:101A4000006840F001000B6818600020C4E7000047
:101A5000002C014000040040000800400034014018
:101A60000040014007000100704770B5044620683F
:101A7000C6682068056905F00200022819D106F041
:101A80000200022815D1401F21680861012020773B
:101A90002068806900F0030018B12046FFF7E4FFDA
:101AA00005E0204600F08AF9204600F0E7FA002021
:101AB000207705F00400042819D106F0040004285A
:101AC00015D1C04321680861022020772068806911
:101AD00000F4407018B12046FFF7C6FF05E020462D
:101AE00000F06CF9204600F0C9FA0020207705F0DC
:101AF0000800082819D106F00800082815D1C043AD
:101B000021680861042020772068C06900F0030084
:101B100018B12046FFF7A8FF05E0204600F04EF977
:101B2000204600F0ABFA0020207705F010001028C6
:101B300019D106F01000102815D1C04321680861A2
:101B4000082020772068C06900F4407018B1204652
:101B5000FFF78AFF05E0204600F030F9204600F04C
:101B60008DFA0020207705F0010048B106F0010051
:101B700030B16FF0010021680861204600F080FA62
:101B800005F08000802804D005F40050B0F5005F17
:101B90000AD106F08000802806D16FF40250216837
:101BA00008612046FFF711FE05F48070B0F5807FD4
:101BB0000AD106F08000802806D16FF48070216879
:101BC00008612046FFF700FE05F04000402809D1DB
:101BD00006F04000402805D1C04321680861204636
:101BE00000F05AFA05F02000202809D106F0200064
:101BF000202805D1C043216808612046FFF7E6FD93
:101C000005F48010B0F5801F0BD106F48010B0F5FC
:101C1000801F06D16FF48010216808612046FFF70D
:101C20003CFE05F40010B0F5001F0BD106F40010C7
:101C3000B0F5001F06D16FF400102168086120463E
:101C4000FFF72AFE05F48000B0F5800F0BD106F4F3
:101C50008000B0F5800F06D16FF480002168086124
:101C60002046FFF71BFE05F40000B0F5000F0BD176
:101C700006F40000B0F5000F06D16FF400002168F3
:101C800008612046FFF768FE70BD000010B586B001
:101C90000446142101A8FEF7F3FA2149206888427E
:101CA0001CD100BF1F48C06C40F001001D49C86432
:101CB0000846C06C00F00100009000BF00BF88150E
:101CC00001900220029000200390049006200590CD
:101CD00001A94FF09040FEF7B1FB1EE02068B0F183
:101CE000804F1AD100BF0F48C06C40F002000D4970
:101CF000C8640846C06C00F00200009000BF00BF3E
:101D00000815019002200290002003900490012009
:101D1000059001A90448FEF791FB06B010BD000034
:101D2000002C014000100240000400482DE9F04161
:101D300004460E461546002700BF94F83C000128D3
:101D400002D10220BDE8F081012084F83C0000BFF0
:101D50000C2D1AD005DC4DB1042D0CD0082D23D14B
:101D60000EE0102D16D0142D1ED118E0314620683B
:101D700001F06AF81AE03146206801F0BBF815E07E
:101D80003146206801F010F910E03146206801F07A
:101D900065F90BE03146206801F0BAF906E03146FA
:101DA000206801F0EDF901E0012700BF00BF00BF8E
:101DB000002084F83C0000BF3846C3E7704710B5E8
:101DC00004460CB9012010BD94F83D0028B900204C
:101DD00084F83C00204600F029F8022084F83D00F9
:101DE000211D206800F0CAFF012084F8480000BFD0
:101DF00084F83E0001213F2001554020015541203B
:101E00000155422001554320015500BF00BF01206C
:101E100084F84400452001554620015547200155CE
:101E200000BF012084F83D000020CCE738B504460F
:101E30000D492068884215D100BF0C48006E40F45F
:101E400000600A4908660846006E00F400600090D1
:101E500000BF00BF00220F211820FEF7BDFD182093
:101E6000FEF7A6FD38BD0000002C01400010024026
:101E70002DE9F04104460D461646002700BF94F8B0
:101E80003C00012802D10220BDE8F081012084F845
:101E90003C0000BF0C2E51D005DC4EB1042E1ED0EC
:101EA000082E7AD133E0102E60D0142EF9D175E0CF
:101EB0002946206800F0C8FF2068806940F00800CB
:101EC000216888612068806920F0040021688861A9
:101ED00020688069296908432168886178E029467B
:101EE000206801F007F82068806940F400602168EC
:101EF00088612068806920F480602168886120689A
:101F00008069296940EA01202168886160E02946EA
:101F1000206801F049F82068C06940F00800216895
:101F2000C8612068C06920F004002168C861206889
:101F3000C069296908432168C86149E029462068C9
:101F400001F08CF82068C06940F400602168C86125
:101F50002068C06920F480602168C8612068C06979
:101F6000296940EA01202168C86131E029462068DA
:101F700001F0CEF82068006D40F008002168086587
:101F80002068006D20F00400216808652068006D5D
:101F900029690843216808651AE017E02946206886
:101FA00001F0EEF82068006D40F4006021680865DB
:101FB0002068006D20F48060216808652068006D4D
:101FC000296940EA01202168086501E0012700BF76
:101FD00000BF00BF002084F83C0000BF384653E734
:101FE00010B504460CB9012010BD94F83D0028B985
:101FF000002084F83C00204600F02AF8022084F8F3
:102000003D00211D206800F0B9FE012084F8480041
:1020100000BF84F83E0001213F20015540200155BA
:1020200041200155422001554320015500BF00BF0A
:10203000012084F8440045200155462001554720E1
:10204000015500BF012084F83D000020CCE70000CE
:1020500008B50168B1F1804F0DD100BF0649896D07
:1020600041F00101044A91651146896D01F00101B9
:10207000009100BF00BF08BD001002407047000083
:1020800010B5044603492068884201D1FEF704FCDC
:1020900010BD0000004001407047014600BF91F8AC
:1020A0008400012801D102207047012081F88400BA
:1020B00000BF2420C1F8880008680268086800682A
:1020C00020F001000B68186022F0005200204866E2
:1020D000086802602020C1F8880000BF002081F855
:1020E000840000BF00BFDFE77047704770B504464B
:1020F0000D4600BF94F88400012801D1022070BD74
:10210000012084F8840000BF2420C4F888002068DF
:1021100006682068006820F00100216808602068D7
:10212000806820F06060284321688860204601F0C4
:102130005FF8206806602020C4F8880000BF0020F7
:1021400084F8840000BF00BFD9E770B504460D468F
:1021500000BF94F88400012801D1022070BD012045
:1021600084F8840000BF2420C4F888002068066832
:102170002068006820F001002168086020688068FD
:1021800020F06040284321688860204601F030F844
:10219000206806602020C4F8880000BF002084F872
:1021A000840000BF00BFD9E7704770477047000048
:1021B0002DE9F04704462068C56920680668206854
:1021C000876840F60F0005EA0009B9F1000F0FD14A
:1021D00005F0200060B106F0200010B907F0805033
:1021E00030B1606F10B12046616F8847BDE8F0875D
:1021F000B9F1000F7ED0DF48384018B9DE483040D2
:102200000028F7D005F0010058B106F4807040B105
:10221000012021680862D4F8900040F00100C4F861
:10222000900005F0020058B107F0010040B1022013
:1022300021680862D4F8900040F00400C4F89000CF
:1022400005F0040058B107F0010040B104202168F6
:102250000862D4F8900040F00200C4F8900005F045
:10226000080070B106F0200010B9C248384040B1F3
:10227000082021680862D4F8900040F00800C4F8F3
:10228000900005F4006060B106F0806048B14FF442
:10229000006021680862D4F8900040F02000C4F883
:1022A0009000D4F89000002852D005F0200050B1E2
:1022B00006F0200010B907F0805020B1606F10B117
:1022C0002046616F8847D4F890A02068806800F0AD
:1022D0004000402802D00AF0280070B3204601F0E8
:1022E000AFF82068806800F04000402826D100BF89
:1022F00000BF00E02DE02168083151E8001F21F007
:1023000040002168083141E80002002AF1D100BFF5
:10231000D4F8800068B19948D4F880108863D4F864
:102320008000FEF740F898B1D4F88000816B8847B0
:102330000EE02046FFF73AFF0AE003E02046FFF7F1
:1023400035FF05E02046FFF731FF0020C4F890007C
:102350004CE7E06E012865D105F01000002861D03F
:1023600006F010000028FAD01020216808622068CA
:10237000806800F0400040287AD1D4F880000068DE
:1023800040681FFA80F8B8F1000F5CD0B4F85C0028
:10239000404558DDA4F85E80D4F8800000680068ED
:1023A00000F02000E8BB00BF00BF216851E8001F1B
:1023B00021F48070226842E800010029F5D100BFB5
:1023C00000BF00BF2168083151E8001F21F0010063
:1023D0002168083141E80002002AF3D100BF00BFA4
:1023E00000BF2168083151E8001F21F0400021683A
:1023F000083141E80002002AF3D100BF2020C4F8D0
:102400008C000020E06600BF00BF216851E8001F7B
:1024100021F01000226842E800010029F5D100BF38
:1024200001E004E068E0D4F88000FDF781FF0220BD
:102430002067B4F85C00B4F85E20801A81B22046B0
:10244000FFF752FE12E0B4F85C0040450ED1D4F81C
:1024500080000068006800F02000202806D10220DB
:102460002067B4F85C102046FFF73EFEBEE6FFE7AB
:1024700034F85C0F6188401A1FFA80F860885C3C71
:10248000C8B3B8F1000F36D000BF00BF216851E8D3
:10249000001F21F49070226842E800010029F5D164
:1024A00000BF00BF00BF2168083151E8001F314A5A
:1024B000D24301EA02002168083141E80002002A03
:1024C000F1D100BF2020C4F88C000020E0666067D6
:1024D00000BF00BF216851E8001F21F010002268F2
:1024E00042E800010029F5D100BF022020674146E3
:1024F0002046FFF7F9FD79E605F4801050B107F4A6
:10250000800038B14FF48010216808622046FFF740
:102510004CFE6BE605F0800058B106F0800010B963
:1025200007F4000028B1A06F10B12046A16F8847C2
:102530005CE605F0400030B106F0400018B12046DE
:1025400000F0B4FF52E605F4000030B106F0804020
:1025500018B12046FFF728FE48E605F0807030B13C
:1025600006F0004018B12046FFF7BFFD3EE600BF71
:102570003CE6000001000010200100042B3400089C
:1025800010B504460CB9012010BDA06900B100E0EF
:1025900000BFD4F8880028B9002084F884002046C1
:1025A00000F02AF82420C4F888002068006820F091
:1025B000010021680860A06A10B1204600F044FEC6
:1025C000204601F08DFA012800D1DDE7206840683F
:1025D00020F49040216848602068806820F02A003C
:1025E000216888602068006840F001002168086068
:1025F000204600F0A5FEC7E710B598B004461421A8
:1026000013A8FDF73DFE442102A8FDF739FE40491D
:10261000206888423BD1202002900020079002A829
:10262000FEF7C2FA08B1FDF780FE00BF3948C06D61
:1026300040F001003749C8650846C06D00F0010050
:10264000019000BF00BF00BF0846C06C40F0010011
:10265000C8640846C06C00F00100019000BF00BFD4
:102660000C201390022014900020159016900C203E
:10267000179013A94FF09040FDF7E0FE002211469D
:102680005B20FEF7A9F95B20FEF792F93DE02249B5
:102690002068884239D1012002900020039002A8CE
:1026A000FEF782FA08B1FDF740FE00BF1948006E40
:1026B00040F48040174908660846006E00F48040E8
:1026C000019000BF00BF00BF0846C06C40F0020090
:1026D000C8640846C06C00F00200019000BF00BF53
:1026E000C02013900220149000201590169007200F
:1026F000179013A90948FDF7A1FE0022012125200A
:10270000FEF76AF92520FEF753F918B010BD000056
:1027100000800040001002400038014000040048E2
:1027200070B504460D461646D4F88C00202821D1F9
:1027300005B10EB9012070BD0020E0660E49206889
:10274000884211D02068406800F4000060B100BFEA
:1027500000BF216851E8001F41F08060226842E814
:1027600000010029F5D100BF32462946204601F07C
:1027700079FBE0E70220DEE70080004070B5044608
:102780002749206888420ED1264805780122014653
:102790002548FFF7C5FF1B2D04D05B2D02D028462E
:1027A00001F0F2FD3AE021492068884236D1012249
:1027B0001F492048FFF7B4FF1D48007818B11C4896
:1027C0000078FF2800D170BD194800780A2803D08E
:1027D000174800780D280FD117480088002807DD1A
:1027E00000211648144A12888154012014490870A7
:1027F00000201149088011E00F4800883F280ADABC
:102800000B4801780C4802880088401C0A4B18804D
:102810000A48815402E000200749088000BFD2E73F
:1028200000800040050000203801002000380140F1
:102830000B000020CC010020080000202400002014
:102840000A0000202DE9F84F04460E461746994627
:10285000D4F88800202854D106B117B90120BDE86A
:10286000F88F00205434E06321206063FDF7D2FE2E
:10287000824627806780543CA068B0F5805F04D111
:10288000206910B90025B04602E035464FF0000837
:1028900020E05346002280212046CDF8009001F030
:1028A0008FFB20B12020C4F888000320D7E745B96A
:1028B000B8F80000C0F308002168886208F1020837
:1028C00003E02878216888626D1CB4F85600401E29
:1028D000A4F85600B4F856000028DAD15346002276
:1028E00040212046CDF8009001F06AFB20B1202065
:1028F000C4F888000320B2E72020C4F88800002034
:10290000ADE70220ABE7704700BFFEE710B5024815
:10291000FFF74EFC10BD00003801002000B587B065
:10292000142102A8FDF7ACFC00BF2D48C06C40F09C
:1029300004002B49C8640846C06C00F004000190F4
:1029400000BF00BF00BF0846C06C40F02000C86454
:102950000846C06C00F02000019000BF00BF00BF1F
:102960000846C06C40F00100C8640846C06C00F026
:102970000100019000BF00BF00BF0846C06C40F0DE
:102980000200C8640846C06C00F00200019000BF5D
:1029900000BF00224FF400511248FDF735FE00221F
:1029A00020214FF09040FDF72FFE4FF40050029091
:1029B0000120039000200490059002A90948FDF72A
:1029C0003DFD2020029001200390002004900590FE
:1029D00002A94FF09040FDF731FD07B000BD0000A7
:1029E000001002400008004810B51448144908605F
:1029F000144848600021124881600121C160002113
:102A0000016141618161C1610162FDF78DFE08B123
:102A1000FDF78BFC00210A48FDF702FE08B1FDF727
:102A200084FC00210648FDF730FE08B1FDF77DFC6F
:102A30004FF48010FDF75EFE10BD00000054004012
:102A4000E40000200F06524010B5174817490860EF
:102A50004FF4E1304860002114488160C160016199
:102A60000C214161002181610162416200200F4916
:102A700088620846FFF784FD08B1FDF756FC002187
:102A80000A48FFF762FB08B1FDF74FFC0021074839
:102A9000FFF72CFB08B1FDF748FC0448FFF7FDFAEF
:102AA00008B1FDF742FC10BD008000403801002055
:102AB00000B597B000201490159016901C210DA819
:102AC000FDF7DEFB34216846FDF7DAFB274828498D
:102AD0000860002048600021254881604FF6FF71A2
:102AE000C1600021016141618161FFF768F908B1AE
:102AF000FDF71BFC002014901590169014A91C489B
:102B0000FEF7CEFE08B1FDF710FC00200D900E90F0
:102B10000F90109011901290139000220DA914485C
:102B2000FFF704F908B1FDF700FC002000900190C8
:102B30000290039004904FF40050059000200690FE
:102B4000079008904FF00070099000200A900B90B9
:102B50000C9069460648FEF73BFE08B1FDF7E5FB21
:102B60000348FFF793F817B000BD0000002C0140A8
:102B70006002002000B58BB00020089009900A90F8
:102B80001C2101A8FDF77CFB4FF08040174908602D
:102B90001020486000211548816041F28731C160F2
:102BA000002101618161FFF71BFA08B1FDF7BDFB50
:102BB000002008900A9008A90C48FEF771FE08B1A1
:102BC000FDF7B3FB60200190002002900390059078
:102BD000082201A90548FFF74BF908B1FDF7A5FB4D
:102BE0000248FFF753F80BB000BD0000AC02002014
:102BF00010B51848184908604FF4E13048600021CA
:102C000015488160C16001610C2141610021816131
:102C1000C1610162416200200F4988620846FFF7E6
:102C2000AFFC08B1FDF781FB00210B48FFF78DFADF
:102C300008B1FDF77AFB00210748FFF757FA08B102
:102C4000FDF773FB0448FFF728FA08B1FDF76DFBA9
:102C500010BD000000380140CC01002000BFFEE79D
:102C600000BFFEE77047000070B5164DED6805F037
:102C70000304144DED68C5F303156B1C022C0CD036
:102C8000032C09D1104DB5FBF3F50E4EF668C6F3D3
:102C9000062605FB06F10AE000BF0C4DB5FBF3F577
:102CA000084EF668C6F3062605FB06F100BF00BF16
:102CB000044DED68C5F341656D1C6A00B1FBF2F08F
:102CC00070BD00000010024000127A000024F400E1
:102CD0007047704700B593B0382105A8FDF7D0FACA
:102CE00014216846FDF7CCFA0020FDF7C7FE01204D
:102CF00005904FF4A020069002200C9003210D9126
:102D000002210E9155210F91022110910421119160
:102D10000221129105A8FEF7A9FA08B1FDF705FBFB
:102D20000F20009003200190002002900390049057
:102D300004216846FEF7F0F808B1FDF7F6FA13B083
:102D400000BD00000348006840F4700001490860BD
:102D50007047000088ED00E010B50648006810B12B
:102D60000448FEF782FE0448006810B10248FEF7EE
:102D70007CFE10BD60020020F802002010B5026841
:102D80002A4B98420BD0B0F1804F08D0284B984284
:102D900005D0284B984202D0274B984203D122F00D
:102DA00070024B681A43214B984214D0B0F1804F07
:102DB00011D01F4B98420ED01E4B98420BD01E4B89
:102DC000984208D01D4B984205D01D4B984202D026
:102DD0001C4B984203D122F44072CB681A4322F074
:102DE00080034C6943EA040202608B68C3620B688B
:102DF00083620E4B98420BD00F4B984208D00F4B7A
:102E0000984205D00E4B984202D00E4B984201D109
:102E10000B69036301234361036903F001031BB1E1
:102E2000036923F00103036110BD0000002C014081
:102E30000004004000080040003401400040014010
:102E4000004401400048014030B5026A056A25F09F
:102E50000105056243688469204D2C4024F0030479
:102E60000D682C4322F002028D682A431C4DA842B3
:102E700000D10FE01B4DA84200D10BE01A4DA84233
:102E800000D107E0194DA84200D103E0184DA84237
:102E900006D100BF22F00802CD682A4322F00402C6
:102EA0000F4DA8420BD00F4DA84208D00E4DA8429E
:102EB00005D00E4DA84202D00D4DA84207D123F4F3
:102EC000807323F400734D692B438D692B4343605A
:102ED00084614D684563026230BD00008FFFFEFFD4
:102EE000002C0140003401400040014000440140FA
:102EF0000048014030B5026A056A25F010050562F8
:102F000043688469224D2C4024F440740D6844EADF
:102F1000052422F020028D6842EA05121D4DA842C8
:102F200000D10FE01C4DA84200D10BE01B4DA84280
:102F300000D100BF1A4DA84200D100BF194DA842D0
:102F400007D106E022F08002CD6842EA051222F0A5
:102F50004002104DA8420BD00F4DA84208D00F4D93
:102F6000A84205D00E4DA84202D00E4DA84209D16C
:102F700023F4806323F400634D6943EA85038D697C
:102F800043EA8503436084614D688563026230BD16
:102F9000FF8FFFFE002C0140003401400040014043
:102FA000004401400048014030B5026A056A25F43A
:102FB000807505624368C469224D2C4024F00304E7
:102FC0000D682C4322F400728D6842EA05221E4DE2
:102FD000A84200D10FE01D4DA84200D10BE01C4DCE
:102FE000A84200D100BF1B4DA84200D100BF1A4D1E
:102FF000A84207D106E022F40062CD6842EA052229
:1030000022F48062104DA8420BD0104DA84208D087
:103010000F4DA84205D00F4DA84202D00E4DA84238
:1030200009D123F4805323F400534D6943EA051377
:103030008D6943EA05134360C4614D68C56302624C
:1030400030BD00008FFFFEFF002C01400034014026
:1030500000400140004401400048014030B5026A90
:10306000056A25F4805505624368C469224D2C40E9
:1030700024F440740D6844EA052422F400528D685B
:1030800042EA05321D4DA84200D10FE01C4DA84276
:1030900000D10BE01B4DA84200D100BF1A4DA84241
:1030A00000D100BF194DA84207D106E022F400422A
:1030B000CD6842EA053222F48042104DA8420BD07E
:1030C0000F4DA84208D00F4DA84205D00E4DA84282
:1030D00002D00E4DA84209D123F4804323F40043CB
:1030E0004D6943EA85138D6943EA85134360C461E2
:1030F0004D680564026230BDFF8FFFFE002C014069
:1031000000340140004001400044014000480140BB
:1031100030B5026A056A25F4803505624368046D9E
:10312000114D2C400D682C4322F400320D8942EAE7
:1031300005420E4DA8420BD00D4DA84208D00D4DB2
:10314000A84205D00C4DA84202D00C4DA84204D193
:1031500023F480334D6943EA0523436004654D68D9
:103160008564026230BD00008FFFFEFF002C01402D
:10317000003401400040014000440140004801404B
:1031800030B5026A056A25F4801505624368046D4E
:10319000114D2C400D6844EA052422F400120D89DB
:1031A00042EA05520D4DA8420BD00D4DA84208D061
:1031B0000C4DA84205D00C4DA84202D00B4DA842A0
:1031C00004D123F480234D6943EA852343600465D9
:1031D0004D68C564026230BDFF8FFFFE002C0140C8
:1031E00000340140004001400044014000480140DB
:1031F00070B5456E2DB90125A0F86A50A0F8685049
:103200001CE0082308240568AD68C5F34261056821
:10321000AD686A0F0A4DAD5C15FB04F5094EB65C4E
:1032200095FBF6F5A0F86A50054D6D5C15FB03F5AE
:10323000044E765C95FBF6F5A0F8685070BD000072
:10324000104600081846000890F8281001F0080100
:10325000082907D10168496821F40041826B1143B4
:103260000268516090F8281001F0010139B101683D
:10327000496821F40031C26A11430268516090F834
:10328000281001F00201022907D10168496821F4E0
:103290008031026B11430268516090F8281001F0F0
:1032A0000401042907D10168496821F48021426B97
:1032B00011430268516090F8281001F010011029A4
:1032C00007D10168896821F48051C26B11430268FB
:1032D000916090F8281001F02001202907D10168A1
:1032E000896821F40051026C11430268916090F8E2
:1032F000281001F04001402913D10168496821F4E8
:103300008011426C114302685160416CB1F5801F1D
:1033100007D10168496821F4C001826C1143026839
:10332000516090F8281001F08001802907D10168D0
:10333000496821F40021C26C114302685160704752
:1033400038B504460020C4F89000FDF763F905463F
:103350002068006800F00800082821D16FF07E4046
:103360002B4600224FF400110090204600F028FE6A
:10337000B0B100BF00BF216851E8001F21F08000FC
:10338000226842E800010029F5D100BF2020C4F8DE
:10339000880000BF002084F8840000BF032038BDEF
:1033A0002068006800F00400042830D16FF07E40EF
:1033B0002B4600224FF480010090204600F000FED2
:1033C00028B300BF00BF216851E8001F21F49070AE
:1033D000226842E800010029F5D100BF00BF00BF0C
:1033E0002168083151E8001F21F0010021680831EF
:1033F00041E80002002AF3D100BF2020C4F88C006D
:1034000000BF002084F8840000BF0320C7E720200D
:10341000C4F88800C4F88C000020E066206700BF74
:1034200084F8840000BF00BFB9E770B50446A56A00
:103430000020A5F85E002846FEF7B8FE70BD00002B
:1034400000BF00BF026852E8002F22F490710368A9
:1034500043E80012002AF5D100BF00BF00BF026898
:10346000083252E8002F104B02EA030102680832CA
:1034700042E80013002BF2D100BFC16E01290CD12C
:1034800000BF00BF026852E8002F22F0100103685D
:1034900043E80012002AF5D100BF2021C0F88C10AB
:1034A0000021C16641677047FEFFFFEF10B504467B
:1034B00000BF00BF216851E8001F21F040002268D2
:1034C00042E800010029F5D100BF2020C4F888009F
:1034D0000020A0672046FFF716FA10BD2DE9F04145
:1034E0000446B4F86070D4F88C0022286ED12068AD
:1034F000406A86B2A56D06EA07002880A06D801C90
:10350000A065B4F85E00401EA4F85E00B4F85E004A
:10351000002861D100BF00BF216851E8001F21F4DD
:103520009070226842E800010029F5D100BF00BF79
:1035300000BF2168083151E8001F21F00100216817
:10354000083141E80002002AF3D100BF2020C4F86E
:103550008C0000206067206720492068884211D0D5
:103560002068406800F4000060B100BF00BF21681F
:1035700051E8001F21F08060226842E80001002924
:10358000F5D100BFE06E01281CD10020E06600BF2D
:1035900000BF216851E8001F21F01000226842E8B6
:1035A00000010029F5D100BF2068C069C0F30010F8
:1035B00010B1102021680862B4F85C102046FEF7B4
:1035C00093FD09E02046FFF7D9F805E020688069FF
:1035D00040F0080021688861BDE8F081008000406B
:1035E0002DE9F84F0446B4F860B02068C56920683A
:1035F000006800902068D0F808A0D4F88C00222839
:103600007ED1B4F86890AEE02068406A1FFA80F876
:10361000A76D08EA0B003880A06D801CA065B4F887
:103620005E00401EA4F85E002068C56905F0070032
:10363000B0B305F0010060B1009800F4807040B1B3
:10364000012021680862D4F8900040F00100C4F81D
:10365000900005F0020058B10AF0010040B10220CC
:1036600021680862D4F8900040F00400C4F890008B
:1036700005F0040058B10AF0010040B104202168AF
:103680000862D4F8900040F00200C4F89000D4F82A
:10369000900028B12046FEF789FD0020C4F8900074
:1036A000B4F85E0000285ED100BF00BF216851E879
:1036B000001F21F48070226842E800010029F5D142
:1036C00000BF00BF00BF2168083151E8001F414A18
:1036D00001EA02002168083141E80002002AF2D123
:1036E00000BF2020C4F88C000020606720673A49A2
:1036F0002068884213D02068406800F4000000E091
:103700005FE060B100BF00BF216851E8001F21F0F9
:103710008060226842E800010029F5D100BFE06E18
:1037200001281CD10020E06600BF00BF216851E8DD
:10373000001F21F01000226842E800010029F5D1A5
:1037400000BF2068C069C0F3001010B110202168CC
:103750000862B4F85C102046FEF7C6FC02E0204682
:10376000FFF70CF807E0B9F1000F04D005F02000D6
:1037700000287FF449AF00BFB4F85E6006B3B4F828
:103780006800B04223DD00BF00BF2168083151E866
:10379000001F21F080502168083141E80002002A12
:1037A000F3D100BF0D48606700BF00BF216851E83A
:1037B000001F41F02000226842E800010029F5D1F5
:1037C00005E02068806940F0080021688861BDE854
:1037D000F88F0000FEFFFFEF00800040DD3400089E
:1037E00070B50446B4F86060D4F88C0022286FD11C
:1037F0002068406A85B2F0B22840A16D0870A06DC3
:10380000401CA065B4F85E00401EA4F85E00B4F849
:103810005E00002862D100BF00BF216851E8001F90
:1038200021F49070226842E800010029F5D100BF20
:1038300000BF00BF2168083151E8001F21F00100DE
:103840002168083141E80002002AF3D100BF20209E
:10385000C4F88C00002060672067214920688842F6
:1038600011D02068406800F4000060B100BF00BFC4
:10387000216851E8001F21F08060226842E80001C1
:103880000029F5D100BFE06E01281CD10020E066C0
:1038900000BF00BF216851E8001F21F0100022681E
:1038A00042E800010029F5D100BF2068C069C0F3DB
:1038B000001010B1102021680862B4F85C10204696
:1038C000FEF712FC0AE02046FEF758FF06E0FFE78D
:1038D0002068806940F008002168886170BD0000A0
:1038E000008000402DE9F05F0446B4F860A0206835
:1038F000C5692068D0F800B02068D0F80890D4F8E6
:103900008C0022287ED1B4F86880ADE02068406A3F
:1039100087B20AF0FF003840A16D0870A06D401C0E
:10392000A065B4F85E00401EA4F85E002068C5697A
:1039300005F00700A8B305F0010058B10BF4807042
:1039400040B1012021680862D4F8900040F00100E5
:10395000C4F8900005F0020058B109F0010040B130
:10396000022021680862D4F8900040F00400C4F8F6
:10397000900005F0040058B109F0010040B10420A6
:1039800021680862D4F8900040F00200C4F890006A
:10399000D4F8900028B12046FEF708FC0020C4F8B7
:1039A0009000B4F85E0000285ED100BF00BF21681F
:1039B00051E8001F21F48070226842E800010029CC
:1039C000F5D100BF00BF00BF2168083151E8001FDA
:1039D000404A01EA02002168083141E80002002A59
:1039E000F2D100BF2020C4F88C000020606720675F
:1039F00039492068884213D02068406800F40000EC
:103A000070B100E05EE000BF00BF216851E8001F18
:103A100021F08060226842E800010029F5D100BF52
:103A2000E06E01281CD10020E06600BF00BF2168C5
:103A300051E8001F21F01000226842E8000100292F
:103A4000F5D100BF2068C069C0F3001010B110208C
:103A500021680862B4F85C102046FEF745FB02E0DE
:103A60002046FEF78BFE07E0B8F1000F04D005F00A
:103A7000200000287FF44AAF00BFB4F85E6006B3B0
:103A8000B4F86800B04223DD00BF00BF21680831F0
:103A900051E8001F21F080502168083141E8000200
:103AA000002AF3D100BF0D48606700BF00BF216846
:103AB00051E8001F41F02000226842E8000100297F
:103AC000F5D105E02068806940F008002168886130
:103AD000BDE8F09FFEFFFFEF00800040E1370008E7
:103AE0002DE9FE4F044600200290D4492068884208
:103AF00000D100E000BF2169A06808436169084364
:103B0000E16940EA010820680068CD49084040EAC0
:103B10000800216808602068406820F44050E1688F
:103B2000084321684860D4F81880C4492068884256
:103B300002D0206A40EA080820688068C14908402D
:103B400040EA0800216888602068C06A20F00F0001
:103B5000616A08432168C86200BFBB492068884287
:103B600016D1BA48006800F0030030B1012808D02F
:103B7000022804D0032808D105E0012507E002252A
:103B800005E0042503E0082501E0102500BF6FE0F3
:103B9000AF492068884216D1AC48006800F00C009C
:103BA00030B1042808D0082804D00C2808D105E03A
:103BB000002507E0022505E0042503E0082501E0D3
:103BC000102500BF54E0A3492068884216D19F48C1
:103BD000006800F0300030B1102808D0202804D050
:103BE000302808D105E0002507E0022505E004257E
:103BF00003E0082501E0102500BF39E09649206860
:103C0000884216D19148006800F0C00030B14028C9
:103C100008D0802804D0C02808D105E0002507E09E
:103C2000022505E0042503E0082501E0102500BF7A
:103C30001EE082492068884219D18448006800F457
:103C4000406048B1B0F5806F0AD0B0F5006F05D084
:103C5000B0F5406F08D105E0002507E0022505E03A
:103C6000042503E0082501E0102500BF00E0102531
:103C700000BF72492068884259D135B1022D08D061
:103C8000042D08D0082D0DD109E0FDF77FFA064676
:103C90000CE0724E0AE0FDF79DFA064606E04FF48E
:103CA000004603E000260120029000BF00BF002E66
:103CB00010D06B49606A31F81000B6FBF0F960680B
:103CC00000EB4000484503D860680003484502D235
:103CD00001200290A6E06249606A31F810C0624695
:103CE000002330461946FCF793FA4FF4807C0022FB
:103CF000A0FB0C3B01FB0CB100FB0211606840080B
:103D000018185141CDE90001D4F804C062460023DF
:103D1000FCF77EFA0746B7F5407F05D3B7F5801F5D
:103D200002D22068C7607DE0012002907AE0E0695D
:103D3000B0F5004F3FD1092D17D2DFE805F0050996
:103D40000D160F1616161300FDF720FA064610E0A2
:103D5000FDF72EFA06460CE0404E0AE0FDF73AFA6F
:103D6000064606E04FF4004603E0002601200290DC
:103D700000BF00BF86B33A49606A31F81000B6FB55
:103D8000F0F04000616800EB5100B0FBF1F7102F3C
:103D90000ED3B7F5803F0BD24FF6F07007EA000A5A
:103DA000C7F342004AEA000A2068C0F80CA039E0D4
:103DB0000120029036E0092D18D2DFE805F0050950
:103DC0000E17101717171400FDF7E0F9064611E05B
:103DD000FDF7EEF906460DE024E0204E0AE0FDF77F
:103DE000F9F9064606E04FF4004603E000260120FC
:103DF000029000BF00BFAEB11949606A31F81000EF
:103E0000B6FBF0F0616800EB5100B0FBF1F7102F4A
:103E100006D3B7F5803F03D2B8B22168C86001E08D
:103E2000012002900120A4F86A00A4F86800002094
:103E30006067A0670298BDE8FE8F00000080004028
:103E4000F369FFCFFFF4FF110038014088100240F2
:103E50000044004000480040004C00400024F400B2
:103E6000F845000830B503469965A3F85C20A3F82F
:103E70005E200020586700BF9868B0F5805F0AD1C7
:103E8000186920B940F2FF10A3F8600020E0FF207D
:103E9000A3F860001CE0986848B9186918B9FF20B9
:103EA000A3F8600014E07F20A3F8600010E0986899
:103EB000B0F1805F09D1186918B97F20A3F86000BC
:103EC00006E03F20A3F8600002E00020A3F86000B5
:103ED00000BF0020C3F890002220C3F88C0000BF70
:103EE00000BF1C68083454E8004F44F001001C680F
:103EF000083444E80005002DF3D100BF586EB0F13E
:103F0000005F2CD1B3F86800904228DC9868B0F5C7
:103F1000805F04D1186910B92548586701E0254829
:103F20005867186960B100BF00BF1C6854E8004FB3
:103F300044F480701D6845E80004002CF5D100BFF2
:103F400000BF00BF1C68083454E8004F44F08050A4
:103F50001C68083444E80005002DF3D126E0986879
:103F6000B0F5805F04D1186910B91348586701E0B3
:103F700012485867186960B100BF00BF1C6854E858
:103F8000004F44F490701D6845E80004002CF5D102
:103F90000CE000BF00BF1C6854E8004F44F0200054
:103FA0001D6845E80004002CF5D100BF002030BD9D
:103FB000E1350008E5380008DD340008E137000885
:103FC0002DE9F04104460D4617469846069E41E00D
:103FD000701C00283ED0FCF71DFBA0EB0800B0428F
:103FE00000D816B90320BDE8F0812068006800F011
:103FF000040070B3802D2DD0402D2BD02068C069D7
:10400000C0F3C00078B10820216808622046FFF79D
:1040100017FA0820C4F8900000BF002084F884003C
:1040200000BF0120DFE72068C069C0F3C02080B175
:104030004FF40060216808622046FFF701FA202053
:10404000C4F8900000BF002084F8840000BF032063
:10405000C9E7FFE72068C0692840A84201D10120D4
:1040600000E00020B842B3D00020BCE710B5024801
:10407000FEF79EF810BD0000CC01002000BFFEE757
:104080000FB4054B10B503A9044A029800F034F8A8
:1040900010BC5DF814FB00006D43000820000020F8
:1040A00002480068C0F30220704700000CED00E0F9
:1040B00010B5002804DB0A07130E054A135406E066
:1040C0000A07140E034A00F00F031B1FD45410BD3F
:1040D00000E400E018ED00E002E008C8121F08C18B
:1040E000002AFAD170477047002001E001C1121F79
:1040F000002AFBD1704700002DE9FF4F8BB09A4694
:104100000F460546002606E025280BD052460D999D
:1041100090476D1C761C28780028F5D10FB03046EA
:10412000BDE8F08F0024A0460122604900E004436E
:1041300015F8013F203B02FA03F00842F7D1287836
:104140002E2817D115F8010F44F004042A280ED0A8
:104150006FF02F022878A0F1300109290AD808EB66
:10416000880102EB410100EB01086D1CF2E757F8F2
:10417000048B6D1C287869283ED006DC0028CDD041
:1041800063280BD0642804D136E0732810D075283A
:104190004BD052460D999047761C85E017F8040BDA
:1041A0008DF8000000208DF80100E946012003E0B1
:1041B00057F8049B4FF0FF3061074FF0000401D423
:1041C0000AE0641C44450DDA8442FADB19F8041055
:1041D0000029F6D106E0641C8442FCDB19F80410C7
:1041E0000029F8D1264404E019F8010B52460D9934
:1041F0009047641EF8D257E001CF4FF00A0B002819
:1042000002DA40422D2102E0210504D52B218DF850
:104210002410012103E0E10705D02021F7E70DF18B
:10422000200908910CE00021F9E701CF4FF00A0BBB
:10423000F9E75946FCF72FF801F1300209F8012D92
:104240000028F6D1ADEB090000F1200B600701D486
:104250004FF00108D84502DDA8EB0B0000E000207C
:104260008046002406E009A85246005D0D9990475B
:10427000641C761C08988442F5DB04E0302052462A
:104280000D999047761CB8F10001A8F10108F5DC02
:1042900005E019F8010B52460D999047761CBBF1C9
:1042A0000001ABF1010BF4DC6D1C34E709280100BF
:1042B00010B50DA0FFF7E4FE0DA0FFF7E1FE00240E
:1042C00008E0134800EB44121248015D12A0FFF70A
:1042D000D7FE641C042CF4DB12A0FFF7D1FE19A05A
:1042E000FFF7CEFE10BD00001B5B324A1B5B48008F
:1042F0003D3D3D3D3D3D3D3D3D3D2054414C4F53B9
:10430000203D3D3D3D3D3D3D3D3D3D0D0A00000014
:1043100078450008010000202563202025730D0A40
:10432000000000003D3D3D3D3D3D3D3D3D3D3D3DB1
:104330003D3D3D3D3D3D3D3D3D3D3D3D3D3D3D0DDD
:104340000A000000757020646F776E20627920612A
:1043500072726F77206B65792C2073656C6563745E
:1043600020627920656E7465720D0A0013B50C46E3
:104370004FF0FF33012269460248FEF763FA0098C6
:104380001CBD00003801002038B50446412C01D086
:10439000442C17D12B480078002807DD29480078E5
:1043A000401E2849087000F0D5F805E026A0FFF768
:1043B00067FE00202349087030A0FFF761FEFFF779
:1043C00077FF3EE0422C01D0432C14D11D480078E9
:1043D000032807DA1B480078401C1A49087000F0CF
:1043E000B9F802E003201749087024A0FFF748FE3F
:1043F000FFF75EFF25E00D2C11D112480178491C12
:1044000020A0FFF73DFE0F4800783030C0B200908A
:104410006423012269462248FEF714FA11E0032CB6
:104420000FD100200749087000F094F8FFF740FF13
:104430001CA0FFF725FE6423012222491848FEF73D
:1044400001FA38BD00000020696E70757420657235
:10445000726F722C746865206D6F64652063616E85
:10446000206F6E6C792062652063686F73652062CF
:1044700065747765656E20317E3400001B5B324ABF
:104480001B5B48000D0A697320646F696E672074B6
:104490006865206D6F64653A25640D0A00000000B0
:1044A000CC0100200D0A63757420646F776E207450
:1044B00068652063686F73656E206D6F64650D0AB3
:1044C0000000000006000020FCF7F2F9FEF702FCF5
:1044D000FEF724FAFEF78CFBFEF7B6FAFEF784FA35
:1044E000FEF748FBFEF7E4FA00F034F8FFF7E0FED1
:1044F00001220B490B48FEF713F901220A490B4828
:10450000FEF70EF90AE00A480078012806D10949A9
:1045100009A0FFF7B5FD002005490870F3E700008A
:1045200005000020380100200B000020CC010020F5
:104530000A0000202400002072656365697665200A
:1045400066726F6D204F70656E4D563A25730D0A79
:1045500000000000002003E02021054A1154401C07
:104560000428F9DB2A200249024A1278885470474D
:104570000100002000000020312E204F70656E4D9C
:104580005620316579652064697374616E636520B6
:104590006465746163740000322E205049442063C6
:1045A0006F6E74726F6C204D47393020616C696793
:1045B0006E2063616D000000332E206F757470757E
:1045C0007420746F20666C61736800000000000046
:1045D0000000000000000000342E20657261736549
:1045E00020666C617368000000000000000000009D
:1045F00000000000000000000100020004000600AE
:1046000008000A000C00100020004000800000019B
:10461000010101030701000008040204080101016F
:104620000000000000000000010203040607080962
:1046300000000000010203045846000800000020AA
:1046400024000000D84000087C4600082400002018
:1046500024070000E84000080000000000000000FF
:10466000000000000000000000000000100000003A
:0C467000010000000024F4000000000025
:04000005080001D915
:00000001FF
