:020000040800F2
:10000000B0070020ED010008C1380008F9340008ED
:10001000BD38000809030008314F00080000000047
:10002000000000000000000000000000853B000808
:100030001F03000800000000C5380008873B0008C7
:10004000070200080702000807020008070200086C
:10005000070200080702000807020008070200085C
:10006000070200080702000807020008070200084C
:10007000070200080702000807020008070200083C
:10008000070200080000000007020008070200083D
:10009000070200080702000807020008070200081C
:1000A0000D3C0008070200080702000807020008CC
:1000B00007020008070200080702000807020008FC
:1000C00007020008070200080702000807020008EC
:1000D00007020008214F0008070200080702000875
:1000E00007020008070200080702000807020008CC
:1000F00007020008070200080702000800000000CD
:1001000000000000070200080000000007020008CD
:1001100007020008000000000702000807020008AC
:10012000070200080702000807020008070200088B
:10013000070200080000000000000000070200089D
:10014000070200080702000800000000000000008D
:10015000000000000000000000000000000000009F
:10016000000000000000000000000000070200087E
:10017000070200080000000000000000000000006E
:10018000000000000702000800000000000000005E
:10019000000000000000000000000000000000005F
:1001A000000000000000000007020008FD34000805
:1001B000070200080702000807020008000000000C
:1001C000000000000702000800000000000000001E
:1001D0000702000807020008DFF80CD000F082F8E0
:1001E0000048004745560008B007002006488047F1
:1001F00006480047FEE7FEE7FEE7FEE7FEE7FEE70C
:10020000FEE7FEE7FEE7FEE7F93B0008D90100083C
:100210002DE9F05F0546002092469B46884606463B
:10022000814640241BE0284641464746224600F0CE
:1002300048F853465A46C01A914110D31146184601
:10024000224600F02FF82D1A67EB01084F46224690
:100250000120002100F026F817EB00094E41201E76
:10026000A4F10104DFDC484631462A464346BDE896
:10027000F09FD2B201E000F8012B491EFBD270477B
:100280000022F6E710B513460A4604461946FFF762
:10029000F0FF204610BD421C10F8011B0029FBD1C5
:1002A000801A7047202A04DB203A00FA02F100206D
:1002B00070479140C2F1200320FA03F319439040A4
:1002C0007047202A04DB203A21FA02F0002170470F
:1002D00021FA02F3D040C2F12002914008431946AE
:1002E00070470000064C074D06E0E06840F001034F
:1002F00094E8070098471034AC42F6D3FFF770FF3C
:100300009C570008BC57000800BFFEE7002001E032
:1003100000BF401C4DF6C0218842F9D3704770479A
:1003200072B600BFFEE700001CB50020019000225D
:1003300001210D4800F0FAFB052000906423012202
:1003400069460A4801F039FE6423012201A90748E1
:1003500001F074FD01221146034800F0E7FB9DF80F
:10036000040000F001001CBD0004004864020020ED
:10037000F8B5044600F036F91BA000680090200C88
:100380008DF80100200A8DF80200E0B28DF803001C
:1003900000220121154800F0C9FB642304226946AC
:1003A000134801F00AFE01221146104800F0BEFB7E
:1003B000002509E0FFF7AAFF6D1CB5F5FA7F03D908
:1003C0000CA004F0B7FD03E0FFF7AEFF0028F1D169
:1003D00000BF00201249086000F034F8064631469C
:1003E00010A004F0A7FDF8BD2000000000040048A4
:1003F00064020020466C6173682045726173652059
:1004000054696D656F75742120436865636B205373
:10041000504920636F6E6E656374696F6E0D0A00DC
:1004200010000020457261736520636865636B3A54
:10043000206164647230203D203078253032580DC0
:100440000A0000001CB5044612A000680190200CB0
:100450008DF80500200A8DF80600E0B28DF807003F
:10046000002201210C4800F061FB6423042201A951
:100470000A4801F0A2FD642301226946074801F001
:10048000DDFC01221146044800F050FB9DF80000FD
:100490001CBD0000030000000004004864020020AE
:1004A0002DE9F04106460D46174617B90020BDE874
:1004B000F08100240020287009E03046FFF7C2FFD9
:1004C0002855285D00B908E0601C84B2761C781EAF
:1004D000A04202DDB6F5805FEFD300BF00202855B3
:1004E0002046E4E77CB504460D4600F07BF813A1F6
:1004F00003C9CDE90001200C8DF80100200A8DF818
:100500000200E0B28DF803008DF8045000220121B2
:100510000C4800F00BFB6423052269460A4801F0F1
:100520004CFD01221146074800F000FB01E0FFF7F7
:10053000EDFEFFF7F9FE0028F9D17CBD02000000B6
:100540000000000000040048640200202DE9F84388
:100550000446884616460EB9BDE8F883002537E004
:10056000E0B2C0F58079701B484501D2701B00E0F5
:10057000484687B200F036F817A000680090200CBB
:100580008DF80100200A8DF80200E0B28DF803001A
:1005900000220121114800F0C9FA642304226946AF
:1005A0000F4801F00AFD08EB050164233A460C48A8
:1005B00001F003FD01221146084800F0B7FA00BF20
:1005C000FFF7B2FE0028FBD13C44E81985B200BF1A
:1005D000B542C5DB00BFBFE70200000000040048D1
:1005E0006402002008B5062000900022012108487E
:1005F00000F09CFA642301226946064801F0DDFC04
:1006000001221146024800F091FAFFF77FFE08BD73
:10061000000400486402002070B504460E463046CF
:10062000FFF739FE85B26019401CB0F5805F03D931
:1006300007A004F07FFC70BD2A4631462046FFF734
:1006400085FF60190021FFF74DFF00BFF3E70000B1
:10065000466C6173683A204E6F2073706163652049
:10066000666F7220737472696E670D0A0000000075
:1006700010B51348FFF70FFE84B21CB911A004F0A7
:1006800059FC10BD164800682044401CB0F5805F3E
:1006900003D914A004F04EFCF3E7094910480068A0
:1006A000FFF7BAFF0E480168601C08440C49086057
:1006B00008460349026816A004F03CFC00BFE0E7CE
:1006C00028000020466C6173683A20456D7074798B
:1006D00020737472696E672C20736B69700D0A0049
:1006E00010000020466C6173683A20536563746F94
:1006F000722066756C6C212043616E2774207772BE
:10070000697465206D6F726520646174610D0A0003
:10071000466C617368207772697474656E3A20253F
:1007200073207C204E65787420616464723A2025C1
:100730006C750D0A0000000070B592B01AA004F0AC
:10074000F9FB2148006818B920A004F0F3FB25E06C
:100750000024012613E0402202A92046FFF7A0FE54
:10076000054605B912E03146721C96B2234602AA2C
:100770001DA0009504F0DEFB681C044400BF124875
:100780000068844202D2B4F5805FE4D300BF711EDA
:100790000D4802681EA004F0CDFB00BF26A004F0A7
:1007A000C9FB12B070BD00000D0A3D3D3D3D204625
:1007B0006C61736820416C6C2044617461203D3D24
:1007C0003D3D0D0A00000000100000204E6F206427
:1007D0006174612073746F72656420696E20466C69
:1007E000617368210D0A0000537472696E672025D9
:1007F000643A2025732028616464723A20256C7560
:100800002C206C656E3A202575290D0A0000000029
:10081000546F74616C20737472696E67733A20252B
:1008200064207C20557365642062797465733A2076
:10083000256C750D0A0000000D0A3D3D3D3D3D3D16
:100840003D3D3D3D3D3D3D3D3D3D3D3D3D3D3D3DD8
:100850003D0D0A000146002091F82520022A03D010
:100860000422CA63012027E00A68126822F00E02FF
:100870000B681A608A6C126822F480728B6C1A60A2
:100880000A68126822F001020B681A6091F844208D
:1008900002F01F0301229A400B6C5A60D1E9133217
:1008A0005A604A6D42B14A6D126822F480724B6DF3
:1008B0001A60D1E916325A60012281F8252000BF62
:1008C000002281F8242000BF704770B5044600253F
:1008D00094F8250002280BD00420E063012084F85E
:1008E000250000BF002084F8240000BF012534E06B
:1008F0002068006820F00E00216808602068006809
:1009000020F0010021680860A06C006820F480706D
:10091000A16C086094F8440000F01F010120884099
:10092000216C4860D4E913104860606D40B1606D7F
:10093000006820F48070616D0860D4E9161048608A
:10094000012084F8250000BF002084F8240000BFA7
:10095000A06B10B12046A16B8847284670BD0000EF
:1009600078B502460B460021CAE001268E401D687C
:1009700005EA0604002C73D01D7905F00305012D4E
:1009800004D01D7905F00305022D13D190684E00A7
:100990000325B540A8434E00DD68B540284390606C
:1009A000506801258D40A8431D79C5F300158D4081
:1009B000284350601D7905F00305032D09D0D06848
:1009C0004E000325B540A8434E009D68B54028431E
:1009D000D0601D7905F00305022D13D1CE0802F178
:1009E000200555F826004D07EE0E0F25B540A8430B
:1009F0004E07F60E1D69B5402843CE0802F12005CA
:100A000045F8260010684E000325B540A8431D791F
:100A100005F003054E00B540284310605D6805F4FD
:100A20004035002D6BD000BF384D2D6E45F00105CF
:100A3000364E356635462D6E05F00105009500BF32
:100A400000BF4FEAB6358E0855F826008D072E0FE9
:100A50000F25B540A843B2F1904F02D100251AE00E
:100A60004DE02B4DAA4201D1012514E0294DAA42A7
:100A700001D102250FE0284DAA4201D103250AE049
:100A8000264DAA4201D1042505E0254DAA4201D1F7
:100A9000052500E006258E07360FB5402843214D79
:100AA0008E0845F82600204D2868A0435D6805F4AF
:100AB000801505B120431C4D28602D1D2868A043DA
:100AC0005D6805F4001505B12043174D2D1D286004
:100AD000154D2D1F2868A0435D6805F4003505B14C
:100AE0002043114D2D1F28602D1F2868A0435D68ED
:100AF00005F4803505B120430B4D083D2860491CA5
:100B00001D68CD40002D7FF430AF78BD001002404D
:100B10000004004800080048000C0048001000488D
:100B20000014004808000140080401400AB1816136
:100B300000E08162704700000148006870470000D3
:100B400014000020024692F8410020282DD100BF59
:100B500092F84000012801D102207047012082F85C
:100B6000400000BF242082F841001068006820F097
:100B70000100136818601068006820F48050136842
:100B800018601068006808431368186010680068EF
:100B900040F0010013681860202082F8410000BF77
:100BA000002082F8400000BFD7E70220D5E710B54B
:100BB00002460B4692F8410020282AD100BF92F845
:100BC0004000012801D1022010BD012082F8400020
:100BD00000BF242082F841001068006820F0010066
:100BE000146820601068016821F4706141EA0321F3
:100BF000106801601068006840F00100146820600F
:100C0000202082F8410000BF002082F8400000BF91
:100C1000DAE70220D8E7000008B500BF0949096EED
:100C200041F00101074A11661146096E01F0010108
:100C3000009100BF00BF044949680143024A516066
:100C400008BD0000001002400000014010B504463D
:100C50000CB9012010BD94F8410028B9002084F897
:100C60004000204600F05EF8242084F8410020680F
:100C7000006820F0010021680860606820F0706062
:100C8000216808612068806820F40040216888603D
:100C9000E068012805D1A06840F400402168886020
:100CA00004E0A06840F4044021688860E0680228FD
:100CB00006D12068406840F400602168486005E083
:100CC0002068406820F4006021684860206840681F
:100CD00013490843216848602068C06820F4004038
:100CE0002168C860D4E904010843A16940EA0120F1
:100CF0002168C860D4E907010843216808602068BA
:100D0000006840F001002168086000206064202035
:100D100084F841000020206384F8420000BF99E776
:100D20000080000210B598B00446142113A8FFF704
:100D3000A7FA442102A8FFF7A3FA1D4920688842B8
:100D400034D1402002900020089002A800F0BEF9A3
:100D500008B1FFF7E5FA00BF1648C06C40F002008A
:100D60001449C8640846C06C00F00200019000BF3E
:100D700000BF4FF440701390122014900120159082
:100D8000002016900420179013A90B48FFF7E8FDE8
:100D900000BF0848806D40F4001006498865084689
:100DA000806D00F40010019000BF00BF18B010BDAE
:100DB000005400400010024000040048034800684E
:100DC000034909680844014908607047140000207D
:100DD0001C00002010B50024032000F0CDF80F20E7
:100DE00000F008F808B1012401E000F051F82046B5
:100DF00010BD0000F0B587B004460026002700BFF4
:100E00001E48006E40F480301C4908660846006E9B
:100E100000F48030009000BF00BF01A902A800F0DC
:100E20001FFC00F057FC06461548B6FBF0F0471EC5
:100E300014481549086040F2E7311348C160476023
:100E400000210161816001F080FB054695B90E48E3
:100E500001F0B4FB05466DB9182000F03BF8102CEA
:100E600007D200222146182000F048F80748046005
:100E700000E00125284607B0F0BD00000010024048
:100E800040420F0000400140600300201800002095
:100E900008B500BF0E48006E40F001000C4908661E
:100EA0000846006E00F00100009000BF00BF00BFC8
:100EB0000846806D40F0805088650846806D00F0DF
:100EC0008050009000BF00BF00F0F6F808BD0000A1
:100ED000001002400146084600280DDB00BF00BF9D
:100EE00000F01F0301229A4043099B0003F1E02315
:100EF000C3F8002100BF00BF00BF70472DE9F05FBD
:100F000080460D46164604F025F8074639462A461F
:100F1000334601F00700C0F1070ABAF1040F02D905
:100F20004FF0040A01E0C0F1070AD14600F1040ABB
:100F3000BAF1070F02D24FF0000A01E0A0F1030A54
:100F4000D4464FF0010A0AFA09FAAAF1010A0AEA9C
:100F5000020A0AFA0CFA4FF0010B0BFA0CFBABF188
:100F6000010B0BEA030B4AEA0B042146404603F04F
:100F7000F9FFBDE8F09F000000BF00F00702064B3C
:100F800019684FF6FF031940044B0B4343EA022153
:100F9000014B196000BF70470CED00E00000FA053E
:100FA00002468ABB4148006800F4C060B0F5806F1B
:100FB0002BD13E488030006820F480703B4BC3F852
:100FC00080001846006820F4C06040F4007018608B
:100FD0003748006832235843364BB0FBF3F0411CCE
:100FE00000E0491E3148406900F48060B0F5806F30
:100FF00001D10029F5D12D48406900F48060B0F599
:10100000806F51D10320704708E028488030006885
:1010100020F48070254BC3F8800045E0B2F5007FD6
:101020003AD12248006800F4C060B0F5806F2AD140
:101030001E488030006840F480701C4BC3F880006C
:101040001846006820F4C06040F40070186018482A
:10105000006832235843174BB0FBF3F0411C00E00B
:10106000491E1248406900F48060B0F5806F01D1DC
:101070000029F5D10D48406900F48060B0F5806F1B
:1010800012D10320BFE709488030006840F4807027
:10109000064BC3F8800007E00448006820F4C060F5
:1010A00040F48060014B18600020ACE70070004005
:1010B0002000002040420F000348806840F4804038
:1010C0000149886070470000007000402DE9F84336
:1010D00004460027B846206800F40020B0F5002F31
:1010E00073D1B946D348806D00F0805078B900BF05
:1010F000D048806D40F08050CE4988650846806DAC
:1011000000F08050009000BF00BF4FF00109CA48B6
:10111000006840F48070C8490860FFF70DFD06467E
:1011200006E0FFF709FD801B022801D9032705E02F
:10113000C148006800F480700028F2D000BF002F82
:1011400046D1BC489030006800F44075CDB1206CA9
:10115000A84216D0B7489030006820F44075B548D2
:10116000D0F8900040F48030B249C1F890000846B1
:10117000D0F8900020F48030C1F890000846C0F804
:10118000905005F00100A0B1FFF7D6FC064608E03C
:10119000FFF7D2FC801B41F28831884201D9032736
:1011A00006E0A4489030006800F002000028EFD06C
:1011B00000BF5FB99F489030006820F44070216CF8
:1011C00008439C49C1F8900003E00CE0B84600E0F9
:1011D000B846B9F1010F05D19648806D20F08050D6
:1011E0009449886500BF207800F0010048B191481B
:1011F0008830006820F00300616808438D49C1F819
:101200008800207800F00200022809D1894888303F
:10121000006820F00C00A16808438649C1F88800E6
:10122000207800F00400042809D182488830006842
:1012300020F03000E16808437E49C1F8880020783A
:1012400000F00800082809D17A488830006820F0AA
:10125000C000216908437749C1F88800207800F070
:101260002000202809D173488830006820F44060AD
:10127000616908436F49C1F88800207800F0400098
:10128000402809D16B488830006820F44050A1699B
:1012900008436849C1F88800207800F08000802861
:1012A00009D164488830006820F44040E16908436F
:1012B0006049C1F88800208800F48070B0F5807F14
:1012C00009D15C488830006820F44030216A084326
:1012D0005849C1F88800208800F40070B0F5007FFC
:1012E00009D154488830006820F44020616A0843DE
:1012F0005049C1F88800208800F48060B0F5806F04
:1013000013D14C488830006820F44010A16A08438B
:10131000484988310860A06AB0F5801F05D145486A
:10132000C06840F480104349C860208800F4006021
:10133000B0F5006F13D13F488830006820F44000BA
:10134000E16A08433B4988310860E06AB0F5800FE4
:1013500005D13848C06840F480103649C8602088FC
:1013600000F48050B0F5805F13D1324888300068B7
:1013700020F04070216B08432E4988310860206BB3
:10138000B0F1807F05D12B48C06840F48010294916
:10139000C860208800F40050B0F5005F13D12548E4
:1013A0008830006820F04060616B08432149883133
:1013B0000860606BB0F1006F05D11E48C06840F452
:1013C00080101C49C860208800F48040B0F5804F30
:1013D00013D118488830006820F04060A16B0843A2
:1013E000144988310860A06BB0F1006F05D1114835
:1013F000C06840F480100F49C860208800F40040A5
:10140000B0F5004F13D10B488830006820F04050F1
:10141000E16B0843074988310860E06BB0F1805FF9
:1014200005D10448C06840F480300249C860404695
:10143000BDE8F88300100240007000402DE9F04143
:1014400004460D464FF0000814B90120BDE8F081B4
:101450007D48006800F00F00A8420ED27A4800686C
:1014600020F00F002843784908600846006800F023
:101470000F00A84201D00120E8E7207800F0010029
:10148000002864D06068032823D17048006800F009
:10149000007008B90120D9E702F016FA06466C4838
:1014A000864237D96948806800F0F00030B1207872
:1014B00000F0020002282DD1A06858BB6348806864
:1014C00020F0F00040F08000604988604FF0800814
:1014D00020E06068022806D15C48006800F4003013
:1014E00040B90120B2E75948006800F4806008B9AB
:1014F0000120ABE700F000F906465548864209D9BD
:101500005248806820F0F00040F080004F49886029
:101510004FF080084D48806820F003006168084360
:101520004A498860FFF708FB074608E0FFF704FB1D
:10153000C01B41F28831884201D9032086E7434825
:10154000806800F00C006168B0EB810FEED120786C
:1015500000F00200022820D1207800F004000428C6
:1015600005D13A48806840F4E060384988602078C6
:1015700000F00800082807D13448806820F4605043
:1015800040F4E060314988603048806820F0F00025
:10159000A16808432D49886008E0B8F1800F05D1A3
:1015A0002A48806820F0F0002849886026480068B2
:1015B00000F00F00A84219D92348006820F00F005E
:1015C000284321490860FFF7B7FA074608E0FFF70C
:1015D000B3FAC01B41F28831884201D9032035E7B4
:1015E0001948006800F00F00A842F0D1207800F000
:1015F0000400042807D11548806820F4E060E16801
:10160000084312498860207800F00800082808D1B3
:101610000E48806820F46050216940EAC1000B49FF
:10162000886000F069F809498968C1F30311094A23
:10163000515C01F01F01C840074908600748006875
:10164000FFF7D8FB02E70000002002400010024034
:1016500000B4C404845700082000002018000020B3
:101660000F2202600D4A926802F0030242600B4AA8
:10167000926802F0F0028260084A926802F4E06226
:10168000C260064A926802F46052D2080261044ABB
:10169000126802F00F020A6070470000001002405A
:1016A0000020024001480068704700002000002030
:1016B00000B5FFF7F7FF05498968C1F30221044A25
:1016C000515C01F01F01C84000BD00000010024045
:1016D0009457000800B5FFF7E5FF05498968C1F395
:1016E000C221044A515C01F01F01C84000BD000046
:1016F000001002409457000870B5224DAD6805F007
:101700000C05042D01D120483AE01E4DAD6805F0CE
:101710000C05082D01D11D4832E01A4DAD6805F0C9
:101720000C050C2D2BD1174DED6805F00304154D5C
:10173000ED68C5F303156A1C022C0CD0032C09D1EB
:10174000124DB5FBF2F50F4EF668C6F3062605FB03
:1017500006F10AE000BF0C4DB5FBF2F5094EF66844
:10176000C6F3062605FB06F100BF00BF054DED6878
:10177000C5F341656D1C6B00B1FBF3F000E0002088
:1017800070BD0000001002400024F40000127A0036
:101790002DE9F843044614B90120BDE8F883207808
:1017A00000F00100002865D0FC48806800F00C07BC
:1017B000FA48C06800F003060C2F01D1032E01D0B7
:1017C000082F0AD1F548006800F40030002851D0F5
:1017D000606800284ED10120DFE700BF6068B0F5E7
:1017E000803F06D1ED48006840F48030EB49086046
:1017F0001AE06068B0F5A02F0BD1E848006840F40B
:101800008020E64908600846006840F4803008609F
:101810000AE0E248006820F48030E04908600846A9
:10182000006820F48020086000BF606888B1FFF77E
:1018300083F9054606E0FFF77FF9401B642801D9CC
:101840000320AAE7D548006800F400300028F2D051
:1018500010E0FFF771F9054606E0FFF76DF9401B50
:10186000642801D9032098E7CC48006800F40030D0
:101870000028F2D1207800F00200022860D1C74889
:10188000806800F00C07C548C06800F003060C2F04
:1018900001D1022E01D0042F18D1C048006800F4F5
:1018A000806018B1E06808B9012076E7BB4840685D
:1018B00020F0FE40217C40EA0160B8494860B84809
:1018C0000068FFF797FA18B3012066E7E06800B3F5
:1018D000B248006840F48070B0490860FFF72CF906
:1018E000054606E0FFF728F9401B022801D903202E
:1018F00053E7AA48006800F480600028F2D0A748A7
:10190000406820F0FE40217C40EA0160A349486025
:1019100016E0A248006820F48070A0490860FFF734
:101920000BF9054606E0FFF707F9401B022801D92D
:10193000032032E79948006800F480600028F2D163
:10194000207800F00800082836D16069D0B19348AB
:101950009430006840F001009049C1F89400FFF70E
:10196000EBF8054606E0FFF7E7F8401B022801D92F
:10197000032012E789489430006800F00200002834
:10198000F1D019E085489430006820F001008349C7
:10199000C1F89400FFF7D0F8054606E0FFF7CCF851
:1019A000401B022801D90320F7E67C4894300068E8
:1019B00000F002000028F1D1207800F00400042893
:1019C00072D14FF000087548806D012121EA107036
:1019D00078B100BF7148806D40F080506F498865D4
:1019E0000846806D00F08050009000BF00BF4FF0AF
:1019F00001086C48006800F48070B0B9694800685C
:101A000040F4807067490860FFF796F8054606E0E5
:101A1000FFF792F8401B022801D90320BDE6614878
:101A2000006800F480700028F2D000BFA068012890
:101A300008D15A489030006840F001005749C1F879
:101A4000900021E0A06805280FD15448903000682C
:101A500040F004005149C1F890000846D0F89000C9
:101A600040F00100C1F890000EE04C489030006852
:101A700020F001004949C1F890000846D0F89000D4
:101A800020F00400C1F8900000BFA068A8B1FFF7E3
:101A900053F8054609E0FFF74FF8401B41F2883143
:101AA000884202D9032078E625E03C48903000685F
:101AB00000F002000028EED013E0FFF73DF80546E5
:101AC00008E0FFF739F8401B41F28831884201D91C
:101AD000032062E631489030006800F002000028E0
:101AE000EFD1B8F1010F05D12C48806D20F0805066
:101AF0002A49886500BF207800F02000202836D1D0
:101B0000A069D0B125489830006840F00100234911
:101B1000C1F89800FFF710F8054606E0FFF70CF84B
:101B2000401B022801D9032037E61C489830006882
:101B300000F002000028F1D019E018489830006841
:101B400020F001001549C1F89800FEF7F5FF0546A1
:101B500006E0FEF7F1FF401B022801D903201CE636
:101B60000E489830006800F002000028F1D1E069CA
:101B7000002860D00948806800F00C000C287AD05A
:101B8000E069022858D10548006820F080700349B8
:101B90000860FEF7D1FF05460DE00000001002408E
:101BA0001800002000700040FEF7C6FF401B02280E
:101BB00001D90320F1E54A48006800F000700028D0
:101BC000F2D1D4E90810401E41EA0011A06A41EAAE
:101BD0000021208E0122C2EB500041EA4051342006
:101BE000005DC2EB500041EA40612C20005D41EAFB
:101BF000C0603B49C9683B4A114008433849C86046
:101C00000846006840F0807008600846C06840F0F0
:101C10008070C860FEF790FF054606E0FEF78CFF77
:101C2000401B022801D90320B7E52D48006800F0C9
:101C300000700028F2D051E02948006820F0807040
:101C400027490860FEF778FF054606E0FEF774FFB7
:101C5000401B022801D903209FE52148006800F0BD
:101C600000700028F2D11E48C0681F4908401C4976
:101C7000C86033E0FFE7E069012800D18DE518482E
:101C8000C66806F00301206A814225D106F0F00102
:101C9000606A401EB1EB001F1ED106F4FE41A06A2F
:101CA000B1EB002F18D106F078412C20005DB1EB8C
:101CB000C06F11D106F4C001208E0122C2EB50008A
:101CC000B1EB405F08D106F0C0613420005DC2EB8B
:101CD0005000B1EB406F01D001205EE500205CE5D3
:101CE000001002400C809F01FCFFEEFE70B5040066
:101CF00009D0606A002540B125616561A56294F84C
:101D00005D0040B10CE0012070BD6068B0F5827FDD
:101D1000F4D0E561F2E784F85C50204600F05CF80E
:101D2000022084F85D002068016821F04001016014
:101D3000E1684FF4E062914201D9002001E04FF4E4
:101D40008050B1F5706F02D0914200D0A562A18899
:101D5000228901F4827102F404421143227C02F0D0
:101D600002021143227D02F001021143228B02F490
:101D700000721143227F02F03802114394F82020B0
:101D800002F080021143228D02F4005211432268B6
:101D90001160A169042202EA114194F8242000F4A0
:101DA000805002F01002114394F8342002F008022F
:101DB0001143A28902F4706211430143206841601B
:101DC0002068C16921F40061C1612566012084F8A1
:101DD0005D00002070BD000010B586B004461421DF
:101DE0006846FEF74DFA1249206888421DD1114815
:101DF000816D41F400418165816D01F400410591DF
:101E0000C16C41F00201C164C06C694600F002007F
:101E1000059038200090022001900020029003904D
:101E2000062004900448FEF79BFD06B010BD00009C
:101E3000003C004000100240000400482DE9F84F2B
:101E4000044690F85D001D4616460F4601283FD116
:101E5000002F75D0002E73D060684FF00408B0F5E5
:101E6000827F01D1A06848B3FEF766FE824694F8EF
:101E70005C0001282CD04FF0010984F85C9084F8B4
:101E80005D804FF00008C4F860802764A4F84460C7
:101E9000A4F84660C4F83880A4F83C80A4F83E80DA
:101EA000C4F84C80C4F85080E0684FF4E061884288
:101EB000206842680ED922F480520DE084F85D80DB
:101EC000009313460A46204600F03EF9BDE8F88F1D
:101ED0000220FBE742F480524260A068B0F5004F58
:101EE00009D12068026822F040020260206802687E
:101EF00022F48042026020680268520603D402681D
:101F000042F040020260E06888421BD939E0206854
:101F10008168C9070BD0017B206C0170206C401CCC
:101F20002064B4F84600401EA4F846000AE0FEF71C
:101F300003FEA0EB0A00A84203D3681C02D036E0DF
:101F400032E09DB3B4F846000028E0D11DE02068DF
:101F50008168C9070BD0C068216C0880206C801C88
:101F60002064B4F84600401EA4F8460009E0FEF7DD
:101F7000E3FDA0EB0A00A84202D3681C01D016E0E2
:101F8000A5B1B4F846000028E1D1524629462046C2
:101F900001F0CEFC08B12020206684F85D9084F822
:101FA0005C80206E002891D001208FE7FFE784F845
:101FB0005D9084F85C80032088E72DE9F84F98460F
:101FC00016468A460446FEF7B7FD814694F85D0042
:101FD000012820D1BAF1000F6FD0002E6DD094F8F7
:101FE0005C00012817D0012784F85C70032084F876
:101FF0005D0000252566C4F838A0A687E68725641D
:10200000A4F84450A4F846502565E564A068B0F5EE
:10201000004F03D00CE00220BDE8F88F2068016873
:1020200021F0400101602068016841F480410160B5
:1020300020680168490603D4016841F0400101604D
:10204000E068B0F5E06F606826D908B1012E1FD1B5
:10205000A06B21680088C86006E020688168890755
:1020600009D5A16B0988C160A06B801CA063E08FBB
:10207000401EE0870CE0FEF75FFDA0EB0901414543
:1020800003D3B8F1FF3F03D04BE0B8F1000F48D0C5
:10209000E08F0028E1D139E008B1012E33D1E08F83
:1020A0000128A06B03D921680088C86010E021686E
:1020B0000078087314E0E08725E043E02068816839
:1020C000890713D5E18F0129A16B07D90988C16060
:1020D000A06B801CA063E08F801EECE70978017381
:1020E000A06B401CA063E08F401EE4E7FEF724FDD8
:1020F000A0EB0901414503D3B8F1FF3F03D010E045
:10210000B8F1000F0DD0E08F0028D7D14A464146E4
:10211000204601F047FC08B120202066A06830B1BD
:1021200009E084F85D7084F85C50032074E720684F
:10213000C1688068009084F85D7004F85C5F606836
:102140000028F3D0012067E72DE9FF5F1D46934685
:1021500004464FF001090E9EFEF7EEFC074694F888
:102160005D006168012806D0B1F5827F39D1A16890
:10217000B1BB042835D1019800287CD0BBF1000FF9
:10218000FBD0002DF9D094F85C00012829D04FF045
:10219000010A84F85CA094F85D00042802D00520B0
:1021A00084F85D004FF00008C4F86080C4F840B0C7
:1021B000A4F84650A4F844500199A163E587A58787
:1021C000C4F84C80C4F85080E0684FF4E061884265
:1021D00001D8012D09D92068426822F4805208E014
:1021E000FFE7022004B0BDE8F09F2068426842F497
:1021F0008052426020680268520603D4026842F0AE
:1022000040020260E0688842606846D908B1012D4A
:102210003BD1A06B01882068C160A06B801CA063CB
:10222000E08F401EE08730E02068816889070FD585
:10223000E18F69B1B9F1010F0AD1A16B0988C160C1
:10224000A06B801CA063E08F401EE0874FF0000968
:1022500020688168C90711D0B4F8461071B1C06810
:10226000216C0880206C801C2064B4F84600401E5D
:10227000A4F8460000E09EE04FF00109FEF75CFC88
:10228000C01BB04201D3701C74D1E08F0028CBD1A9
:10229000B4F846000028C7D175E008B1012D6BD114
:1022A000E08F0128A06B08D921680088C860A06B66
:1022B000801CA063E08F801E07E02168007808730F
:1022C000A06B401CA063E08F401EE08754E02068B4
:1022D000816889071AD5E18FC1B1B9F1010F15D114
:1022E000E18F0129A16B07D90988C160A06B801C0F
:1022F000A063E08F801E06E009780173A06B401C8C
:10230000A063E08F401EE0874FF0000920688168DD
:10231000C90728D0B4F8461029B3B4F846100129EB
:1023200014D9C068216C0880206C801C2064B4F82B
:102330004600801EA4F84600B4F84600012810D8D4
:102340002068416841F4805141600AE0007B216CC3
:102350000870206C401C2064B4F84600401EA4F8AD
:1023600046004FF00109FEF7E7FBC01BB04202D365
:10237000701C01D012E08EB1E08F0028A7D1B4F814
:1023800046000028A3D13A463146204601F00AFB18
:1023900050B12020206684F85C800CE084F85DA0B9
:1023A00084F85C8003201DE784F85DA084F85C80DD
:1023B000206E0028F7D0012014E77047704770475F
:1023C00010B50346002200BF93F83C00012801D15C
:1023D000022010BD012083F83C0000BF22F0FF0066
:1023E000CC6840EA040222F440708C6840EA04029F
:1023F00022F480604C6840EA040222F400600C6819
:1024000040EA040222F480500C6940EA040222F4FB
:1024100000504C6940EA040222F480400C6B40EA10
:10242000040222F470200C8B40EA044222F0805017
:10243000CC6940EA0402124C1868A04203D0114C47
:102440001868A04213D122F470000C8D40EA0452A7
:1024500022F080700C6A40EA040222F000704C6A9C
:1024600040EA040222F00050CC6A40EA04021868F4
:10247000426400BF002083F83C0000BF00BFA8E713
:10248000002C014000340140704770477047000045
:1024900030B502460B4600BF92F83C00012801D13E
:1024A000022030BD012082F83C0000BF022082F8EB
:1024B0003D0010684168106884681D4D1068A8428E
:1024C00003D01C4D1068A84203D121F47001586854
:1024D0000143194801401868014310684160144DD8
:1024E0001068A84213D01068B0F1804F0FD0134D80
:1024F0001068A8420BD0124D1068A84207D00D4DAD
:102500001068A84203D00F4D1068A84205D124F0EE
:1025100080049868044310688460012082F83D00BC
:1025200000BF002082F83C0000BF00BFB9E70000F8
:10253000002C0140003401408FFFFFFD00040040EB
:102540000008004000400140704710B504460CB937
:10255000012010BD94F83D0028B9002084F83C000B
:10256000204600F029F8022084F83D00211D206853
:1025700001F05EFB012084F8480000BF84F83E00B3
:1025800001213F20015540200155412001554220A5
:1025900001554320015500BF00BF012084F84400CD
:1025A00045200155462001554720015500BF012017
:1025B00084F83D000020CCE770470000014691F808
:1025C0003D00012801D001207047022081F83D0024
:1025D0000868C06840F001000B68D860184B0868B4
:1025E000984213D00868B0F1804F0FD0154B08689F
:1025F00098420BD0144B0868984207D0134B0868D8
:10260000984203D0124B0868984210D1086880683D
:10261000104B00EA0302062A0FD0B2F5803F0CD01F
:102620000868006840F001000B68186005E0086861
:10263000006840F001000B6818600020C4E700004B
:10264000002C01400004004000080040003401401C
:102650000040014007000100704770B50446206843
:10266000C6682068056905F00200022819D106F045
:102670000200022815D1401F21680861012020773F
:102680002068806900F0030018B12046FFF7E4FFDE
:1026900005E0204600F08AF9204600F0E7FA002025
:1026A000207705F00400042819D106F0040004285E
:1026B00015D1C04321680861022020772068806915
:1026C00000F4407018B12046FFF7C6FF05E0204631
:1026D00000F06CF9204600F0C9FA0020207705F0E0
:1026E0000800082819D106F00800082815D1C043B1
:1026F00021680861042020772068C06900F0030089
:1027000018B12046FFF7A8FF05E0204600F04EF97B
:10271000204600F0ABFA0020207705F010001028CA
:1027200019D106F01000102815D1C04321680861A6
:10273000082020772068C06900F4407018B1204656
:10274000FFF78AFF05E0204600F030F9204600F050
:102750008DFA0020207705F0010048B106F0010055
:1027600030B16FF0010021680861204600F080FA66
:1027700005F08000802804D005F40050B0F5005F1B
:102780000AD106F08000802806D16FF4025021683B
:1027900008612046FFF712FE05F48070B0F5807FD7
:1027A0000AD106F08000802806D16FF4807021687D
:1027B00008612046FFF701FE05F04000402809D1DE
:1027C00006F04000402805D1C0432168086120463A
:1027D00000F05AFA05F02000202809D106F0200068
:1027E000202805D1C043216808612046FFF7E7FD96
:1027F00005F48010B0F5801F0BD106F48010B0F501
:10280000801F06D16FF48010216808612046FFF711
:102810003CFE05F40010B0F5001F0BD106F40010CB
:10282000B0F5001F06D16FF4001021680861204642
:10283000FFF72AFE05F48000B0F5800F0BD106F4F7
:102840008000B0F5800F06D16FF480002168086128
:102850002046FFF71BFE05F40000B0F5000F0BD17A
:1028600006F40000B0F5000F06D16FF400002168F7
:1028700008612046FFF768FE70BD000010B586B005
:102880000446142101A8FDF7FBFC21492068884279
:102890001CD100BF1F48C06C40F001001D49C86436
:1028A0000846C06C00F00100009000BF00BF881512
:1028B00001900220029000200390049006200590D1
:1028C00001A94FF09040FEF74BF81EE02068B0F1F0
:1028D000804F1AD100BF0F48C06C40F002000D4974
:1028E000C8640846C06C00F00200009000BF00BF42
:1028F000081501900220029000200390049001200E
:10290000059001A90448FEF72BF806B010BD0000A1
:10291000002C014000100240000400482DE9F04165
:1029200004460E461546002700BF94F83C000128D7
:1029300002D10220BDE8F081012084F83C0000BFF4
:102940000C2D1AD005DC4DB1042D0CD0082D23D14F
:102950000EE0102D16D0142D1ED118E0314620683F
:1029600001F0CCF91AE03146206801F01DFA15E0BB
:102970003146206801F072FA10E03146206801F01B
:10298000C7FA0BE03146206801F01CFB06E0314637
:10299000206801F04FFB01E0012700BF00BF00BF2E
:1029A000002084F83C0000BF3846C3E7704710B5EC
:1029B00004460CB9012010BD94F83D0028B9002050
:1029C00084F83C00204600F029F8022084F83D00FD
:1029D000211D206801F02CF9012084F8480000BF77
:1029E00084F83E0001213F2001554020015541203F
:1029F0000155422001554320015500BF00BF012071
:102A000084F84400452001554620015547200155D2
:102A100000BF012084F83D000020CCE738B5044613
:102A20000D492068884215D100BF0C48006E40F463
:102A300000600A4908660846006E00F400600090D5
:102A400000BF00BF00220F211820FEF757FA182000
:102A5000FEF740FA38BD0000002C01400010024093
:102A60002DE9F04104460D461646002700BF94F8B4
:102A70003C00012802D10220BDE8F081012084F849
:102A80003C0000BF0C2E51D005DC4EB1042E1ED0F0
:102A9000082E7AD133E0102E60D0142EF9D175E0D3
:102AA0002946206801F02AF92068806940F0080072
:102AB000216888612068806920F0040021688861AD
:102AC00020688069296908432168886178E029467F
:102AD000206801F069F92068806940F4006021688D
:102AE00088612068806920F480602168886120689E
:102AF0008069296940EA01202168886160E02946EF
:102B0000206801F0ABF92068C06940F00800216836
:102B1000C8612068C06920F004002168C86120688D
:102B2000C069296908432168C86149E029462068CD
:102B300001F0EEF92068C06940F400602168C861C6
:102B40002068C06920F480602168C8612068C0697D
:102B5000296940EA01202168C86131E029462068DE
:102B600001F030FA2068006D40F008002168086527
:102B70002068006D20F00400216808652068006D61
:102B800029690843216808651AE017E0294620688A
:102B900001F050FA2068006D40F40060216808657B
:102BA0002068006D20F48060216808652068006D51
:102BB000296940EA01202168086501E0012700BF7A
:102BC00000BF00BF002084F83C0000BF384653E738
:102BD00010B504460CB9012010BD94F83D0028B989
:102BE000002084F83C00204600F02AF8022084F8F7
:102BF0003D00211D206801F01BF8012084F84800E9
:102C000000BF84F83E0001213F20015540200155BE
:102C100041200155422001554320015500BF00BF0E
:102C2000012084F8440045200155462001554720E5
:102C3000015500BF012084F83D000020CCE70000D2
:102C400008B50168B1F1804F0DD100BF0649896D0B
:102C500041F00101044A91651146896D01F00101BD
:102C6000009100BF00BF08BD001002407047000087
:102C700010B5044603492068884201D1FEF79EF84A
:102C800010BD0000004001407047014600BF91F8B0
:102C90008400012801D102207047012081F88400BE
:102CA00000BF2420C1F8880008680268086800682E
:102CB00020F001000B68186022F0005200204866E6
:102CC000086802602020C1F8880000BF002081F859
:102CD000840000BF00BFDFE77047704770B504464F
:102CE0000D4600BF94F88400012801D1022070BD78
:102CF000012084F8840000BF2420C4F888002068E4
:102D000006682068006820F00100216808602068DB
:102D1000806820F06060284321688860204601F0C8
:102D2000C1F9206806602020C4F8880000BF002098
:102D300084F8840000BF00BFD9E770B504460D4693
:102D400000BF94F88400012801D1022070BD012049
:102D500084F8840000BF2420C4F888002068066836
:102D60002068006820F00100216808602068806801
:102D700020F06040284321688860204601F092F9E5
:102D8000206806602020C4F8880000BF002084F876
:102D9000840000BF00BFD9E770477047704700004C
:102DA0002DE9F04704462068C56920680668206858
:102DB000876840F60F0005EA0009B9F1000F0FD14E
:102DC00005F0200060B106F0200010B907F0805037
:102DD00030B1606F10B12046616F8847BDE8F08761
:102DE000B9F1000F7ED0DF48384018B9DE483040D6
:102DF0000028F7D005F0010058B106F4807040B10A
:102E0000012021680862D4F8900040F00100C4F865
:102E1000900005F0020058B107F0010040B1022017
:102E200021680862D4F8900040F00400C4F89000D3
:102E300005F0040058B107F0010040B104202168FA
:102E40000862D4F8900040F00200C4F8900005F049
:102E5000080070B106F0200010B9C248384040B1F7
:102E6000082021680862D4F8900040F00800C4F8F7
:102E7000900005F4006060B106F0806048B14FF446
:102E8000006021680862D4F8900040F02000C4F887
:102E90009000D4F89000002852D005F0200050B1E6
:102EA00006F0200010B907F0805020B1606F10B11B
:102EB0002046616F8847D4F890A02068806800F0B1
:102EC0004000402802D00AF0280070B3204601F0EC
:102ED00011FA2068806800F04000402826D100BF29
:102EE00000BF00E02DE02168083151E8001F21F00B
:102EF00040002168083141E80002002AF1D100BFFA
:102F0000D4F8800068B19948D4F880108863D4F868
:102F10008000FDF7DAFC98B1D4F88000816B884717
:102F20000EE02046FFF73AFF0AE003E02046FFF7F5
:102F300035FF05E02046FFF731FF0020C4F8900080
:102F40004CE7E06E012865D105F01000002861D043
:102F500006F010000028FAD01020216808622068CE
:102F6000806800F0400040287AD1D4F880000068E2
:102F700040681FFA80F8B8F1000F5CD0B4F85C002C
:102F8000404558DDA4F85E80D4F8800000680068F1
:102F900000F02000E8BB00BF00BF216851E8001F1F
:102FA00021F48070226842E800010029F5D100BFB9
:102FB00000BF00BF2168083151E8001F21F0010067
:102FC0002168083141E80002002AF3D100BF00BFA8
:102FD00000BF2168083151E8001F21F0400021683E
:102FE000083141E80002002AF3D100BF2020C4F8D4
:102FF0008C000020E06600BF00BF216851E8001F80
:1030000021F01000226842E800010029F5D100BF3C
:1030100001E004E068E0D4F88000FDF71BFC02202A
:103020002067B4F85C00B4F85E20801A81B22046B4
:10303000FFF752FE12E0B4F85C0040450ED1D4F820
:1030400080000068006800F02000202806D10220DF
:103050002067B4F85C102046FFF73EFEBEE6FFE7AF
:1030600034F85C0F6188401A1FFA80F860885C3C75
:10307000C8B3B8F1000F36D000BF00BF216851E8D7
:10308000001F21F49070226842E800010029F5D168
:1030900000BF00BF00BF2168083151E8001F314A5E
:1030A000D24301EA02002168083141E80002002A07
:1030B000F1D100BF2020C4F88C000020E0666067DA
:1030C00000BF00BF216851E8001F21F010002268F6
:1030D00042E800010029F5D100BF022020674146E7
:1030E0002046FFF7F9FD79E605F4801050B107F4AA
:1030F000800038B14FF48010216808622046FFF745
:103100004CFE6BE605F0800058B106F0800010B967
:1031100007F4000028B1A06F10B12046A16F8847C6
:103120005CE605F0400030B106F0400018B12046E2
:1031300001F016F952E605F4000030B106F08040C7
:1031400018B12046FFF728FE48E605F0807030B140
:1031500006F0004018B12046FFF7BFFD3EE600BF75
:103160003CE600000100001020010004DF420008DE
:1031700010B504460CB9012010BDA06900B100E0F3
:1031800000BFD4F8880028B9002084F884002046C5
:1031900000F02AF82420C4F888002068006820F095
:1031A000010021680860A06A10B1204600F0A6FF67
:1031B000204601F0EFFB012800D1DDE720684068E0
:1031C00020F49040216848602068806820F02A0040
:1031D000216888602068006840F00100216808606C
:1031E000204601F007F8C7E710B598B0044614214F
:1031F00013A8FDF745F8442102A8FDF741F840491E
:10320000206888423BD1202002900020079002A82D
:10321000FDF75CFF08B1FDF783F800BF3948C06DCA
:1032200040F001003749C8650846C06D00F0010054
:10323000019000BF00BF00BF0846C06C40F0010015
:10324000C8640846C06C00F00100019000BF00BFD8
:103250000C201390022014900020159016900C2042
:10326000179013A94FF09040FDF77AFB002211460A
:103270005B20FDF743FE5B20FDF72CFE3DE022497D
:103280002068884239D1012002900020039002A8D2
:10329000FDF71CFF08B1FDF743F800BF1948006EA9
:1032A00040F48040174908660846006E00F48040EC
:1032B000019000BF00BF00BF0846C06C40F0020094
:1032C000C8640846C06C00F00200019000BF00BF57
:1032D000C020139002201490002015901690072013
:1032E000179013A90948FDF73BFB00220121252077
:1032F000FDF704FE2520FDF7EDFD18B010BD000020
:1033000000800040001002400038014000040048E6
:1033100070B504460D461646D4F88C00202821D1FD
:1033200005B10EB9012070BD0020E0660E4920688D
:10333000884211D02068406800F4000060B100BFEE
:1033400000BF216851E8001F41F08060226842E818
:1033500000010029F5D100BF32462946204601F080
:10336000DBFCE0E70220DEE70080004070B50446A9
:103370002749206888420ED1264805780122014657
:103380002548FFF7C5FF1B2D04D05B2D02D0284632
:1033900002F0AAF83AE021492068884236D1012299
:1033A0001F492048FFF7B4FF1D48007818B11C489A
:1033B0000078FF2800D170BD194800780A2803D092
:1033C000174800780D280FD117480088002807DD1E
:1033D00000211648144A12888154012014490870AB
:1033E00000201149088011E00F4800883F280ADAC0
:1033F0000B4801780C4802880088401C0A4B188052
:103400000A48815402E000200749088000BFD2E743
:1034100000800040050000203C01002000380140F1
:103420000B000020D0010020080000202800002010
:103430000A0000202DE9F84F04460E46174699462B
:10344000D4F88800202854D106B117B90120BDE86E
:10345000F88F00205434E06321206063FDF76CFB9B
:10346000824627806780543CA068B0F5805F04D115
:10347000206910B90025B04602E035464FF000083B
:1034800020E05346002280212046CDF8009001F034
:10349000F1FC20B12020C4F888000320D7E745B90B
:1034A000B8F80000C0F308002168886208F102083B
:1034B00003E02878216888626D1CB4F85600401E2D
:1034C000A4F85600B4F856000028DAD1534600227A
:1034D00040212046CDF8009001F0CCFC20B1202006
:1034E000C4F888000320B2E72020C4F88800002038
:1034F000ADE70220ABE7704700BFFEE710B502481A
:10350000FFF74EFC10BD00003C01002000B587B065
:10351000142102A8FCF7B4FE00BF3448C06C40F090
:1035200004003249C8640846C06C00F004000190F1
:1035300000BF00BF00BF0846C06C40F02000C86458
:103540000846C06C00F02000019000BF00BF00BF23
:103550000846C06C40F00100C8640846C06C00F02A
:103560000100019000BF00BF00BF0846C06C40F0E2
:103570000200C8640846C06C00F00200019000BF61
:1035800000BF00224FF400511948FDF7CFFA002286
:1035900020214FF09040FDF7C9FA0122114615484D
:1035A000FDF7C4FA4FF40050029001200390002070
:1035B0000490059002A90E48FDF7D2F92020029050
:1035C0000120039000200490059002A94FF0904044
:1035D000FDF7C6F9012002900390049000200590A9
:1035E00002A90448FDF7BCF907B000BD0010024075
:1035F000000800480004004810B514481449086049
:10360000144848600021124881600121C1600021F6
:10361000016141618161C1610162FDF717FB08B180
:10362000FCF77EFE00210A48FDF78CFA08B1FCF792
:1036300077FE00210648FDF7BAFA08B1FCF770FEE4
:103640004FF48010FDF7E8FA10BD00000054004070
:10365000E80000200F06524010B5174817490860CF
:103660004FF4E1304860002114488160C16001617D
:103670000C214161002181610162416200200F49FA
:1036800088620846FFF774FD08B1FCF749FE002187
:103690000A48FFF752FB08B1FCF742FE0021074839
:1036A000FFF71CFB08B1FCF73BFE0448FFF7EDFAFF
:1036B00008B1FCF735FE10BD008000403C01002041
:1036C000124810B5104901604FF482714160002129
:1036D0004FF4E062C0E902124FF400720161C0E9E8
:1036E00005121022C0E9072107224162C0E90A122F
:1036F000016308214163FEF7F9FA002803D0BDE811
:103700001040FCF70DBE10BD003C004064020020DC
:1037100000B597B000201490159016901C210DA8AC
:10372000FCF7AEFD34216846FCF7AAFD274828497E
:103730000860002048600021254881604FF6FF7135
:10374000C1600021016141618161FFF730F908B179
:10375000FCF7E6FD002014901590169014A91C4863
:10376000FEF796FE08B1FCF7DBFD00200D900E90F1
:103770000F90109011901290139000220DA91448F0
:10378000FFF7CCF808B1FCF7CBFD002000900190CA
:103790000290039004904FF4005005900020069092
:1037A000079008904FF00070099000200A900B904D
:1037B0000C9069460648FEF703FE08B1FCF7B0FD21
:1037C0000348FFF75BF817B000BD0000002C014074
:1037D000C802002000B58BB00020089009900A9024
:1037E0001C2101A8FCF74CFD4FF0804017490860F0
:1037F0001020486000211548816041F28731C16086
:10380000002101618161FFF7E3F908B1FCF788FD50
:10381000002008900A9008A90C48FEF739FE08B16C
:10382000FCF77EFD6020019000200290039005903F
:10383000082201A90548FFF713F908B1FCF770FD4C
:103840000248FFF71BF80BB000BD00001403002076
:1038500010B51848184908604FF4E130486000215D
:1038600015488160C16001610C21416100218161C5
:10387000C1610162416200200F4988620846FFF77A
:1038800077FC08B1FCF74CFD00210B48FFF755FA17
:1038900008B1FCF745FD00210748FFF71FFA08B102
:1038A000FCF73EFD0448FFF7F0F908B1FCF738FDDE
:1038B00010BD000000380140D001002000BFFEE72D
:1038C00000BFFEE77047000070B5164DED6805F0CB
:1038D0000304144DED68C5F303156B1C022C0CD0CA
:1038E000032C09D1104DB5FBF3F50E4EF668C6F367
:1038F000062605FB06F10AE000BF0C4DB5FBF3F50B
:10390000084EF668C6F3062605FB06F100BF00BFA9
:10391000044DED68C5F341656D1C6A00B1FBF2F022
:1039200070BD00000010024000127A000024F40074
:103930002DE9F843044640684FF4827615468946DF
:103940004FF400474FF48068B04209D1A068B842F4
:1039500001D0404504D12068016821F04001016098
:103960004B46002280212046009500F0AFF880B938
:103970006068B04214D1A068B84201D040450FD170
:103980004B4600224FF4C0612046009500F02EF80F
:1039900030B1206E40F0200020660320BDE8F8839F
:1039A0000020FBE7F8B515460E460B46009204468C
:1039B00000224FF4C05100F019F888B933460022B4
:1039C00080212046009500F081F848B93346002256
:1039D0004FF4C0612046009500F008F8002804D09C
:1039E000206E40F0200020660320F8BD2DE9FE4F38
:1039F0004FF0000A984617460E4604460C9D8DF877
:103A000004A0FDF799F8411BA8EB0105FDF794F818
:103A1000814620684FF4C06B0C3002902A48006841
:103A2000C0EBC00000EB8000000D6843009043E055
:103A30005E4506D12FB9029800788DF804009DF8F4
:103A40000400B8F1FF3F37D0FDF776F8A0EB09008E
:103A5000A84203D215B1009858B32BE02068416802
:103A600021F0E00141606068B0F5827F0BD1A06871
:103A7000B0F5004F02D0B0F5806F04D12068016826
:103A800021F040010160A06AB0F5005F09D1206813
:103A9000016821F4005101602068016841F400517F
:103AA0000160012084F85D0084F85CA00320BDE87B
:103AB000FE8F0025401E0090206880683040B8428C
:103AC000B6D10020F3E70000200000202DE9F843E4
:103AD0001E46914688460446089DFDF72DF8401B7A
:103AE000351AFDF729F8074625480068C0F3CB30A2
:103AF000684338E0701C37D0FDF71EF8C01BA842A1
:103B000003D215B1009860B32CE02068416821F021
:103B1000E00141606068B0F5827F0BD1A068B0F52C
:103B2000004F02D0B0F5806F04D12068016821F009
:103B300040010160A06AB0F5005F09D1206801680A
:103B400021F4005101602068016841F400510160D6
:103B5000012084F85D00002084F85C000320BDE8AB
:103B6000F8830025401E00902068816838EA010033
:103B700004D000214945BDD10020F0E70121F9E73B
:103B8000200000207047704700B593B0382105A889
:103B9000FCF776FB14216846FCF772FB0020FDF76A
:103BA000FFF9012005904FF4A020069002200C9010
:103BB00003210D9102210E9155210F9102211091A7
:103BC000042111910221129105A8FDF7E1FD08B130
:103BD000FCF7A6FB0F20009003200190002002902C
:103BE0000390049004216846FDF728FC08B1FCF717
:103BF00097FB13B000BD00000348006840F470005C
:103C0000014908607047000088ED00E010B50648E3
:103C1000006810B10448FEF720FD0448006810B1A8
:103C20000248FEF71AFD10BDC80200206003002004
:103C300010B502682A4B98420BD0B0F1804F08D0E3
:103C4000284B984205D0284B984202D0274B9842E7
:103C500003D122F070024B681A43214B984214D0D2
:103C6000B0F1804F11D01F4B98420ED01E4B98429E
:103C70000BD01E4B984208D01D4B984205D01D4BCF
:103C8000984202D01C4B984203D122F44072CB6878
:103C90001A4322F080034C6943EA040202608B68F5
:103CA000C3620B6883620E4B98420BD00F4B984255
:103CB00008D00F4B984205D00E4B984202D00E4BC5
:103CC000984201D10B69036301234361036903F047
:103CD00001031BB1036923F00103036110BD000060
:103CE000002C014000040040000800400034014066
:103CF00000400140004401400048014030B5026AE4
:103D0000056A25F00105056243688469204D2C4051
:103D100024F003040D682C4322F002028D682A432C
:103D20001C4DA84200D10FE01B4DA84200D10BE072
:103D30001A4DA84200D107E0194DA84200D103E076
:103D4000184DA84206D100BF22F00802CD682A43D0
:103D500022F004020F4DA8420BD00F4DA84208D00C
:103D60000E4DA84205D00E4DA84202D00D4DA842DE
:103D700007D123F4807323F400734D692B438D69BD
:103D80002B43436084614D684563026230BD00008F
:103D90008FFFFEFF002C0140003401400040014035
:103DA000004401400048014030B5026A056A25F030
:103DB0001005056243688469224D2C4024F4407448
:103DC0000D6844EA052422F020028D6842EA0512BB
:103DD0001D4DA84200D10FE01C4DA84200D10BE0C0
:103DE0001B4DA84200D100BF1A4DA84200D100BF10
:103DF000194DA84207D106E022F08002CD6842EAC0
:103E0000051222F04002104DA8420BD00F4DA842DF
:103E100008D00F4DA84205D00E4DA84202D00E4D3D
:103E2000A84209D123F4806323F400634D6943EA77
:103E300085038D6943EA8503436084614D6885632A
:103E4000026230BDFF8FFFFE002C014000340140B4
:103E500000400140004401400048014030B5026A82
:103E6000056A25F4807505624368C469224D2C40BB
:103E700024F003040D682C4322F400728D6842EA9A
:103E800005221E4DA84200D10FE01D4DA84200D1D1
:103E90000BE01C4DA84200D100BF1B4DA84200D131
:103EA00000BF1A4DA84207D106E022F40062CD6897
:103EB00042EA052222F48062104DA8420BD0104D38
:103EC000A84208D00F4DA84205D00F4DA84202D0FD
:103ED0000E4DA84209D123F4805323F400534D69B9
:103EE00043EA05138D6943EA05134360C4614D68D5
:103EF000C563026230BD00008FFFFEFF002C014051
:103F000000340140004001400044014000480140AD
:103F100030B5026A056A25F4805505624368C469B4
:103F2000224D2C4024F440740D6844EA052422F408
:103F300000528D6842EA05321D4DA84200D10FE0C3
:103F40001C4DA84200D10BE01B4DA84200D100BF80
:103F50001A4DA84200D100BF194DA84207D106E072
:103F600022F40042CD6842EA053222F48042104D2C
:103F7000A8420BD00F4DA84208D00F4DA84205D043
:103F80000E4DA84202D00E4DA84209D123F4804321
:103F900023F400434D6943EA85138D6943EA851391
:103FA0004360C4614D680564026230BDFF8FFFFE4F
:103FB000002C014000340140004001400044014019
:103FC0000048014030B5026A056A25F48035056273
:103FD0004368046D114D2C400D682C4322F40032CF
:103FE0000D8942EA05420E4DA8420BD00D4DA84264
:103FF00008D00D4DA84205D00C4DA84202D00C4D62
:10400000A84204D123F480334D6943EA0523436079
:1040100004654D688564026230BD00008FFFFEFFBD
:10402000002C0140003401400040014000440140A8
:104030000048014030B5026A056A25F48015056222
:104040004368046D114D2C400D6844EA052422F4A8
:1040500000120D8942EA05520D4DA8420BD00D4DBC
:10406000A84208D00C4DA84205D00C4DA84202D061
:104070000B4DA84204D123F480234D6943EA8523E4
:10408000436004654D68C564026230BDFF8FFFFE6A
:10409000002C014000340140004001400044014038
:1040A0000048014070B5456E2DB90125A0F86A5051
:1040B000A0F868501CE0082308240568AD68C5F323
:1040C00042610568AD686A0F0A4DAD5C15FB04F5E9
:1040D000094EB65C95FBF6F5A0F86A50054D6D5C8F
:1040E00015FB03F5044E765C95FBF6F5A0F86850D9
:1040F00070BD0000745700087C57000890F8281025
:1041000001F00801082907D10168496821F400413C
:10411000826B11430268516090F8281001F0010190
:1041200039B10168496821F40031C26A114302685B
:10413000516090F8281001F00201022907D10168AE
:10414000496821F48031026B11430268516090F894
:10415000281001F00401042907D10168496821F4FD
:104160008021426B11430268516090F8281001F0E1
:104170001001102907D10168896821F48051C26BB0
:1041800011430268916090F8281001F02001202965
:1041900007D10168896821F40051026C114302685B
:1041A000916090F8281001F04001402913D1016876
:1041B000496821F48011426C114302685160416CDE
:1041C000B1F5801F07D10168496821F4C001826CF4
:1041D00011430268516090F8281001F08001802995
:1041E00007D10168496821F40021C26C11430268BB
:1041F0005160704738B504460020C4F89000FCF7C1
:104200009BFC05462068006800F00800082821D1C2
:104210006FF07E402B4600224FF4001100902046A4
:1042200000F028FEB0B100BF00BF216851E8001FB8
:1042300021F08000226842E800010029F5D100BF8A
:104240002020C4F8880000BF002084F8840000BF4C
:10425000032038BD2068006800F00400042830D135
:104260006FF07E402B4600224FF4800100902046E4
:1042700000F000FE28B300BF00BF216851E8001F16
:1042800021F49070226842E800010029F5D100BFB6
:1042900000BF00BF2168083151E8001F21F0010074
:1042A0002168083141E80002002AF3D100BF202034
:1042B000C4F88C0000BF002084F8840000BF0320F5
:1042C000C7E72020C4F88800C4F88C000020E0660E
:1042D000206700BF84F8840000BF00BFB9E770B555
:1042E0000446A56A0020A5F85E002846FEF756FDA4
:1042F00070BD000000BF00BF026852E8002F22F42A
:104300009071036843E80012002AF5D100BF00BF96
:1043100000BF0268083252E8002F104B02EA030186
:104320000268083242E80013002BF2D100BFC16ED0
:1043300001290CD100BF00BF026852E8002F22F013
:104340001001036843E80012002AF5D100BF2021C4
:10435000C0F88C100021C16641677047FEFFFFEF77
:1043600010B5044600BF00BF216851E8001F21F0CE
:104370004000226842E800010029F5D100BF20205A
:10438000C4F888000020A0672046FFF7B4F810BDED
:104390002DE9F0410446B4F86070D4F88C0022286E
:1043A0006ED12068406A86B2A56D06EA07002880B3
:1043B000A06D801CA065B4F85E00401EA4F85E00ED
:1043C000B4F85E00002861D100BF00BF216851E849
:1043D000001F21F49070226842E800010029F5D105
:1043E00000BF00BF00BF2168083151E8001F21F065
:1043F00001002168083141E80002002AF3D100BF22
:104400002020C4F88C0000206067206720492068C5
:10441000884211D02068406800F4000060B100BFFD
:1044200000BF216851E8001F21F08060226842E847
:1044300000010029F5D100BFE06E01281CD1002049
:10444000E06600BF00BF216851E8001F21F01000A6
:10445000226842E800010029F5D100BF2068C06948
:10446000C0F3001010B1102021680862B4F85C108D
:104470002046FEF731FC09E02046FEF777FF05E015
:104480002068806940F0080021688861BDE8F081FB
:10449000008000402DE9F84F0446B4F860B0206871
:1044A000C5692068006800902068D0F808A0D4F89A
:1044B0008C0022287ED1B4F86890AEE02068406A73
:1044C0001FFA80F8A76D08EA0B003880A06D801CE9
:1044D000A065B4F85E00401EA4F85E002068C569BF
:1044E00005F00700B0B305F0010060B1009800F4DA
:1044F000807040B1012021680862D4F8900040F03B
:104500000100C4F8900005F0020058B10AF0010063
:1045100040B1022021680862D4F8900040F0040005
:10452000C4F8900005F0040058B10AF0010040B151
:10453000042021680862D4F8900040F00200C4F81A
:104540009000D4F8900028B12046FEF727FC002008
:10455000C4F89000B4F85E0000285ED100BF00BF30
:10456000216851E8001F21F48070226842E80001B0
:104570000029F5D100BF00BF00BF2168083151E814
:10458000001F414A01EA02002168083141E80002A7
:10459000002AF2D100BF2020C4F88C000020606700
:1045A00020673A492068884213D02068406800F4A8
:1045B000000000E05FE060B100BF00BF216851E88B
:1045C000001F21F08060226842E800010029F5D137
:1045D00000BFE06E01281CD10020E06600BF00BFD4
:1045E000216851E8001F21F01000226842E8000114
:1045F0000029F5D100BF2068C069C0F3001010B1D8
:10460000102021680862B4F85C102046FEF764FBB5
:1046100002E02046FEF7AAFE07E0B9F1000F04D041
:1046200005F0200000287FF449AF00BFB4F85E60B9
:1046300006B3B4F86800B04223DD00BF00BF2168B4
:10464000083151E8001F21F080502168083141E80D
:104650000002002AF3D100BF0D48606700BF00BF11
:10466000216851E8001F41F02000226842E8000163
:104670000029F5D105E02068806940F00800216834
:104680008861BDE8F88F0000FEFFFFEF008000406A
:104690009143000870B50446B4F86060D4F88C000B
:1046A00022286FD12068406A85B2F0B22840A16DFF
:1046B0000870A06D401CA065B4F85E00401EA4F810
:1046C0005E00B4F85E00002862D100BF00BF216820
:1046D00051E8001F21F49070226842E8000100298F
:1046E000F5D100BF00BF00BF2168083151E8001FAD
:1046F00021F001002168083141E80002002AF3D1CD
:1047000000BF2020C4F88C0000206067206721498A
:104710002068884211D02068406800F4000060B131
:1047200000BF00BF216851E8001F21F080602268AF
:1047300042E800010029F5D100BFE06E01281CD13C
:104740000020E06600BF00BF216851E8001F21F093
:104750001000226842E800010029F5D100BF20685E
:10476000C069C0F3001010B1102021680862B4F8CD
:104770005C102046FEF7B0FA0AE02046FEF7F6FD90
:1047800006E0FFE72068806940F008002168886142
:1047900070BD0000008000402DE9F05F0446B4F8D1
:1047A00060A02068C5692068D0F800B02068D0F803
:1047B0000890D4F88C0022287ED1B4F86880ADE04F
:1047C0002068406A87B20AF0FF003840A16D087087
:1047D000A06D401CA065B4F85E00401EA4F85E0009
:1047E0002068C56905F00700A8B305F0010058B1BD
:1047F0000BF4807040B1012021680862D4F8900069
:1048000040F00100C4F8900005F0020058B109F032
:10481000010040B1022021680862D4F8900040F005
:104820000400C4F8900005F0040058B109F001003C
:1048300040B1042021680862D4F8900040F00200E2
:10484000C4F89000D4F8900028B12046FEF7A6FAEC
:104850000020C4F89000B4F85E0000285ED100BFCC
:1048600000BF216851E8001F21F48070226842E8EF
:1048700000010029F5D100BF00BF00BF2168083149
:1048800051E8001F404A01EA02002168083141E86E
:104890000002002AF2D100BF2020C4F88C000020C2
:1048A0006067206739492068884213D020684068D3
:1048B00000F4000070B100E05EE000BF00BF2168BE
:1048C00051E8001F21F08060226842E800010029C1
:1048D000F5D100BFE06E01281CD10020E06600BFCA
:1048E00000BF216851E8001F21F01000226842E853
:1048F00000010029F5D100BF2068C069C0F3001095
:1049000010B1102021680862B4F85C102046FEF750
:10491000E3F902E02046FEF729FD07E0B8F1000FB9
:1049200004D005F0200000287FF44AAF00BFB4F89F
:104930005E6006B3B4F86800B04223DD00BF00BF7C
:104940002168083151E8001F21F0805021680831AA
:1049500041E80002002AF3D100BF0D48606700BFA4
:1049600000BF216851E8001F41F02000226842E8A2
:1049700000010029F5D105E02068806940F00800B9
:1049800021688861BDE8F09FFEFFFFEF00800040D6
:10499000954600082DE9FE4F044600200290D449B8
:1049A0002068884200D100E000BF2169A068084368
:1049B00061690843E16940EA010820680068CD495F
:1049C000084040EA0800216808602068406820F438
:1049D0004050E168084321684860D4F81880C44911
:1049E0002068884202D0206A40EA0808206880686F
:1049F000C149084040EA0800216888602068C06A10
:104A000020F00F00616A08432168C86200BFBB49FB
:104A10002068884216D1BA48006800F0030030B11F
:104A2000012808D0022804D0032808D105E0012578
:104A300007E0022505E0042503E0082501E0102534
:104A400000BF6FE0AF492068884216D1AC480068CB
:104A500000F00C0030B1042808D0082804D00C283D
:104A600008D105E0002507E0022505E0042503E064
:104A7000082501E0102500BF54E0A34920688842C2
:104A800016D19F48006800F0300030B1102808D0DF
:104A9000202804D0302808D105E0002507E00225B1
:104AA00005E0042503E0082501E0102500BF39E0FA
:104AB00096492068884216D19148006800F0C000ED
:104AC00030B1402808D0802804D0C02808D105E0A3
:104AD000002507E0022505E0042503E0082501E0A4
:104AE000102500BF1EE082492068884219D1844801
:104AF000006800F4406048B1B0F5806F0AD0B0F5AE
:104B0000006F05D0B0F5406F08D105E0002507E043
:104B1000022505E0042503E0082501E0102500BF7B
:104B200000E0102500BF72492068884259D135B194
:104B3000022D08D0042D08D0082D0DD109E0FCF776
:104B4000B7FD06460CE0724E0AE0FCF7D5FD0646BE
:104B500006E04FF4004603E000260120029000BF6B
:104B600000BF002E10D06B49606A31F81000B6FB10
:104B7000F0F9606800EB4000484503D86068000326
:104B8000484502D201200290A6E06249606A31F8ED
:104B900010C06246002330461946FBF739FB4FF43C
:104BA000807C0022A0FB0C3B01FB0CB100FB02113E
:104BB0006068400818185141CDE90001D4F804C0DC
:104BC00062460023FBF724FB0746B7F5407F05D379
:104BD000B7F5801F02D22068C7607DE001200290F7
:104BE0007AE0E069B0F5004F3FD1092D17D2DFE838
:104BF00005F005090D160F1616161300FCF758FDE3
:104C0000064610E0FCF766FD06460CE0404E0AE062
:104C1000FCF772FD064606E04FF4004603E000266E
:104C20000120029000BF00BF86B33A49606A31F8A4
:104C30001000B6FBF0F04000616800EB5100B0FBE3
:104C4000F1F7102F0ED3B7F5803F0BD24FF6F0706F
:104C500007EA000AC7F342004AEA000A2068C0F8DF
:104C60000CA039E00120029036E0092D18D2DFE8CF
:104C700005F005090E17101717171400FCF718FD9B
:104C8000064611E0FCF726FD06460DE024E0204E26
:104C90000AE0FCF731FD064606E04FF4004603E06B
:104CA00000260120029000BF00BFAEB11949606A22
:104CB00031F81000B6FBF0F0616800EB5100B0FB7A
:104CC000F1F7102F06D3B7F5803F03D2B8B22168B1
:104CD000C86001E0012002900120A4F86A00A4F855
:104CE000680000206067A0670298BDE8FE8F0000A2
:104CF00000800040F369FFCFFFF4FF11003801404E
:104D0000881002400044004000480040004C004031
:104D10000024F4005C57000830B503469965A3F8F9
:104D20005C20A3F85E200020586700BF9868B0F5AB
:104D3000805F0AD1186920B940F2FF10A3F8600023
:104D400020E0FF20A3F860001CE0986848B91869CB
:104D500018B9FF20A3F8600014E07F20A3F86000DA
:104D600010E09868B0F1805F09D1186918B97F2008
:104D7000A3F8600006E03F20A3F8600002E00020F6
:104D8000A3F8600000BF0020C3F890002220C3F801
:104D90008C0000BF00BF1C68083454E8004F44F08A
:104DA00001001C68083444E80005002DF3D100BF61
:104DB000586EB0F1005F2CD1B3F86800904228DC47
:104DC0009868B0F5805F04D1186910B92548586714
:104DD00001E025485867186960B100BF00BF1C6832
:104DE00054E8004F44F480701D6845E80004002C2E
:104DF000F5D100BF00BF00BF1C68083454E8004F65
:104E000044F080501C68083444E80005002DF3D1BC
:104E100026E09868B0F5805F04D1186910B913488E
:104E2000586701E012485867186960B100BF00BFB9
:104E30001C6854E8004F44F490701D6845E8000475
:104E4000002CF5D10CE000BF00BF1C6854E8004FF7
:104E500044F020001D6845E80004002CF5D100BF97
:104E6000002030BD95440008994700089143000890
:104E7000954600082DE9F04104460D461746984630
:104E8000069E41E0701C00283ED0FBF755FEA0EBCB
:104E90000800B04200D816B90320BDE8F0812068B0
:104EA000006800F0040070B3802D2DD0402D2BD071
:104EB0002068C069C0F3C00078B10820216808628A
:104EC0002046FFF717FA0820C4F8900000BF002022
:104ED00084F8840000BF0120DFE72068C069C0F3C8
:104EE000C02080B14FF40060216808622046FFF7BF
:104EF00001FA2020C4F8900000BF002084F884004C
:104F000000BF0320C9E7FFE72068C0692840A84226
:104F100001D1012000E00020B842B3D00020BCE75E
:104F200010B50248FDF73CFF10BD0000D001002085
:104F300000BFFEE70FB4054B10B503A9044A029861
:104F400000F034F810BC5DF814FB0000CD540008EC
:104F50002400002002480068C0F3022070470000CF
:104F60000CED00E010B5002804DB0A07130E054A1B
:104F7000135406E00A07140E034A00F00F031B1F28
:104F8000D45410BD00E400E018ED00E002E008C8D1
:104F9000121F08C1002AFAD170477047002001E0B3
:104FA00001C1121F002AFBD1704700002DE9FF4FFD
:104FB0008DB00F460546002606E025280BD0DDE91A
:104FC0000F1290476D1C761C28780028F5D111B07F
:104FD0003046BDE8F08F0024A246A1460122EC49EC
:104FE00000E0044315F8013F203B02FA03F00842B9
:104FF000F7D128782A2810D06FF02F022878A0F156
:105000003001092914D80AEB8A0102EB410144F06E
:10501000020400EB010A6D1CF0E701CF5FEA000A11
:1050200003D544F40054CAF1000A44F002046D1C94
:1050300028782E2817D115F8010F44F004042A28E7
:105040000ED06FF02F022878A0F1300109290AD87C
:1050500009EB890102EB410100EB01096D1CF2E74C
:1050600057F8049B6D1C28786C280FD006DC4C2860
:1050700017D068280DD06A2814D104E0742810D005
:105080007A280FD10DE044F400140AE044F48014AF
:1050900001E044F440146978814202D104F580149F
:1050A0006D1C6D1C2A786E2A1FD00CDC632A31D04F
:1050B00004DC002A8BD0582A11D1A3E0642A68D0DE
:1050C000692A0CD165E0732A2ED004DC6F2A73D0D4
:1050D000702A04D19BE0752A6FD0782A6ED01046D2
:1050E000DDE90F129047761C50E1C4F3025002280C
:1050F00006D0032809D0042801CF09D0066045E175
:1051000001CFF117C0E9006140E101CF06803DE128
:1051100006703BE117F8040B8DF8000000208DF8B5
:105120000100EB46012003E057F804BB4FF0FF30CD
:1051300061074FF0000102D40DE008F1010188463B
:1051400049450FDA8045F8DB1BF808100029F4D137
:1051500008E008F1010188468142FADB1BF80810DB
:105160000029F6D1DDE90F23AAEB0800814621468C
:1051700000F036F9304400EB080604E0DDE90F12D8
:105180001BF8010B9047B8F10108F7D221464846B9
:10519000F7E00A21C4F302534FF0000B0891022BF1
:1051A00004D001CFC117032B09D00AE0FF1D27F05F
:1051B0000707F7E8020108E032E01FE020E000B254
:1051C000C117042B01D140B2C117031E71F10003B6
:1051D00007DA4FF0000CD0EB0C006CEB01012D2333
:1051E00002E0230504D52B238DF82430012303E0AE
:1051F000E30701D02023F7E7984658E00A2110E0A2
:1052000010210EE010204FF0000B08900CE0102150
:105210004FF0000B44F004044FF00809089103E03C
:1052200008214FF0000B0891C4F30253022B04D065
:1052300001CF0021032B06D006E0FF1D27F0070752
:10524000F7E8020103E080B2042B00D1C0B24FF0B6
:10525000000823072BD5702A07D0DDF820C08CF07A
:10526000100C5CEA0B0C05D00EE040238DF82430C6
:10527000012308E050EA010306D030238DF82430E2
:105280008DF8252002239846DDF820C08CF0080C0C
:105290005CEA0B0C0BD150EA010301D1630706D580
:1052A00030238DF824304FF00108A9F10109582A64
:1052B00004D038A20B9208AA0A920BE03AA2F9E7AE
:1052C0005B46089AFAF7A4FF0B9B9B5C0A9A521E56
:1052D0000A92137050EA0102F2D10A98ADEB000075
:1052E00000F1200B600702D524F4803401E04FF078
:1052F0000109D94502DDA9EB0B0000E0002000EB1D
:105300000B0141440890AAEB010AE00306D4DDE951
:105310000F232146504600F063F806444FF0000981
:1053200008E009A911F80900DDE90F12904709F119
:105330000109761CC145F4DBE0030CD5DDE90F2340
:105340002146504600F04CF8064404E0DDE90F1217
:1053500030209047761C0899481E08900029F5DCFB
:1053600008E00A980A990078491C0A91DDE90F12B1
:105370009047761CBBF10001ABF1010BF1DC21463B
:105380005046DDE90F2300F019F806446D1C1BE6BA
:10539000092801003031323334353637383961620B
:1053A00063646566000000003031323334353637CF
:1053B0003839414243444546000000002DE9F041A0
:1053C000044600251E461746880404D405E03946E5
:1053D0002020B0476D1C641EF9D52846BDE8F08139
:1053E0002DE9F041044600251E469046C80301D52C
:1053F000302700E02027880404D505E041463846E0
:10540000B0476D1C641EF9D52846BDE8F081000048
:1054100010B50DA0FFF78EFD0DA0FFF78BFD00244A
:1054200008E0134800EB44121248015D12A0FFF798
:1054300081FD641C042CF4DB12A0FFF77BFD19A096
:10544000FFF778FD10BD00001B5B324A1B5B480074
:105450003D3D3D3D3D3D3D3D3D3D2054414C4F5347
:10546000203D3D3D3D3D3D3D3D3D3D0D0A000000A3
:10547000DC560008010000202563202025730D0A5A
:10548000000000003D3D3D3D3D3D3D3D3D3D3D3D40
:105490003D3D3D3D3D3D3D3D3D3D3D3D3D3D3D0D6C
:1054A0000A000000757020646F776E2062792061B9
:1054B00072726F77206B65792C2073656C656374ED
:1054C00020627920656E7465720D0A0013B50C4672
:1054D0004FF0FF33012269460248FDF7ABFF009809
:1054E0001CBD00003C01002038B50446412C01D011
:1054F000442C17D132480078002807DD3048007866
:10550000401E2F49087000F0D7F805E02DA0FFF7E6
:1055100011FD00202A49087037A0FFF70BFDFFF7A7
:1055200077FF4BE0422C01D0432C14D12448007863
:10553000032807DA22480078401C2149087000F04F
:10554000BBF802E003201E4908702BA0FFF7F2FC15
:10555000FFF75EFF32E00D2C1ED119480178491C7F
:1055600027A0FFF7E7FC164800783030C0B2009063
:105570006423012269462948FDF75CFF1048007842
:10558000022801D1FBF7D8F80D480078032802D192
:105590000020FAF7EDFE11E0032C0FD1002008499E
:1055A000087000F089F8FFF733FF1DA0FFF7C2FC79
:1055B0006423012222491948FDF73CFF38BD000051
:1055C00000000020696E707574206572726F722C15
:1055D000746865206D6F64652063616E206F6E6C0A
:1055E000792062652063686F7365206265747765F2
:1055F000656E20317E3400001B5B324A1B5B480025
:105600000D0A697320646F696E6720746865206D88
:105610006F64653A25640D0A00000000D001002087
:105620000D0A63757420646F776E2074686520635B
:10563000686F73656E206D6F64650D0A0000000071
:1056400006000020FBF7C6FBFEF79EFAFDF75EFFA3
:10565000FEF7FEF8FEF700F8FDF7CEFFFEF7BAF80A
:10566000FEF756F8FEF72CF800F026F8FFF7D0FE0C
:1056700001220B490B48FDF74BFE01220A490B485A
:10568000FDF746FE0BE00A480078012807D100200C
:10569000074908700748007808B9FAF7E9FFF2E708
:1056A000050000203C0100200B000020D00100205C
:1056B0000A00002000000020002003E02021054A0D
:1056C0001154401C0428F9DB2A200249024A1278AE
:1056D000885470470100002000000020312E204F28
:1056E00070656E4D5620316579652064697374610B
:1056F0006E6365206465746163740000322E20500F
:10570000494420636F6E74726F6C204D47393020AE
:10571000616C69676E2063616D000000332E206F3D
:10572000757470757420746F20666C617368000006
:10573000000000000000000000000000342E206582
:105740007261736520666C61736800000000000080
:105750000000000000000000000000000100020046
:105760000400060008000A000C00100020004000A1
:105770008000000101010103070100000804020488
:105780000801010100000000000000000102030404
:10579000060708090000000001020304BC570008C6
:1057A00000000020280000008C4F0008E45700088B
:1057B00028000020880700009C4F0008000000001F
:1057C00000000000000000000000000000000000D9
:1057D0000000000010000000010000000024F400A0
:0457E00000000000C5
:04000005080001D915
:00000001FF
