:020000040800F2
:10000000D0080020790200088F25000895220008FA
:100010008D2500086F040008492F0008000000002B
:100020000000000000000000000000009325000810
:1000300071040008000000009125000895250008C3
:10004000930200089302000893020008930200083C
:10005000930200089302000893020008930200082C
:10006000930200089302000893020008930200081C
:10007000930200089302000893020008930200080C
:100080009302000800000000930200089302000899
:1000900093020008930200089302000893020008EC
:1000A000112600089302000893020008930200083A
:1000B00093020008930200089302000893020008CC
:1000C00093020008930200089302000893020008BC
:1000D00093020008930200089302000893020008AC
:1000E000930200089302000893020008930200089C
:1000F0009302000893020008930200080000000029
:1001000000000000930200080000000093020008B5
:100110009302000800000000930200089302000808
:10012000930200089302000893020008930200085B
:100130009302000800000000000000009302000885
:100140009302000893020008000000000000000075
:10015000000000000000000000000000000000009F
:1001600000000000000000000000000093020008F2
:1001700093020008000000000000000000000000E2
:1001800000000000930200080000000000000000D2
:10019000000000000000000000000000000000005F
:1001A00000000000000000009302000899220008EF
:1001B0009302000893020008930200080000000068
:1001C0000000000093020008000000000000000092
:1001D000930200089302000800F002F800F03CF8D7
:1001E0000AA090E8000C82448344AAF10107DA4592
:1001F00001D100F031F8AFF2090EBAE80F0013F0A8
:10020000010F18BFFB1A43F001031847F02D00003F
:10021000102E0000103A24BF78C878C1FAD85207CF
:1002200024BF30C830C144BF04680C607047000070
:100230000023002400250026103A28BF78C1FBD8EF
:10024000520728BF30C148BF0B6070471FB502F08E
:10025000AFFE1FBD10B510BD00F0CFF81146FFF77F
:10026000F5FF02F083FE00F0EDF803B4FFF7F2FFB4
:1002700003BC00F0F5F80000094880470948004732
:10028000FEE7FEE7FEE7FEE7FEE7FEE7FEE7FEE746
:10029000FEE7FEE704480549054A064B70470000A3
:1002A00001260008D9010008D0020020D008002053
:1002B000D0040020D004002053EA020C00F0698032
:1002C0002DE9F04B4FF00006002B1FBFB3FA83F56A
:1002D00003FA05F424FA05F65E4012BF1643B2FA9B
:1002E00082F502FA05F4C5F120051EBF22FA05FCCD
:1002F00044EA0C04203556EA044C4FEA144418BF73
:10030000641C4FF000084FF00009904271EB030CA1
:1003100039D3002919BFB1FA81F701FA07F6B0FA0B
:1003200080F700FA07F6C7F120071EBF20FA07FC86
:1003300046EA0C062037B6FBF4FCA7EB0507103F96
:1003400007F01F0BCBF120060CFA0BFB2CFA06F67C
:1003500044BFB3460026202FA4BF5E464FF0000BDB
:100360005BEA060C08BF4FF0010B19EB0B09ABFB66
:10037000027C48EB0608C01B06FB02CC0BFB03CC3F
:1003800071EB0C01C1E70B46024641464846BDE809
:10039000F08B13B54FF000004FF00001AFF3008079
:1003A000BDE81C4070474FF0000200B5134694466C
:1003B0009646203922BFA0E80C50A0E80C50B1F1BD
:1003C0002001BFF4F7AF090728BFA0E80C5048BFD1
:1003D0000CC05DF804EB890028BF40F8042B08BF6F
:1003E000704748BF20F8022B11F0804F18BF00F86B
:1003F000012B7047704770477047754600F02CF826
:10040000AE4605006946534620F00700854618B001
:1004100020B5FFF73FFFBDE820404FF000064FF04A
:1004200000074FF000084FF0000B21F00701AC4629
:10043000ACE8C009ACE8C009ACE8C009ACE8C00948
:100440008D46704710B50446AFF300802046BDE8E6
:100450001040FFF70ABF00000048704770020020FC
:1004600001491820ABBEFEE7260002007047FEE7F8
:10047000704772B6FEE710B590F8253000210122D2
:10048000022B03D00421C163012122E003681C6810
:1004900024F00E041C60836C1C6824F480741C60BF
:1004A00003681C6824F001041C6090F84430046C5C
:1004B00003F01F0302FA03F36360D0E913345C60B6
:1004C000436D33B11C6824F480741C60D0E9163489
:1004D0005C6080F82520002280F82420084610BDAA
:1004E00070B590F82520002401212346022A07D068
:1004F0000422C26380F8251080F82430012429E00A
:100500000268156825F00E0515600268156825F06B
:1005100001051560826C156825F48075156090F8EA
:100520004420056C02F01F0201FA02F26A60D0E971
:1005300013255560426D32B1156825F4807515603C
:10054000D0E91625556080F8251080F82430816B9D
:1005500001B18847204670BD70B5044600F038F9F7
:100560000546601C02D004484068044400F030F99D
:10057000401BA042FAD370BD000000202DE9F04FCF
:10058000DFF82092002301260324A9F1040B85B093
:100590000F2709F1040AABF1040EFAE006FA03F59D
:1005A0002A407CD091F804C00CF0030CBCF1010F80
:1005B00002D0BCF1020F26D1D0F808C0CDF800C09F
:1005C0004FEA430C04FA0CF8CDF810C0DDF800C077
:1005D0002CEA080CCDF800C0D1F80C80DDF810C072
:1005E00008FA0CF8DDF800C048EA0C08C0F80880EA
:1005F000D0F804C02CEA050C0D79C5F300159D4018
:1006000045EA0C0545600D79ED43AD070ED0C56890
:100610004FEA430804FA08FC25EA0C05D1F808C0A3
:100620000CFA08FC4CEA050CC0F80CC00D7905F07A
:100630000305022D16D1DD0800EB850CCDF808C0AE
:10064000DCF820805D074FEAD56C07FA0CF528EA44
:1006500005080D6905FA0CF5DDF808C045EA08053E
:10066000CCF8205005684FEA430CCDF808C004FAD6
:100670000CFC25EA0C0591F804C00CF00308DDF829
:1006800008C008FA0CF848EA0508C0F800804D6870
:1006900015F4403F7CD0444DD5F860C000E077E0D1
:1006A0004CF0010CC5F860C02D6E23F0030C05F072
:1006B000010500953D4D65440295AD684FEA837C88
:1006C0004FEA1C7807FA08FC25EA0C05B0F1904FB8
:1006D00006D0DFF8DCC0604505D14FF0010C20E00A
:1006E0004FF0000C1DE0DFF8CCC0604502D14FF0A8
:1006F000020C16E0DFF8C0C0604502D14FF0030CD9
:100700000FE0DFF8B8C0604502D14FF0040C08E0FC
:10071000DFF8ACC0604502D14FF0050C01E04FF0AE
:10072000060C0CFA08FC4CEA050C029DC5F808C042
:10073000D9F80050CC46D1F8048095435FEAC82828
:1007400000D51543CCF80050DAF80050D446D1F863
:10075000048095435FEA882800D51543CCF8005003
:10076000DBF80050DC46D1F8048095435FEA883816
:1007700000D51543CCF80050DEF80050F446D1F80F
:10078000048095435FEAC83800D51543CCF8005083
:100790005B1C0A6832FA03F57FF400AF05B0BDE8D0
:1007A000F08F0000080401400010024000000140EA
:1007B0000004004800080048000C004800100048F1
:1007C000001400480AB181617047816270470000DF
:1007D00001488068704700000000002090F8412028
:1007E000202A24D190F84020012A20D0012280F82C
:1007F0004020242280F841200268136823F001037E
:1008000013600268136823F480531360026813684E
:100810000B43136001680A6842F001020A6020215C
:1008200080F84110002180F84010084670470220EF
:10083000704790F84120202A22D190F84020012AC8
:100840001ED0012280F84020242280F84120026836
:10085000136823F0010313600268136823F47063C4
:1008600043EA0121116001680A6842F001020A604E
:10087000202180F84110002180F840100846704780
:1008800002207047074908B50A6E42F001020A6665
:10089000096E01F00101009103494A6802434A6070
:1008A00008BD0000001002400000014070B50400C7
:1008B00004D094F84100002510B106E0012070BD7D
:1008C00084F84050204600F04FF8242084F841007E
:1008D0002068016821F0010101606068216820F052
:1008E000706008612068816821F400418160E068DF
:1008F0000128A06830D040F4044021688860E06896
:100900000228206841682AD021F4006141602068F3
:100910004168144A114341602068C16821F40041D4
:10092000C160D4E904010843A16940EA01202168BB
:10093000C860D4E90701084321680860206801689D
:1009400041F0010101606564202084F841002563C5
:1009500084F84250002070BD40F40040CDE741F4DF
:100960000061D3E70080000230B597B0044614213F
:1009700011A8FFF718FD44216846FFF714FD174939
:100980002068884228D140200025009006956846BE
:1009900000F044F908B1FFF76CFD114CE06C40F039
:1009A0000200E064E06C11A900F0020016904FF420
:1009B00040701190122012900120CDE913050420FF
:1009C00015900848FFF7DAFDA06D40F40010A0650F
:1009D000A06D00F40010169017B030BD0054004018
:1009E0000010024000040048024881684268114437
:1009F000816070470000002010B50024032000F043
:100A000095F80F2000F008F808B1012401E000F08B
:100A100047F8204610BD000030B505461B4887B09A
:100A2000016E41F480310166006E06A900F4803049
:100A3000009001A800F024FB00F054FB1449154A73
:100A4000B0FBF1F11448491E0260416040F2E73208
:100A50000021C0E90321816000F033FE040012D1BF
:100A60000D4800F061FE04000DD1182000F030F8B0
:100A7000102D07D200222946182000F037F8074829
:100A8000056000E0012407B0204630BD00100240A0
:100A900040420F00004001402402002000000020DE
:100AA0000A4882B0016E41F001010166016E01F059
:100AB00001010091816D41F080518165806D00F0F0
:100AC0008050009002B000F0A1B800000010024079
:100AD000002809DB00F01F0201219140400980003D
:100AE00000F1E020C0F8001170470000F0B40E4B98
:100AF0001B680C46C3F30223C3F10705042D00D97C
:100B00000425191D072901D2002300E0DB1E012660
:100B100006FA05F1491E214099409E40761E164076
:100B20003143F0BC02F011BA0CED00E0064900F0D0
:100B3000070208684FF6FF03184040EA0220034A04
:100B400010430860704700000CED00E00000FA055B
:100B50002B492C4B0A6832214A432B4940B1B0F54E
:100B6000007F086829D020F4C06040F480602CE049
:100B70000868C0F34120022804D051F8800F20F407
:100B8000807022E0D1F8800020F48070C1F88000ED
:100B9000086820F4C06040F400700860B2FBF3F015
:100BA000401C00E0401E4A69520501D50028F9D1D9
:100BB000486940050AD503207047C0F34120022848
:100BC00006D051F8800F40F4807008600020704714
:100BD000D1F8800040F48070C1F88000086820F4EB
:100BE000C06040F400700860B2FBF3F0401C00E00D
:100BF000401E4A695205DBD50028F9D1D8E700002C
:100C00000C00002040420F00007000400248816844
:100C100041F4804181607047007000402DE9F84345
:100C20000446006800269D4D00035ED5A86D002790
:100C3000C00008D4A86D40F08050A865A86D0127B9
:100C400000F080500090DFF85892D9F8001041F47D
:100C50008071C9F80010FFF7BBFD804606E000BFB9
:100C6000FFF7B6FDA0EB080002282BD8D9F800004A
:100C7000C005F5D5D5F8900010F4407014D0216C63
:100C8000814211D0D5F89000D5F8901020F4407032
:100C900041F48031C5F89010D5F8901021F48031DE
:100CA000C5F89010C5F89000C00711D0FFF790FD6F
:100CB000804641F2883907E0FFF78AFDA0EB080182
:100CC000494501D903260BE0D5F890008007F3D5FC
:100CD000D5F89000216C20F440700843C5F89000CE
:100CE0001FB1A86D20F08050A8652078C00707D0FC
:100CF000D5F88800616820F003000843C5F8880033
:100D00002078800707D5D5F88800A16820F00C006E
:100D10000843C5F888002078400707D5D5F8880033
:100D2000E16820F030000843C5F88800207800070B
:100D300007D5D5F88800216920F0C0000843C5F820
:100D400088002078800607D5D5F88800616920F4EE
:100D500040600843C5F888002078400607D5D5F8DC
:100D60008800A16920F440500843C5F88800207825
:100D7000000607D5D5F88800E16920F44040084313
:100D8000C5F888002088C00507D5D5F88800216AF5
:100D900020F440300843C5F888002088800507D536
:100DA000D5F88800616A20F440200843C5F888001F
:100DB000208840050FD5D5F88800A16A20F440109E
:100DC0000843C5F88800A06AB0F5801F03D1E86821
:100DD00040F48010E860208800050FD5D5F8880021
:100DE000E16A20F440000843C5F88800E06AB0F5E5
:100DF000800F03D1E86840F48010E8602088C004C8
:100E00000FD5D5F88800216B20F040700843C5F855
:100E10008800206BB0F1807F03D1E86840F4801037
:100E2000E86020884FF0006180040ED5D5F8880076
:100E3000626B20F040601043C5F88800606B884208
:100E400003D1E86840F48010E860208840040ED5A3
:100E5000D5F88800A26B20F040601043C5F88800E8
:100E6000A06B884203D1E86840F48010E8602088D5
:100E700000040FD5D5F88800E16B20F040500843FE
:100E8000C5F88800E06BB0F1805F03D1E86840F4FA
:100E90008030E8603046BDE8F88300000010024072
:100EA000007000402DE9F0470E4605004FF00007A6
:100EB00025D0DFF8AC81D8F8000000F00F00B04278
:100EC0000CD2D8F8001021F00F013143C8F80010FF
:100ED000D8F8000000F00F00B04210D12968614C32
:100EE000C80741F2883A5AD06868DFF87C91032835
:100EF00008D0022820682DD0400500282CDB0120D6
:100F0000BDE8F08720688001F9D5E06800F00302B1
:100F1000E068C0F30310401C032A19D0534A00BFF5
:100F2000B2FBF0F0E268C2F306225043E268C2F37B
:100F30004162521C5200B0FBF2F0484517D9A0683C
:100F400010F0F00F0CD0880711D5A86840B10EE062
:100F5000474AE5E78003D0E700F0D6F8484506D9D0
:100F6000A06820F0F00040F08000A0608027A0681A
:100F7000696820F003000843A060FFF729FC814660
:100F800006E000BFFFF724FCA0EB090151453AD869
:100F9000A068696800F00C00B0EB810FF2D12868FE
:100FA000810714D5400703D5A06840F4E060A06035
:100FB0002878000705D5A06820F4605040F4E06070
:100FC000A060A068A96820F0F000084304E0802F2A
:100FD00003D1A06820F0F000A060D8F800104046CF
:100FE00001F00F01B14216D9016821F00F01314320
:100FF0000160FFF7EDFB074607E000BFFFF7E8FBE6
:10100000C11B514501D903207AE7D8F8000000F050
:101010000F00B042F2D12878400705D5A068E968F2
:1010200020F4E0600843A0602878000706D5A06897
:10103000296920F4605040EAC100A06000F064F823
:10104000A1680C4AC1F30311515C01F01F01C840B3
:101050000949086009480068BDE8F047FFF7DCBCB3
:10106000002002400010024000B4C4040024F40038
:1010700000127A00E22F00080C000020000000207F
:101080000F2202600C4A936803F0030343609368E5
:1010900003F0F0038360936803F4E063C360926835
:1010A0004FF4E06303EAD20202610448006800F0F2
:1010B0000F0008607047000000100240002002404E
:1010C0000548064900688968054AC1F30221515C58
:1010D00001F01F01C84070470C00002000100240C2
:1010E000F22F00080548064900688968054AC1F3DF
:1010F000C221515C01F01F01C84070470C00002064
:1011000000100240F22F0008184910B58868C0F39B
:1011100081021748012A0BD08A684310C2F381026A
:10112000022A06D08A68C2F38102032A03D0002073
:1011300010BD184610BDCA6802F00304CA68C2F3A5
:101140000312521C032C02D0B0FBF2F001E0B3FBFF
:10115000F2F0CA68C968C2F306225043C1F3416184
:10116000491C4900B0FBF1F010BD00000010024026
:101170000024F4002DE9F84304007AD02078F84DDB
:10118000C00747D0A868E96800F00C0001F003012F
:101190000C2802D0082817D001E0032914D0606879
:1011A000B0F5803F17D0B0F5A02F286817D020F4F5
:1011B00080302860286820F4802028606068E0B1D2
:1011C000FFF706FB064614E02868800322D5606816
:1011D0000028D2D01EE0286840F48030EDE740F4CB
:1011E00080202860F7E700BFFFF7F2FA801B642831
:1011F00070D828688003F7D50CE0FFF7E9FA0646B7
:1012000005E000BFFFF7E4FA801B6428F0D82868E7
:101210008003F7D4207880074CD5A868E96800F0EF
:101220000C0001F003010C2802D004280DD001E0CD
:1012300002290AD0E068002828682BD040F480708A
:101240002860FFF7C5FA064619E02868400502D570
:10125000E068002891D06868217C20F0FE4040EAD8
:1012600001606860BF480068FFF7D6FB002800D126
:1012700020E072E1FFF7ACFA801B0228B8D828689A
:101280004005F7D56868217C20F0FE4040EA016007
:1012900068600FE020F480702860FFF799FA064636
:1012A00005E000BFFFF794FA801B0228A0D8286849
:1012B0004005F7D42078000729D560690028D5F8C3
:1012C000940013D040F00100C5F89400FFF780FAB5
:1012D000064606E090E000BFFFF77AFA801B02287E
:1012E00086D8D5F894008007F6D510E020F00100EC
:1012F000C5F89400FFF76CFA064604E0FFF768FAB9
:10130000801B022878D8D5F894008007F6D420787E
:10131000400761D5A86D0026C00008D4A86D40F034
:101320008050A865A86D012600F0805000908E487E
:101330000168C90511D40168804641F480710160DB
:10134000FFF746FA074604E0FFF742FAC01B0228FF
:1013500052D8D8F80000C005F6D5A068012815D0ED
:101360000528D5F8900016D020F00100C5F89000AF
:10137000D5F8900020F00400C5F89000A06841F274
:101380008838B8B1FFF724FA07460EE0D5F8900088
:1013900040F00100F0E740F00400C5F89000F5E7E8
:1013A000FFF716FAC11B414526D8D5F890008007F3
:1013B000F6D50CE0FFF70CFA074604E0FFF708FA51
:1013C000C11B414518D8D5F890008007F6D41EB14E
:1013D000A86D20F08050A8652078800629D5A069E6
:1013E0000028D5F8980013D040F00100C5F8980007
:1013F000FFF7EEF9064606E075E000BFFFF7E8F9F3
:10140000801B02286FD8D5F898008007F6D510E029
:1014100020F00100C5F89800FFF7DAF9064604E06D
:10142000FFF7D6F9801B02285DD8D5F89800800711
:10143000F6D4E069F0B3A968C1F3810103295DD056
:101440000228286820F08070286003D0FFF7C0F9D8
:1014500004464BE0FFF7BCF9064604E0FFF7B8F995
:10146000801B02283FD828688001F7D4F4E90801DE
:101470006FF00F0202EB01110843218A5204490860
:1014800002EB4151A26841EA02210843217D4FF05D
:101490007E42490802EB41610843217B40EAC1607A
:1014A000E968324A11400843E860286840F08070DB
:1014B000286000E05EE0E86840F08070E860FFF7D8
:1014C00087F9044605E000BFFFF782F9001B0228F8
:1014D00009D828688001F7D54CE000BFFFF778F9FC
:1014E000001B022802D90320BDE8F8832868800188
:1014F000F4D4E8681E490840E8603BE00128F3D0D6
:10150000E868226A00F00301914226D1616A00F086
:10151000F0020901103991421FD1A26A00F4FE4184
:10152000B1EB022F19D194F82C2000F07841B1EBE7
:10153000C26F12D1218E00F4C00249084905A1F5FD
:101540000011914209D194F8341000F0C0604908AC
:101550004906A1F1007181420CD00120C4E70000CE
:101560000010024000000020007000400C809F012D
:10157000FCFFEEFE0020B7E77047704770470000A1
:1015800030B590F83C20012A42D0012280F83C205E
:10159000CA688B6822F440721A434B6822F4806256
:1015A0001A430B6822F400621A430B6922F480523A
:1015B0001A434B6922F400521A430B6B22F4804207
:1015C0001A430B8B22F4702242EA0342CB6922F0C9
:1015D00080521A430F4D03680024AB4202D00E4DD7
:1015E000AB4210D10D8D22F4700242EA05520D6A11
:1015F00022F080722A434D6A22F000722A43C96A9F
:1016000022F000520A435A6480F83C40002030BD6A
:10161000022030BD002C014000340140704770476B
:1016200070470000F0B590F83C20012A3AD001251F
:1016300080F83C50022280F83D2003685A689C687C
:10164000194E1A4FB34201D0BB4204D122F4700CA0
:101650004A6842EA0C02DFF858C002EA0C02D1F8EC
:1016600000C04CEA020CC3F804C00268B2420DD0BC
:10167000B2F1804F0AD00F4B9A4207D00E4B9A42DC
:1016800004D0BA4202D00D4B9A4204D1896824F0AA
:1016900080031943916080F83D50002180F83C1090
:1016A0000846F0BD0220F0BD002C0140003401408E
:1016B0008FFFFFFD00040040000800400040014093
:1016C000704710B5040003D094F83D0010B107E056
:1016D000012010BD002084F83C00204600F022F8D4
:1016E000022084F83D00211D206800F0A7FF0120A2
:1016F00084F8480084F83E0084F83F0084F84000F5
:1017000084F8410084F8420084F8430084F84400DF
:1017100084F8450084F8460084F8470084F83D00CA
:10172000002010BD7047000090F83D10012901D045
:1017300001207047022180F83D100168CA6842F01C
:101740000102CA600068104988420ED0B0F1804F93
:101750000BD00E49884208D00D49884205D00D496A
:10176000884202D00C49884207D181680B4A114057
:10177000062906D0B1F5803F03D0016841F0010190
:101780000160002070470000002C01400004004070
:101790000008004000340140004001400700010003
:1017A00070472DE9F04104460068C66805694FF0AE
:1017B0000007A90713D5B10711D5F91E0161012052
:1017C0002077206880698007204602D0FFF7E8FF75
:1017D00004E000F02EF9204600F052FA277768075F
:1017E00016D5700714D521686FF004000861022037
:1017F00020772068806910F4407F204602D0FFF7F0
:10180000CFFF04E000F015F9204600F039FA277701
:10181000280715D5300713D521686FF00800086137
:10182000042020772068C0698007204602D0FFF797
:10183000B7FF04E000F0FDF8204600F021FA27771A
:10184000E80616D5F00614D521686FF0100008617F
:10185000082020772068C06910F4407F204602D01D
:10186000FFF79EFF04E000F0E4F8204600F008FADD
:101870002777E80708D0F00706D021686FF001004D
:101880000861204600F0FEF9280601D4A80408D516
:10189000300606D521686FF4025008612046FFF734
:1018A0006CFEE80508D5300606D521686FF4807017
:1018B00008612046FFF760FE680608D5700606D569
:1018C00021686FF040000861204600F0E5F9A806A5
:1018D00008D5B00606D521686FF0200008612046C3
:1018E000FFF74CFEE80208D5F00206D521686FF438
:1018F000801008612046FFF792FEA80208D5B002CA
:1019000006D521686FF4001008612046FFF786FEB7
:10191000680208D5700206D521686FF4800008615E
:101920002046FFF77DFE28020AD5300208D521683F
:101930006FF4000008612046BDE8F041FFF7C0BE2B
:10194000BDE8F08110B586B0044614216846FEF764
:101950002AFD2368184C002118480222A34212D104
:10196000C36C43F00103C364C06C00F00100059038
:10197000D0010090CDE901210620CDE90310694690
:101980004FF0904014E0B3F1804F13D1C36C43F09B
:101990000203C364C06C00F0020005904FF4806045
:1019A0000090CDE901210120CDE9031069460448EA
:1019B000FEF7E4FD06B010BD002C0140001002400F
:1019C0000004004870B5044690F83C00002501284A
:1019D0000BD0012084F83C000C2A1ED007DC82B119
:1019E000042A12D0082A06D113E0022070BD102A62
:1019F00017D0142A19D00125002084F83C0028466D
:101A000070BD206800F078FEF6E7206800F0C2FEA6
:101A1000F2E7206800F006FFEEE7206800F04AFFDA
:101A2000EAE7206800F08EFFE6E7206800F0C2FFDA
:101A3000E2E7704710B5040003D094F83D0010B100
:101A400007E0012010BD002084F83C00204600F093
:101A500023F8022084F83D00211D206800F0EEFDEF
:101A6000012084F8480084F83E0084F83F0084F8A0
:101A7000400084F8410084F8420084F8430084F870
:101A8000440084F8450084F8460084F8470084F850
:101A90003D00002010BD000008B500680B498842D9
:101AA00012D10B48016E41F400610166006E002204
:101AB00000F4006000900F211820FFF717F8BDE830
:101AC00008401820FFF704B808BD0000002C0140B2
:101AD0000010024070B5044690F83C0000260D4608
:101AE00001280BD0012084F83C000C2A4AD007DCE6
:101AF00082B1042A20D0082A06D131E0022070BD2C
:101B0000102A53D0142A63D00126002084F83C0008
:101B1000304670BD206800F0EFFD2068816941F01B
:101B2000080181612068816921F0040181612068D8
:101B300081692A69114311E0206800F02BFE2068BA
:101B4000816941F4006181612068816921F48061CB
:101B50008161206881692A6941EA02218161D4E7B3
:101B6000206800F05FFE2068C16941F00801C16192
:101B70002068C16921F00401C1612068C1692A6936
:101B8000114311E0206800F095FE2068C16941F41E
:101B90000061C1612068C16921F48061C161206870
:101BA000C1692A6941EA0221C161AEE7206800F0FB
:101BB000C9FE2068016D41F0080101652068016DD2
:101BC00021F0040101652068016D2A69114311E0CB
:101BD000206800F0EFFE2068016D41F400610165AE
:101BE0002068016D21F4806101652068016D2A691A
:101BF00041EA0221016588E710B5040003D094F89A
:101C00003D0010B107E0012010BD002084F83C0029
:101C1000204600F023F8022084F83D00211D2068B2
:101C200000F00CFD012084F8480084F83E0084F8A0
:101C30003F0084F8400084F8410084F8420084F8B2
:101C4000430084F8440084F8450084F8460084F892
:101C5000470084F83D00002010BD000008B5006872
:101C6000B0F1804F08D10548816D41F001018165D7
:101C7000806D00F00100009008BD000000100240DF
:101C80007047000000680349884201D1FEF7ACBEEE
:101C90007047000000400140704790F8841001290F
:101CA00018D0012180F884102421C0F88810016820
:101CB0000A680B6823F001030B6022F00051002238
:101CC0004266036819602021C0F8881080F88420DB
:101CD00010467047022070477047704770B5044641
:101CE00090F8840001281DD0012084F8840024206D
:101CF000C4F8880020680568026822F001020260CA
:101D00002068826822F060620A438260204600F008
:101D100089FE206805602020C4F88800002084F82F
:101D2000840070BD022070BD70B5044690F8840038
:101D300001281DD0012084F884002420C4F88800E4
:101D400020680568026822F001020260206882684B
:101D500022F060420A438260204600F063FE206861
:101D600005602020C4F88800002084F8840070BD3D
:101D7000022070BD70477047704700002DE9F041A8
:101D800003680446D86919689A6840F60F05284226
:101D90004FF000054FF002060AD187067ED501F00C
:101DA000200702F0805C57EA0C0777D0616F42E1B0
:101DB000B64FDFF8DCC2174001EA0C0C57EA0C0CF6
:101DC0006CD05FEAC07C0CD05FEAC15C09D54FF0F3
:101DD000010CC3F820C0D4F8903043F00103C4F8DC
:101DE0009030830709D5D30707D023681E62D4F843
:101DF000903043F00403C4F8903043070AD5D3076A
:101E000008D0266804233362D4F8903043F00203EC
:101E1000C4F8903003070CD501F020033B4308D0F1
:101E2000266808233362D4F8903043F00803C4F8DE
:101E3000903003050BD54B0109D526684FF400639C
:101E40003362D4F8903043F02003C4F89030D4F8D3
:101E50009030002B3DD0800609D501F0200002F023
:101E60008051084303D0616F09B120468847D4F8F8
:101E7000900021688968490602D410F0280F2AD002
:101E8000204600F0B3FE2068806840061ED520681A
:101E9000083050E8001F21F0400100E021E040E858
:101EA0000012002AF3D1D4F8800078B17949816317
:101EB000D4F88000FEF714FB00280AD0D4F8800084
:101EC000816B00E02046BDE8F04108472046FFF75F
:101ED00053FFBDE8F0812046FFF74EFFC4F8905055
:101EE000F7E7D4F86CC02027BCF1010F7ED15FEA80
:101EF000C06C7BD55FEAC16C78D510201862206871
:101F00008068400651D5D4F880100A6850680004F3
:101F1000000C3ED0B4F85C3083423AD9A4F85E009D
:101F20000868006880062CD4216851E8000F20F46E
:101F3000807041E80002002AF6D12068083050E89D
:101F4000001F21F0010140E80012002AF5D12068AD
:101F5000083050E8001F21F0400140E80012002A3C
:101F6000F5D1C4F88C70E566216851E8000F20F0C7
:101F7000100041E80002002AF6D1D4F88000FEF7F4
:101F80007AFA2667B4F85C00B4F85E10401A81B2A1
:101F900007E0B4F85C1081429BD11068800698D5A8
:101FA00026672046FFF798FE93E7B4F85C00B4F884
:101FB0005E10401A81B2B4F85E00002889D0002972
:101FC00087D0226852E8000F20F4907042E80003A6
:101FD000002BF6D12D4BDB432068083050E8002F52
:101FE0001A4040E8002CBCF1000F00E00EE0F3D1F5
:101FF000C4F88C70E5666567206850E8002F22F011
:10200000100240E80023002BF6D1C9E7C60209D52B
:10201000560207D54FF4801018622046BDE8F04103
:10202000FFF7A9BE03060AD501F0800302F40002FF
:10203000134304D0A16F00297FF444AF49E742065F
:1020400011D54A060FD52046016851E8002F22F02D
:10205000400241E80023002BF6D1C0F88870856764
:1020600000F017F935E7020206D54A0004D52046EC
:10207000BDE8F041FFF77EBEC00195D5002993DA97
:102080002046BDE8F041FFF728BE00000100001027
:1020900020010004DD2B000810B5040003D0D4F8A3
:1020A000880010B107E0012010BD002084F88400F2
:1020B000204600F027F82420C4F888002068016832
:1020C00021F001010160A06A10B1204600F0CCFCB3
:1020D000204600F0B5FD0128E6D02068416821F4D3
:1020E000904141602068816821F02A018160206868
:1020F000016841F0010101602046BDE8104000F098
:1021000017BD000070B598B00446142111A8FEF761
:102110004AF944216846FEF746F92E4920682E4DBB
:102120000226002488422DD1202005940090684684
:10213000FEF774FD08B1FEF79CF9E86D40F0010070
:10214000E865E86D00F001001690E86C40F00100D1
:10215000E864E86CCDE9126400F0010016900C20F0
:10216000CDE91440119011A94FF09040FEF706FA06
:10217000002211465B20FEF7B9FC5B20FEF7A8FCAD
:1021800018B070BD15498842FAD10120CDE900048C
:102190006846FEF743FD08B1FEF76BF9286E40F480
:1021A00080402866286E00F480401690E86C40F06D
:1021B0000200E864E86CCDE9126400F002001690B9
:1021C000C02011900720CDE9144011A90448FEF762
:1021D000D5F9D5E7008000400010024000380140EA
:1021E000000400482DE9F8430446D0F888009846DA
:1021F00016460D46202802D00220BDE8F883A5B17E
:102200009EB10020C4F890002120C4F88800183442
:10221000FEF7DEFAA6878146E68754F8100C2027E1
:10222000183CB0F5805F02D003E00120E5E72069AB
:1022300010B12E46002510E000260EE08021204639
:1022400000F038FEC0B9DEB116F8010B21688862D3
:10225000B4F85600401EA4F85600B4F856004B4699
:102260004FF00002CDF800800028E7D14FF0400188
:10227000204600F01FFE40B1C4F888700320BCE780
:1022800035F8020BC0F30800E0E7C4F888700020BE
:10229000B3E77047FEE700000148FFF76FBD00009D
:1022A00064000020F0B587B014216846FEF77BF883
:1022B0002248C16C41F00401C164C16C01F0040109
:1022C0000591C16C41F02001C164C16C01F0200195
:1022D0000591C16C41F00101C164C16C01F00101C3
:1022E0000591C16C41F00201C164C06C144E00F054
:1022F00002004FF400540590002221463046FEF7BC
:1023000061FA4FF09047002220213846FEF75AFA32
:102310000125CDE900450024029469463046039426
:10232000FEF72CF920200090CDE90154694638468B
:102330000394FEF723F907B0F0BD0000001002403F
:1023400000080048144810B5124901601349416063
:1023500000210122C0E90212016141618161C16174
:102360000162FEF7A3FA08B1FEF783F800210A48DC
:10237000FEF734FA08B1FEF77CF800210648FEF7B4
:1023800058FA08B1FEF775F8BDE810404FF4801018
:10239000FEF778BA00540040100000200F065240AB
:1023A000174810B5154901604FF4E1314160002133
:1023B00081600C22C160C0E9041281610162416246
:1023C0008162FFF769FE08B1FEF753F800210C485F
:1023D000FFF7AAFC08B1FEF74CF800210848FFF708
:1023E0007DFC08B1FEF745F80548FFF756FC0028CC
:1023F00003D0BDE81040FEF73CB810BD008000409F
:102400006400002010B598B00024149415941C2189
:102410000DA81694FDF7C7FF34216846FDF7C3FFEA
:1024200023482249C0E900144FF6FF71C0E9024178
:10243000046144618461FFF7FDFA08B1FEF719F801
:102440001494159414A91A481694FFF7EBF808B1E0
:10245000FEF70FF80D940E940F94109411941294AB
:1024600000220DA912481394FFF7ACFA08B1FEF749
:1024700000F800944FF40050CDE9044003940003A9
:10248000CDE9084001940294069407940A940B94B1
:10249000694607480C94FFF773F808B1FDF7E9FFA8
:1024A0000348FFF74FFA18B010BD0000002C0140A0
:1024B0008C01002010B58AB00024079408941C21D8
:1024C00068460994FDF76FFF15484FF080410160A1
:1024D0001021C0E9011441F28731C0E9031484617D
:1024E000FFF78AFB08B1FDF7C4FF079407A90C4862
:1024F0000994FFF797F808B1FDF7BBFF6020CDE91D
:10250000000402940822694605480494FFF7E2FAA1
:1025100008B1FDF7AEFF0248FFF714FA0AB010BD8C
:10252000D8010020184810B5164901604FF4E13178
:102530004160002181600C22C160C0E90412816108
:10254000C161016241628162FFF7A6FD08B1FDF73A
:1025500090FF00210C48FFF7E7FB08B1FDF789FF6A
:1025600000210948FFF7BAFB08B1FDF782FF0648D2
:10257000FFF793FB002803D0BDE81040FDF779BFBB
:1025800010BD000000380140F8000020FEE7FEE723
:1025900070477047704710B594B038216846FDF712
:1025A00002FF14210EA8FDF7FEFE0020FEF7D0FA70
:1025B000012000904FF4A020019002200324CDE9D7
:1025C00007045521CDE909010421CDE90B010D9046
:1025D0006846FEF7CFFD08B172B6FEE70F20CDE9E1
:1025E0000E04002010901190129004210EA8FEF706
:1025F00059FC002801D072B6FEE714B010BD0000EF
:102600000248016841F470010160704788ED00E004
:10261000084810B5006810B10648FFF7C2F8064830
:102620000068002804D0BDE810400348FFF7B9B89F
:1026300010BD00008C010020240200202DE9F04391
:102640000268264B264D274E274C4FF08049984272
:1026500007D0484505D0A84203D0B04201D0A042DF
:1026600003D122F070074A683A43204FDFF880C058
:10267000DFF8808098420DD048450BD0A84209D0A1
:10268000B04207D0A04205D0B84203D0604501D087
:10269000404503D122F44075CA682A434D6922F0AF
:1026A00080022A4302608A68C2620A688262984293
:1026B00007D0A04205D0B84203D0604501D04045C4
:1026C00001D109690163012141610169C90703D091
:1026D000016921F001010161BDE8F083002C014096
:1026E0000004004000080040003401400040014068
:1026F00000440140004801402DE9F043056A026AA8
:1027000022F001020262436882691C4C25F0020536
:1027100022400C6822F0030214438A68194E2A43AF
:10272000174D194FDFF864C0DFF86490A84207D056
:10273000B04205D0B84203D0604501D0484506D12B
:1027400022F00808CA6842EA080222F00402A842FD
:1027500007D0B04205D0B84203D0604501D048450B
:1027600005D14D6923F440731D438B692B434360AE
:102770008461496841630262BDE8F0838FFFFEFF18
:10278000002C014000340140004001400044014061
:1027900000480140F0B5056A026A22F010020262A8
:1027A00042688369194C1B4E23400C6823F4407324
:1027B00043EA042425F020038D6843EA0513144DF1
:1027C000A84201D0B04206D1CF6823F0800343EA8B
:1027D000071323F04003A8420AD0B04208D00E4DA0
:1027E000A84205D00D4DA84202D00D4DA84207D1F8
:1027F0004D6922F4406242EA85028D6942EA85020F
:1028000042608461496881630362F0BDFF8FFFFE0F
:10281000002C0140003401400040014000440140D0
:1028200000480140F0B5056A026A22F48072026233
:102830004368C269194C1B4E22400C6822F0030207
:10284000144325F400728D6842EA0522144DA84213
:1028500001D0B04206D1CF6822F4006242EA0722DA
:1028600022F48062A8420AD0B04208D00E4DA8429D
:1028700005D00E4DA84202D00D4DA84207D14D699A
:1028800023F4405343EA05138D6943EA051343607B
:10289000C4614968C1630262F0BD00008FFFFEFFA2
:1028A000002C014000340140004001400044014040
:1028B00000480140F0B5056A026A22F480520262C3
:1028C0004268C369194C1B4E23400C6823F44073C3
:1028D00043EA042425F400538D6843EA0533144D7C
:1028E000A84201D0B04206D1CF6823F4004343EAA6
:1028F000073323F48043A8420AD0B04208D00E4DDB
:10290000A84205D00D4DA84202D00D4DA84207D1D6
:102910004D6922F4404242EA85128D6942EA8512ED
:102920004260C461496801640362F0BDFF8FFFFE2D
:10293000002C0140003401400040014000440140AF
:102940000048014030B5056A026A22F48032026212
:102950004268036D114C23400C681C4325F400337E
:102960000D8943EA05430E4DA8420BD00D4DA842F8
:1029700008D00D4DA84205D00C4DA84202D00C4DF8
:10298000A84204D14D6922F4803242EA0522426015
:10299000046549688164036230BD00008FFFFEFF5B
:1029A000002C01400034014000400140004401403F
:1029B0000048014030B5046A026A22F480120262C3
:1029C0004268036D114D24F400142B400D6843EA56
:1029D00005230D8944EA05540D4DA8420BD00D4D39
:1029E000A84208D00C4DA84205D00C4DA84202D0F8
:1029F0000B4DA84204D14D6922F4802242EA85227F
:102A0000426003654968C164046230BDFF8FFFFE08
:102A1000002C0140003401400040014000440140CE
:102A20000048014030B5416EB9B1026891689268C2
:102A3000C1F342610B4B520F9C5CE50003F10804AB
:102A4000A25CB5FBF2F2A0F86A205A5C615CD2008D
:102A5000B2FBF1F1A0F8681030BD0121A0F86A10B6
:102A6000F8E70000D22F000890F82810090706D5D3
:102A700001684A68836B22F400421A434A6090F866
:102A80002810C90706D001684A68C36A22F40032D8
:102A90001A434A6090F82810890706D501684A68E9
:102AA000036B22F480321A434A6090F828104907D9
:102AB00006D501684A68436B22F480221A434A60B3
:102AC00090F82810C90606D501688A68C36B22F4FD
:102AD00080521A438A6090F82810890606D501684A
:102AE0008A68036C22F400521A438A6090F8281016
:102AF000490611D501684A68436C22F480121A43D2
:102B00004A60416CB1F5801F06D101684A68836C48
:102B100022F4C0021A434A6090F82810090606D52C
:102B200001684A68C06C22F4002202434A60704780
:102B30002DE9F84300260446C0F89060FDF748FEF2
:102B40008046206800684FF0200500076FF07E4740
:102B500013D54346002229042046009700F0AAF925
:102B600058B1216851E8000F20F0800041E80002D0
:102B7000002AF6D1C4F8885021E020680068400798
:102B800022D5434600224FF480012046009700F0F2
:102B900091F9C8B1216851E8000F20F4907041E824
:102BA0000002002AF6D12068083050E8001F21F00A
:102BB000010140E80012002AF5D1C4F88C5084F8D5
:102BC00084600320BDE8F883C4F88850C4F88C50B2
:102BD00044F86C6F666026760020F3E710B5806AD3
:102BE0000021A0F85E10FFF7C7F810BD10B502680D
:102BF00052E8001F21F4907142E80013002BF6D137
:102C00000E4B0268083252E8001F194042E80014D7
:102C1000002CF6D1C16E012908D1016851E8002FBE
:102C200022F0100241E80023002BF6D12021C0F849
:102C30008C100021C166416710BD0000FEFFFFEF50
:102C40002DE9F0410446016880682269E369104378
:102C5000626900251A431043DFF82CC20A688B4BC7
:102C60001A4002430A6020684168E26821F440513A
:102C7000114341602168A069614501D0226A104377
:102C80008A68834B1A4002438A602068C16A626A7C
:102C900021F00F011143C1627E4923687E488B42B7
:102CA0000DD1D0F8880010F0030006D0012855D0CF
:102CB000022842D003283FD152E001203DE077496D
:102CC0008B420BD1D0F8880010F00C0035D00428CE
:102CD00033D0082840D00C282ED141E070498B42D7
:102CE0000BD1D0F8880010F0300026D0102835D055
:102CF000202831D030281FD132E06A498B420BD1D5
:102D0000D0F8880010F0C00017D0402826D08028C6
:102D100022D0C02810D123E063450DD1D0F888001F
:102D200010F4406009D0B0F5806F17D0B0F5006F97
:102D300012D0B0F5406F13D010205B495B4F0026D6
:102D40004FF4004263453BD160B1022813D0042800
:102D50000BD0082872D10DE00220EEE70420ECE74A
:102D60000820EAE7FEF7ACF901E0FEF7CDF9010033
:102D700001D17CE01146606A37F810206768B1FB2A
:102D8000F2F007EB4703834270D8B0EB073F6DD8F2
:102D9000002308461946FDF78FFA090241EA10613F
:102DA00002027808101871413A460023FDF784FAB0
:102DB0003F4AA0F54071914258D82168C86056E05A
:102DC000E3694FF6EF7893422CD109284ED2DFE821
:102DD00000F00508114D0D4D4D4D1000FEF770F936
:102DE00001E0FEF77FF9010004D140E0FEF78CF925
:102DF000F9E71146606A37F81000B1FBF0F04100C6
:102E0000606801EB5001B1FBF0F0A0F11001414509
:102E10002CD84FF6F0710140C0F342000143206806
:102E2000C16024E0092821D2DFE800F00509122062
:102E30000E2020201100FEF743F902E016E0FEF715
:102E400051F9010004D112E0FEF75EF9F9E71146ED
:102E5000606A37F81000B1FBF0F1606801EB5001D7
:102E6000B1FBF0F0A0F1100141450AD90125012084
:102E7000A4F86A0024F8680F2846E6602661BDE8D9
:102E8000F08180B299E7000000800040F369FFCF35
:102E9000FFF4FF11003801400010024000440040E0
:102EA00000480040004C00400024F400BA2F000805
:102EB000FFFC0F002DE9F047994617460D460446E2
:102EC0004FF00008089E33E0701C31D0FDF780FC05
:102ED000A0EB0900B04218D8BEB1206801684907CC
:102EE00026D5802D24D0402D22D0C169C9430907A1
:102EF0000DD4082505622046FFF778FEC4F89050EF
:102F000084F884800120BDE8F0870320FBE7C069D6
:102F1000C04300050CD421684FF4006008622046CD
:102F2000FFF764FE2020C4F8900084F88480ECE76A
:102F30002068C06935EA000004D00020B842C3D040
:102F40000020E0E70120F9E7FEE70907090E002865
:102F500004DB00F1E02080F80014704700F00F005F
:102F600000F1E02080F8141D7047000008B5012032
:102F70008DF80000FDF740FDFFF70DFBFFF792F91C
:102F8000FFF7D0FAFFF70CFAFFF7DCF9FFF792FA38
:102F9000FFF738FA4FF47A74642301226946034834
:102FA000FFF720F92046FDF7D7FAF5E76400002087
:102FB0004FF04070E1EE100A70470100020004007B
:102FC000060008000A000C001000200040008000ED
:102FD00000010101010307010000080402040801C7
:102FE00001010000000000000000010203040607C8
:102FF0000809000000000102030400001C30000862
:103000000000002010000000140200082C3000080E
:1030100010000020C008000030020008100000006E
:0C30200001000000000000000024F4008B
:04000005080001D915
:00000001FF
